{
  "_format": "hh-sol-artifact-1",
  "contractName": "TicketValidator",
  "sourceName": "contracts/TicketValidator.sol",
  "abi": [
    {
      "inputs": [
        {
          "internalType": "address",
          "name": "_ticketNFT",
          "type": "address"
        }
      ],
      "stateMutability": "nonpayable",
      "type": "constructor"
    },
    {
      "anonymous": false,
      "inputs": [
        {
          "indexed": true,
          "internalType": "address",
          "name": "previousOwner",
          "type": "address"
        },
        {
          "indexed": true,
          "internalType": "address",
          "name": "newOwner",
          "type": "address"
        }
      ],
      "name": "OwnershipTransferred",
      "type": "event"
    },
    {
      "anonymous": false,
      "inputs": [
        {
          "indexed": true,
          "internalType": "uint256",
          "name": "tokenId",
          "type": "uint256"
        },
        {
          "indexed": true,
          "internalType": "address",
          "name": "validator",
          "type": "address"
        },
        {
          "indexed": false,
          "internalType": "bool",
          "name": "isValid",
          "type": "bool"
        },
        {
          "indexed": false,
          "internalType": "string",
          "name": "notes",
          "type": "string"
        }
      ],
      "name": "TicketValidated",
      "type": "event"
    },
    {
      "anonymous": false,
      "inputs": [
        {
          "indexed": false,
          "internalType": "bool",
          "name": "enabled",
          "type": "bool"
        }
      ],
      "name": "ValidationToggled",
      "type": "event"
    },
    {
      "anonymous": false,
      "inputs": [
        {
          "indexed": false,
          "internalType": "uint256",
          "name": "newWindow",
          "type": "uint256"
        }
      ],
      "name": "ValidationWindowUpdated",
      "type": "event"
    },
    {
      "anonymous": false,
      "inputs": [
        {
          "indexed": true,
          "internalType": "address",
          "name": "validator",
          "type": "address"
        }
      ],
      "name": "ValidatorAuthorized",
      "type": "event"
    },
    {
      "anonymous": false,
      "inputs": [
        {
          "indexed": true,
          "internalType": "address",
          "name": "validator",
          "type": "address"
        }
      ],
      "name": "ValidatorRevoked",
      "type": "event"
    },
    {
      "inputs": [
        {
          "internalType": "address",
          "name": "_validator",
          "type": "address"
        }
      ],
      "name": "authorizeValidator",
      "outputs": [],
      "stateMutability": "nonpayable",
      "type": "function"
    },
    {
      "inputs": [
        {
          "internalType": "address",
          "name": "",
          "type": "address"
        }
      ],
      "name": "authorizedValidators",
      "outputs": [
        {
          "internalType": "bool",
          "name": "",
          "type": "bool"
        }
      ],
      "stateMutability": "view",
      "type": "function"
    },
    {
      "inputs": [
        {
          "internalType": "uint256[]",
          "name": "_tokenIds",
          "type": "uint256[]"
        },
        {
          "internalType": "bool[]",
          "name": "_isValid",
          "type": "bool[]"
        },
        {
          "internalType": "string[]",
          "name": "_notes",
          "type": "string[]"
        }
      ],
      "name": "batchValidateTickets",
      "outputs": [],
      "stateMutability": "nonpayable",
      "type": "function"
    },
    {
      "inputs": [
        {
          "internalType": "uint256",
          "name": "_tokenId",
          "type": "uint256"
        }
      ],
      "name": "getLastValidation",
      "outputs": [
        {
          "components": [
            {
              "internalType": "uint256",
              "name": "tokenId",
              "type": "uint256"
            },
            {
              "internalType": "address",
              "name": "validator",
              "type": "address"
            },
            {
              "internalType": "uint256",
              "name": "validatedAt",
              "type": "uint256"
            },
            {
              "internalType": "bool",
              "name": "isValid",
              "type": "bool"
            },
            {
              "internalType": "string",
              "name": "notes",
              "type": "string"
            }
          ],
          "internalType": "struct TicketValidator.ValidationRecord",
          "name": "",
          "type": "tuple"
        }
      ],
      "stateMutability": "view",
      "type": "function"
    },
    {
      "inputs": [
        {
          "internalType": "uint256",
          "name": "_tokenId",
          "type": "uint256"
        }
      ],
      "name": "getTicketValidationInfo",
      "outputs": [
        {
          "internalType": "bool",
          "name": "isValidated",
          "type": "bool"
        },
        {
          "components": [
            {
              "internalType": "uint256",
              "name": "tokenId",
              "type": "uint256"
            },
            {
              "internalType": "address",
              "name": "validator",
              "type": "address"
            },
            {
              "internalType": "uint256",
              "name": "validatedAt",
              "type": "uint256"
            },
            {
              "internalType": "bool",
              "name": "isValid",
              "type": "bool"
            },
            {
              "internalType": "string",
              "name": "notes",
              "type": "string"
            }
          ],
          "internalType": "struct TicketValidator.ValidationRecord",
          "name": "lastValidation",
          "type": "tuple"
        },
        {
          "internalType": "uint256",
          "name": "totalValidations",
          "type": "uint256"
        }
      ],
      "stateMutability": "view",
      "type": "function"
    },
    {
      "inputs": [
        {
          "internalType": "uint256",
          "name": "_tokenId",
          "type": "uint256"
        }
      ],
      "name": "getValidationHistory",
      "outputs": [
        {
          "components": [
            {
              "internalType": "uint256",
              "name": "tokenId",
              "type": "uint256"
            },
            {
              "internalType": "address",
              "name": "validator",
              "type": "address"
            },
            {
              "internalType": "uint256",
              "name": "validatedAt",
              "type": "uint256"
            },
            {
              "internalType": "bool",
              "name": "isValid",
              "type": "bool"
            },
            {
              "internalType": "string",
              "name": "notes",
              "type": "string"
            }
          ],
          "internalType": "struct TicketValidator.ValidationRecord[]",
          "name": "",
          "type": "tuple[]"
        }
      ],
      "stateMutability": "view",
      "type": "function"
    },
    {
      "inputs": [
        {
          "internalType": "address",
          "name": "_validator",
          "type": "address"
        }
      ],
      "name": "getValidatorStats",
      "outputs": [
        {
          "internalType": "uint256",
          "name": "",
          "type": "uint256"
        }
      ],
      "stateMutability": "view",
      "type": "function"
    },
    {
      "inputs": [
        {
          "internalType": "address",
          "name": "_validator",
          "type": "address"
        }
      ],
      "name": "isAuthorizedValidator",
      "outputs": [
        {
          "internalType": "bool",
          "name": "",
          "type": "bool"
        }
      ],
      "stateMutability": "view",
      "type": "function"
    },
    {
      "inputs": [
        {
          "internalType": "uint256",
          "name": "",
          "type": "uint256"
        }
      ],
      "name": "isTicketValidated",
      "outputs": [
        {
          "internalType": "bool",
          "name": "",
          "type": "bool"
        }
      ],
      "stateMutability": "view",
      "type": "function"
    },
    {
      "inputs": [
        {
          "internalType": "uint256",
          "name": "_tokenId",
          "type": "uint256"
        }
      ],
      "name": "isTicketValidatedByValidator",
      "outputs": [
        {
          "internalType": "bool",
          "name": "",
          "type": "bool"
        }
      ],
      "stateMutability": "view",
      "type": "function"
    },
    {
      "inputs": [],
      "name": "owner",
      "outputs": [
        {
          "internalType": "address",
          "name": "",
          "type": "address"
        }
      ],
      "stateMutability": "view",
      "type": "function"
    },
    {
      "inputs": [],
      "name": "renounceOwnership",
      "outputs": [],
      "stateMutability": "nonpayable",
      "type": "function"
    },
    {
      "inputs": [
        {
          "internalType": "address",
          "name": "_validator",
          "type": "address"
        }
      ],
      "name": "revokeValidator",
      "outputs": [],
      "stateMutability": "nonpayable",
      "type": "function"
    },
    {
      "inputs": [],
      "name": "ticketNFT",
      "outputs": [
        {
          "internalType": "contract TicketNFT",
          "name": "",
          "type": "address"
        }
      ],
      "stateMutability": "view",
      "type": "function"
    },
    {
      "inputs": [
        {
          "internalType": "bool",
          "name": "_enabled",
          "type": "bool"
        }
      ],
      "name": "toggleValidation",
      "outputs": [],
      "stateMutability": "nonpayable",
      "type": "function"
    },
    {
      "inputs": [
        {
          "internalType": "address",
          "name": "newOwner",
          "type": "address"
        }
      ],
      "name": "transferOwnership",
      "outputs": [],
      "stateMutability": "nonpayable",
      "type": "function"
    },
    {
      "inputs": [
        {
          "internalType": "uint256",
          "name": "_newWindow",
          "type": "uint256"
        }
      ],
      "name": "updateValidationWindow",
      "outputs": [],
      "stateMutability": "nonpayable",
      "type": "function"
    },
    {
      "inputs": [
        {
          "internalType": "uint256",
          "name": "_tokenId",
          "type": "uint256"
        },
        {
          "internalType": "bool",
          "name": "_isValid",
          "type": "bool"
        },
        {
          "internalType": "string",
          "name": "_notes",
          "type": "string"
        }
      ],
      "name": "validateTicket",
      "outputs": [],
      "stateMutability": "nonpayable",
      "type": "function"
    },
    {
      "inputs": [],
      "name": "validationEnabled",
      "outputs": [
        {
          "internalType": "bool",
          "name": "",
          "type": "bool"
        }
      ],
      "stateMutability": "view",
      "type": "function"
    },
    {
      "inputs": [
        {
          "internalType": "uint256",
          "name": "",
          "type": "uint256"
        },
        {
          "internalType": "uint256",
          "name": "",
          "type": "uint256"
        }
      ],
      "name": "validationHistory",
      "outputs": [
        {
          "internalType": "uint256",
          "name": "tokenId",
          "type": "uint256"
        },
        {
          "internalType": "address",
          "name": "validator",
          "type": "address"
        },
        {
          "internalType": "uint256",
          "name": "validatedAt",
          "type": "uint256"
        },
        {
          "internalType": "bool",
          "name": "isValid",
          "type": "bool"
        },
        {
          "internalType": "string",
          "name": "notes",
          "type": "string"
        }
      ],
      "stateMutability": "view",
      "type": "function"
    },
    {
      "inputs": [],
      "name": "validationWindow",
      "outputs": [
        {
          "internalType": "uint256",
          "name": "",
          "type": "uint256"
        }
      ],
      "stateMutability": "view",
      "type": "function"
    },
    {
      "inputs": [
        {
          "internalType": "address",
          "name": "",
          "type": "address"
        }
      ],
      "name": "validatorStats",
      "outputs": [
        {
          "internalType": "uint256",
          "name": "",
          "type": "uint256"
        }
      ],
      "stateMutability": "view",
      "type": "function"
    },
    {
      "inputs": [
        {
          "internalType": "uint256",
          "name": "_tokenId",
          "type": "uint256"
        }
      ],
      "name": "verifyTicketComplete",
      "outputs": [
        {
          "internalType": "bool",
          "name": "isTicketValid",
          "type": "bool"
        },
        {
          "internalType": "bool",
          "name": "isValidationValid",
          "type": "bool"
        },
        {
          "internalType": "bool",
          "name": "isWithinWindow",
          "type": "bool"
        },
        {
          "internalType": "string",
          "name": "status",
          "type": "string"
        }
      ],
      "stateMutability": "view",
      "type": "function"
    }
  ],
  "bytecode": "0x6080604052620151806007556008805460ff191660011790553480156200002557600080fd5b50604051620022b4380380620022b48339810160408190526200004891620000cd565b62000053336200007d565b60018055600280546001600160a01b0319166001600160a01b0392909216919091179055620000ff565b600080546001600160a01b038381166001600160a01b0319831681178455604051919092169283917f8be0079c531659141344cd1fd0a4f28419497f9722a3daafe3b4186f6b6457e09190a35050565b600060208284031215620000e057600080fd5b81516001600160a01b0381168114620000f857600080fd5b9392505050565b6121a5806200010f6000396000f3fe608060405234801561001057600080fd5b506004361061014d5760003560e01c8063715018a6116100c3578063bd7b358c1161007c578063bd7b358c1461033d578063e67ca1ff14610350578063ea060ab814610370578063f180cdfb14610390578063f2fde38b146103a3578063f8e87226146103b657600080fd5b8063715018a61461028457806375a197bd1461028c5780638da5cb5b146102b85780639258effc146102dd578063af4b067414610306578063b393391b1461032a57600080fd5b80632b9b524e116101155780632b9b524e146101f35780632d395e4d146102165780633954acdc1461021f5780634d1de87b14610241578063587141631461024e5780635c4e79fb1461027157600080fd5b8063047564b7146101525780630b46382f14610167578063144673aa1461019a578063184cbf77146101ad578063210dd9c8146101e0575b600080fd5b610165610160366004611735565b6103d9565b005b610187610175366004611735565b60066020526000908152604090205481565b6040519081526020015b60405180910390f35b6101656101a8366004611759565b61042a565b6101d06101bb366004611759565b60046020526000908152604090205460ff1681565b6040519015158152602001610191565b6101656101ee366004611780565b61046e565b6101d0610201366004611759565b60009081526004602052604090205460ff1690565b61018760075481565b61023261022d366004611759565b6104b7565b6040516101919392919061183c565b6008546101d09060ff1681565b6101d061025c366004611735565b60056020526000908152604090205460ff1681565b61016561027f366004611a8c565b610604565b6101656107a4565b6101d061029a366004611735565b6001600160a01b031660009081526005602052604090205460ff1690565b6000546001600160a01b03165b6040516001600160a01b039091168152602001610191565b6101876102eb366004611735565b6001600160a01b031660009081526006602052604090205490565b610319610314366004611b69565b6107b8565b604051610191959493929190611b8b565b6002546102c5906001600160a01b031681565b61016561034b366004611735565b6108a2565b61036361035e366004611759565b6108f6565b6040516101919190611bcb565b61038361037e366004611759565b610a6c565b6040516101919190611bde565b61016561039e366004611c40565b610baa565b6101656103b1366004611735565b610fae565b6103c96103c4366004611759565b611027565b6040516101919493929190611c8f565b6103e16112a5565b6001600160a01b038116600081815260056020526040808220805460ff19169055517f4e45d5f81f991f0158c54bc2297a90790cd4a036412383fca25ba9173b2329d79190a250565b6104326112a5565b60078190556040518181527fa878fba5d2f2ccd7554a96f6529ad249bee68ff819650f47c9d48804a36f67b9906020015b60405180910390a150565b6104766112a5565b6008805460ff19168215159081179091556040519081527fe526d3f215842cd09ceeb01bda6efe27bf854f461ccf349f6d17a32814851d4890602001610463565b60006104c16116e6565b60008381526004602090815260408083205460039092529091205460ff909116925080156105fd576000848152600360205260409020610502600183611cda565b8154811061051257610512611cf3565b60009182526020918290206040805160a08101825260059093029091018054835260018101546001600160a01b031693830193909352600283015490820152600382015460ff161515606082015260048201805491929160808401919061057890611d09565b80601f01602080910402602001604051908101604052809291908181526020018280546105a490611d09565b80156105f15780601f106105c6576101008083540402835291602001916105f1565b820191906000526020600020905b8154815290600101906020018083116105d457829003601f168201915b50505050508152505091505b9193909250565b61060c6112ff565b60085460ff1661065c5760405162461bcd60e51b815260206004820152601660248201527515985b1a59185d1a5bdb881a5cc8191a5cd8589b195960521b60448201526064015b60405180910390fd5b3360009081526005602052604090205460ff168061068457506000546001600160a01b031633145b6106cb5760405162461bcd60e51b81526020600482015260186024820152772737ba1030baba3437b934bd32b2103b30b634b230ba37b960411b6044820152606401610653565b815183511480156106dd575080518351145b6107215760405162461bcd60e51b8152602060048201526015602482015274082e4e4c2f240d8cadccee8d040dad2e6dac2e8c6d605b1b6044820152606401610653565b60005b83518110156107955761078384828151811061074257610742611cf3565b602002602001015184838151811061075c5761075c611cf3565b602002602001015184848151811061077657610776611cf3565b6020026020010151611358565b8061078d81611d43565b915050610724565b5061079f60018055565b505050565b6107ac6112a5565b6107b66000611696565b565b600360205281600052604060002081815481106107d457600080fd5b6000918252602090912060059091020180546001820154600283015460038401546004850180549497506001600160a01b039093169550909360ff9091169290919061081f90611d09565b80601f016020809104026020016040519081016040528092919081815260200182805461084b90611d09565b80156108985780601f1061086d57610100808354040283529160200191610898565b820191906000526020600020905b81548152906001019060200180831161087b57829003601f168201915b5050505050905085565b6108aa6112a5565b6001600160a01b038116600081815260056020526040808220805460ff19166001179055517f7e7b46f96b81fdc950459cd1b69e84ba6672783d48c4626c47822c844eae56959190a250565b6108fe6116e6565b6000828152600360205260409020546109515760405162461bcd60e51b81526020600482015260156024820152744e6f2076616c69646174696f6e20686973746f727960581b6044820152606401610653565b6000828152600360205260409020805461096d90600190611cda565b8154811061097d5761097d611cf3565b60009182526020918290206040805160a08101825260059093029091018054835260018101546001600160a01b031693830193909352600283015490820152600382015460ff16151560608201526004820180549192916080840191906109e390611d09565b80601f0160208091040260200160405190810160405280929190818152602001828054610a0f90611d09565b8015610a5c5780601f10610a3157610100808354040283529160200191610a5c565b820191906000526020600020905b815481529060010190602001808311610a3f57829003601f168201915b5050505050815250509050919050565b606060036000838152602001908152602001600020805480602002602001604051908101604052809291908181526020016000905b82821015610b9f5760008481526020908190206040805160a081018252600586029092018054835260018101546001600160a01b031693830193909352600283015490820152600382015460ff1615156060820152600482018054919291608084019190610b0e90611d09565b80601f0160208091040260200160405190810160405280929190818152602001828054610b3a90611d09565b8015610b875780601f10610b5c57610100808354040283529160200191610b87565b820191906000526020600020905b815481529060010190602001808311610b6a57829003601f168201915b50505050508152505081526020019060010190610aa1565b505050509050919050565b610bb26112ff565b60085460ff16610bfd5760405162461bcd60e51b815260206004820152601660248201527515985b1a59185d1a5bdb881a5cc8191a5cd8589b195960521b6044820152606401610653565b3360009081526005602052604090205460ff1680610c2557506000546001600160a01b031633145b610c6c5760405162461bcd60e51b81526020600482015260186024820152772737ba1030baba3437b934bd32b2103b30b634b230ba37b960411b6044820152606401610653565b6002546040516331a9108f60e11b8152600481018590526000916001600160a01b031690636352211e90602401602060405180830381865afa158015610cb6573d6000803e3d6000fd5b505050506040513d601f19601f82011682018060405250810190610cda9190611d6c565b6001600160a01b031603610d285760405162461bcd60e51b8152602060048201526015602482015274151a58dad95d08191bd95cc81b9bdd08195e1a5cdd605a1b6044820152606401610653565b600254604051633ee1bcfd60e11b8152600481018590526000916001600160a01b031690637dc379fa90602401600060405180830381865afa158015610d72573d6000803e3d6000fd5b505050506040513d6000823e601f3d908101601f19168201604052610d9a9190810190611dd9565b6002548151604051630368c42760e51b81529293506000926001600160a01b0390921691636d1884e091610dd49160040190815260200190565b600060405180830381865afa158015610df1573d6000803e3d6000fd5b505050506040513d6000823e601f3d908101601f19168201604052610e199190810190611eed565b90506007548160600151610e2d9190612016565b421115610e7c5760405162461bcd60e51b815260206004820152601d60248201527f56616c69646174696f6e2077696e646f772068617320657870697265640000006044820152606401610653565b6040805160a08101825286815233602080830191825242838501908152881515606085019081526080850189815260008c81526003808652978120805460018082018355918352959091208751600590960201948555945194840180546001600160a01b0319166001600160a01b03909616959095179094559051600283015551938101805460ff19169415159490941790935551909182916004820190610f249082612077565b5050506000868152600460209081526040808320805460ff1916600117905533835260069091528120805491610f5983611d43565b9190505550336001600160a01b0316867f680916da3b1f71a4749d112832ac228d974e788c1b7f811ef7c86be7b485f5588787604051610f9a929190612137565b60405180910390a350505061079f60018055565b610fb66112a5565b6001600160a01b03811661101b5760405162461bcd60e51b815260206004820152602660248201527f4f776e61626c653a206e6577206f776e657220697320746865207a65726f206160448201526564647265737360d01b6064820152608401610653565b61102481611696565b50565b60025460405163fb3ae56f60e01b815260048101839052600091829182916060916001600160a01b039091169063fb3ae56f90602401602060405180830381865afa15801561107a573d6000803e3d6000fd5b505050506040513d601f19601f8201168201806040525081019061109e9190612152565b60008681526004602052604090205490945060ff16925083156111cc57600254604051633ee1bcfd60e11b8152600481018790526000916001600160a01b031690637dc379fa90602401600060405180830381865afa158015611105573d6000803e3d6000fd5b505050506040513d6000823e601f3d908101601f1916820160405261112d9190810190611dd9565b6002548151604051630368c42760e51b81529293506000926001600160a01b0390921691636d1884e0916111679160040190815260200190565b600060405180830381865afa158015611184573d6000803e3d6000fd5b505050506040513d6000823e601f3d908101601f191682016040526111ac9190810190611eed565b905060075481606001516111c09190612016565b421115935050506111d1565b600091505b83611201575060408051808201909152600e81526d151a58dad95d081a5b9d985b1a5960921b602082015261129e565b81611240575060408051808201909152601981527f56616c69646174696f6e2077696e646f77206578706972656400000000000000602082015261129e565b826112735750604080518082019091526011815270139bdd081d985b1a59185d1959081e595d607a1b602082015261129e565b5060408051808201909152601281527115985b1a5908185b99081d995c9a599a595960721b60208201525b9193509193565b6000546001600160a01b031633146107b65760405162461bcd60e51b815260206004820181905260248201527f4f776e61626c653a2063616c6c6572206973206e6f7420746865206f776e65726044820152606401610653565b6002600154036113515760405162461bcd60e51b815260206004820152601f60248201527f5265656e7472616e637947756172643a207265656e7472616e742063616c6c006044820152606401610653565b6002600155565b6002546040516331a9108f60e11b8152600481018590526000916001600160a01b031690636352211e90602401602060405180830381865afa1580156113a2573d6000803e3d6000fd5b505050506040513d601f19601f820116820180604052508101906113c69190611d6c565b6001600160a01b0316036114145760405162461bcd60e51b8152602060048201526015602482015274151a58dad95d08191bd95cc81b9bdd08195e1a5cdd605a1b6044820152606401610653565b600254604051633ee1bcfd60e11b8152600481018590526000916001600160a01b031690637dc379fa90602401600060405180830381865afa15801561145e573d6000803e3d6000fd5b505050506040513d6000823e601f3d908101601f191682016040526114869190810190611dd9565b6002548151604051630368c42760e51b81529293506000926001600160a01b0390921691636d1884e0916114c09160040190815260200190565b600060405180830381865afa1580156114dd573d6000803e3d6000fd5b505050506040513d6000823e601f3d908101601f191682016040526115059190810190611eed565b905060075481606001516115199190612016565b4211156115685760405162461bcd60e51b815260206004820152601d60248201527f56616c69646174696f6e2077696e646f772068617320657870697265640000006044820152606401610653565b6040805160a08101825286815233602080830191825242838501908152881515606085019081526080850189815260008c81526003808652978120805460018082018355918352959091208751600590960201948555945194840180546001600160a01b0319166001600160a01b03909616959095179094559051600283015551938101805460ff191694151594909417909355519091829160048201906116109082612077565b5050506000868152600460209081526040808320805460ff191660011790553383526006909152812080549161164583611d43565b9190505550336001600160a01b0316867f680916da3b1f71a4749d112832ac228d974e788c1b7f811ef7c86be7b485f5588787604051611686929190612137565b60405180910390a3505050505050565b600080546001600160a01b038381166001600160a01b0319831681178455604051919092169283917f8be0079c531659141344cd1fd0a4f28419497f9722a3daafe3b4186f6b6457e09190a35050565b6040518060a001604052806000815260200160006001600160a01b0316815260200160008152602001600015158152602001606081525090565b6001600160a01b038116811461102457600080fd5b60006020828403121561174757600080fd5b813561175281611720565b9392505050565b60006020828403121561176b57600080fd5b5035919050565b801515811461102457600080fd5b60006020828403121561179257600080fd5b813561175281611772565b60005b838110156117b85781810151838201526020016117a0565b50506000910152565b600081518084526117d981602086016020860161179d565b601f01601f19169290920160200192915050565b8051825260018060a01b036020820151166020830152604081015160408301526060810151151560608301526000608082015160a0608085015261183460a08501826117c1565b949350505050565b831515815260606020820152600061185760608301856117ed565b9050826040830152949350505050565b634e487b7160e01b600052604160045260246000fd5b60405160c0810167ffffffffffffffff811182821017156118a0576118a0611867565b60405290565b604051610140810167ffffffffffffffff811182821017156118a0576118a0611867565b604051601f8201601f1916810167ffffffffffffffff811182821017156118f3576118f3611867565b604052919050565b600067ffffffffffffffff82111561191557611915611867565b5060051b60200190565b600082601f83011261193057600080fd5b81356020611945611940836118fb565b6118ca565b82815260059290921b8401810191818101908684111561196457600080fd5b8286015b8481101561198857803561197b81611772565b8352918301918301611968565b509695505050505050565b600067ffffffffffffffff8211156119ad576119ad611867565b50601f01601f191660200190565b600082601f8301126119cc57600080fd5b81356119da61194082611993565b8181528460208386010111156119ef57600080fd5b816020850160208301376000918101602001919091529392505050565b600082601f830112611a1d57600080fd5b81356020611a2d611940836118fb565b82815260059290921b84018101918181019086841115611a4c57600080fd5b8286015b8481101561198857803567ffffffffffffffff811115611a705760008081fd5b611a7e8986838b01016119bb565b845250918301918301611a50565b600080600060608486031215611aa157600080fd5b833567ffffffffffffffff80821115611ab957600080fd5b818601915086601f830112611acd57600080fd5b81356020611add611940836118fb565b82815260059290921b8401810191818101908a841115611afc57600080fd5b948201945b83861015611b1a57853582529482019490820190611b01565b97505087013592505080821115611b3057600080fd5b611b3c8783880161191f565b93506040860135915080821115611b5257600080fd5b50611b5f86828701611a0c565b9150509250925092565b60008060408385031215611b7c57600080fd5b50508035926020909101359150565b85815260018060a01b0385166020820152836040820152821515606082015260a060808201526000611bc060a08301846117c1565b979650505050505050565b60208152600061175260208301846117ed565b6000602080830181845280855180835260408601915060408160051b870101925083870160005b82811015611c3357603f19888603018452611c218583516117ed565b94509285019290850190600101611c05565b5092979650505050505050565b600080600060608486031215611c5557600080fd5b833592506020840135611c6781611772565b9150604084013567ffffffffffffffff811115611c8357600080fd5b611b5f868287016119bb565b841515815283151560208201528215156040820152608060608201526000611cba60808301846117c1565b9695505050505050565b634e487b7160e01b600052601160045260246000fd5b81810381811115611ced57611ced611cc4565b92915050565b634e487b7160e01b600052603260045260246000fd5b600181811c90821680611d1d57607f821691505b602082108103611d3d57634e487b7160e01b600052602260045260246000fd5b50919050565b600060018201611d5557611d55611cc4565b5060010190565b8051611d6781611720565b919050565b600060208284031215611d7e57600080fd5b815161175281611720565b600082601f830112611d9a57600080fd5b8151611da861194082611993565b818152846020838601011115611dbd57600080fd5b61183482602083016020870161179d565b8051611d6781611772565b60006020808385031215611dec57600080fd5b825167ffffffffffffffff80821115611e0457600080fd5b9084019060c08287031215611e1857600080fd5b611e2061187d565b8251815283830151848201526040830151604082015260608301516060820152608083015182811115611e5257600080fd5b8301601f81018813611e6357600080fd5b8051611e71611940826118fb565b81815260059190911b8201860190868101908a831115611e9057600080fd5b8784015b83811015611ec857805187811115611eac5760008081fd5b611eba8d8b83890101611d89565b845250918801918801611e94565b50608085015250611ede91505060a08401611dce565b60a08201529695505050505050565b600060208284031215611eff57600080fd5b815167ffffffffffffffff80821115611f1757600080fd5b908301906101408286031215611f2c57600080fd5b611f346118a6565b82518152602083015182811115611f4a57600080fd5b611f5687828601611d89565b602083015250604083015182811115611f6e57600080fd5b611f7a87828601611d89565b60408301525060608301516060820152608083015182811115611f9c57600080fd5b611fa887828601611d89565b608083015250611fba60a08401611d5c565b60a082015260c083015160c082015260e083015160e0820152610100611fe1818501611dce565b908201526101208381015183811115611ff957600080fd5b61200588828701611d89565b918301919091525095945050505050565b80820180821115611ced57611ced611cc4565b601f82111561079f57600081815260208120601f850160051c810160208610156120505750805b601f850160051c820191505b8181101561206f5782815560010161205c565b505050505050565b815167ffffffffffffffff81111561209157612091611867565b6120a58161209f8454611d09565b84612029565b602080601f8311600181146120da57600084156120c25750858301515b600019600386901b1c1916600185901b17855561206f565b600085815260208120601f198616915b82811015612109578886015182559484019460019091019084016120ea565b50858210156121275787850151600019600388901b60f8161c191681555b5050505050600190811b01905550565b821515815260406020820152600061183460408301846117c1565b60006020828403121561216457600080fd5b81516117528161177256fea2646970667358221220ebd5757489d716d6a74e9f1ef22ec3615a52b274c80ac87fee5b3baad26c5a4b64736f6c63430008130033",
  "linkReferences": {},
  "deployedLinkReferences": {}
}