{
  "_format": "hh-sol-artifact-1",
  "contractName": "TicketNFT",
  "sourceName": "contracts/TicketNFT.sol",
  "abi": [
    {
      "inputs": [],
      "stateMutability": "nonpayable",
      "type": "constructor"
    },
    {
      "anonymous": false,
      "inputs": [
        {
          "indexed": true,
          "internalType": "address",
          "name": "owner",
          "type": "address"
        },
        {
          "indexed": true,
          "internalType": "address",
          "name": "approved",
          "type": "address"
        },
        {
          "indexed": true,
          "internalType": "uint256",
          "name": "tokenId",
          "type": "uint256"
        }
      ],
      "name": "Approval",
      "type": "event"
    },
    {
      "anonymous": false,
      "inputs": [
        {
          "indexed": true,
          "internalType": "address",
          "name": "owner",
          "type": "address"
        },
        {
          "indexed": true,
          "internalType": "address",
          "name": "operator",
          "type": "address"
        },
        {
          "indexed": false,
          "internalType": "bool",
          "name": "approved",
          "type": "bool"
        }
      ],
      "name": "ApprovalForAll",
      "type": "event"
    },
    {
      "anonymous": false,
      "inputs": [
        {
          "indexed": false,
          "internalType": "uint256",
          "name": "_fromTokenId",
          "type": "uint256"
        },
        {
          "indexed": false,
          "internalType": "uint256",
          "name": "_toTokenId",
          "type": "uint256"
        }
      ],
      "name": "BatchMetadataUpdate",
      "type": "event"
    },
    {
      "anonymous": false,
      "inputs": [
        {
          "indexed": true,
          "internalType": "uint256",
          "name": "eventId",
          "type": "uint256"
        },
        {
          "indexed": false,
          "internalType": "string",
          "name": "name",
          "type": "string"
        },
        {
          "indexed": true,
          "internalType": "address",
          "name": "organizer",
          "type": "address"
        }
      ],
      "name": "EventCreated",
      "type": "event"
    },
    {
      "anonymous": false,
      "inputs": [
        {
          "indexed": false,
          "internalType": "uint256",
          "name": "_tokenId",
          "type": "uint256"
        }
      ],
      "name": "MetadataUpdate",
      "type": "event"
    },
    {
      "anonymous": false,
      "inputs": [
        {
          "indexed": true,
          "internalType": "address",
          "name": "previousOwner",
          "type": "address"
        },
        {
          "indexed": true,
          "internalType": "address",
          "name": "newOwner",
          "type": "address"
        }
      ],
      "name": "OwnershipTransferred",
      "type": "event"
    },
    {
      "anonymous": false,
      "inputs": [
        {
          "indexed": true,
          "internalType": "uint256",
          "name": "tokenId",
          "type": "uint256"
        },
        {
          "indexed": true,
          "internalType": "uint256",
          "name": "eventId",
          "type": "uint256"
        },
        {
          "indexed": true,
          "internalType": "address",
          "name": "owner",
          "type": "address"
        }
      ],
      "name": "TicketMinted",
      "type": "event"
    },
    {
      "anonymous": false,
      "inputs": [
        {
          "indexed": true,
          "internalType": "uint256",
          "name": "tokenId",
          "type": "uint256"
        },
        {
          "indexed": true,
          "internalType": "uint256",
          "name": "eventId",
          "type": "uint256"
        }
      ],
      "name": "TicketUsed",
      "type": "event"
    },
    {
      "anonymous": false,
      "inputs": [
        {
          "indexed": true,
          "internalType": "address",
          "name": "from",
          "type": "address"
        },
        {
          "indexed": true,
          "internalType": "address",
          "name": "to",
          "type": "address"
        },
        {
          "indexed": true,
          "internalType": "uint256",
          "name": "tokenId",
          "type": "uint256"
        }
      ],
      "name": "Transfer",
      "type": "event"
    },
    {
      "anonymous": false,
      "inputs": [
        {
          "indexed": true,
          "internalType": "address",
          "name": "validator",
          "type": "address"
        }
      ],
      "name": "ValidatorAuthorized",
      "type": "event"
    },
    {
      "anonymous": false,
      "inputs": [
        {
          "indexed": true,
          "internalType": "address",
          "name": "validator",
          "type": "address"
        }
      ],
      "name": "ValidatorRevoked",
      "type": "event"
    },
    {
      "inputs": [],
      "name": "CNBV_COMPLIANT",
      "outputs": [
        {
          "internalType": "bool",
          "name": "",
          "type": "bool"
        }
      ],
      "stateMutability": "view",
      "type": "function"
    },
    {
      "inputs": [],
      "name": "MAX_BATCH_SIZE",
      "outputs": [
        {
          "internalType": "uint256",
          "name": "",
          "type": "uint256"
        }
      ],
      "stateMutability": "view",
      "type": "function"
    },
    {
      "inputs": [],
      "name": "MAX_MARKETPLACE_FEE",
      "outputs": [
        {
          "internalType": "uint256",
          "name": "",
          "type": "uint256"
        }
      ],
      "stateMutability": "view",
      "type": "function"
    },
    {
      "inputs": [],
      "name": "MAX_ROYALTY_FEE",
      "outputs": [
        {
          "internalType": "uint256",
          "name": "",
          "type": "uint256"
        }
      ],
      "stateMutability": "view",
      "type": "function"
    },
    {
      "inputs": [],
      "name": "ROYALTY_FEE",
      "outputs": [
        {
          "internalType": "uint96",
          "name": "",
          "type": "uint96"
        }
      ],
      "stateMutability": "view",
      "type": "function"
    },
    {
      "inputs": [
        {
          "internalType": "address",
          "name": "to",
          "type": "address"
        },
        {
          "internalType": "uint256",
          "name": "tokenId",
          "type": "uint256"
        }
      ],
      "name": "approve",
      "outputs": [],
      "stateMutability": "nonpayable",
      "type": "function"
    },
    {
      "inputs": [
        {
          "internalType": "address",
          "name": "_validator",
          "type": "address"
        }
      ],
      "name": "authorizeValidator",
      "outputs": [],
      "stateMutability": "nonpayable",
      "type": "function"
    },
    {
      "inputs": [
        {
          "internalType": "address",
          "name": "",
          "type": "address"
        }
      ],
      "name": "authorizedValidators",
      "outputs": [
        {
          "internalType": "bool",
          "name": "",
          "type": "bool"
        }
      ],
      "stateMutability": "view",
      "type": "function"
    },
    {
      "inputs": [
        {
          "internalType": "address",
          "name": "owner",
          "type": "address"
        }
      ],
      "name": "balanceOf",
      "outputs": [
        {
          "internalType": "uint256",
          "name": "",
          "type": "uint256"
        }
      ],
      "stateMutability": "view",
      "type": "function"
    },
    {
      "inputs": [
        {
          "internalType": "address[]",
          "name": "_to",
          "type": "address[]"
        },
        {
          "internalType": "uint256",
          "name": "_eventId",
          "type": "uint256"
        },
        {
          "internalType": "uint256[]",
          "name": "_ticketTypes",
          "type": "uint256[]"
        },
        {
          "internalType": "uint256[]",
          "name": "_prices",
          "type": "uint256[]"
        },
        {
          "internalType": "string[][]",
          "name": "_benefits",
          "type": "string[][]"
        },
        {
          "internalType": "string[]",
          "name": "_tokenURIs",
          "type": "string[]"
        }
      ],
      "name": "batchMintTickets",
      "outputs": [
        {
          "internalType": "uint256[]",
          "name": "",
          "type": "uint256[]"
        }
      ],
      "stateMutability": "payable",
      "type": "function"
    },
    {
      "inputs": [
        {
          "internalType": "uint256",
          "name": "tokenId",
          "type": "uint256"
        }
      ],
      "name": "burn",
      "outputs": [],
      "stateMutability": "nonpayable",
      "type": "function"
    },
    {
      "inputs": [
        {
          "internalType": "string",
          "name": "_name",
          "type": "string"
        },
        {
          "internalType": "string",
          "name": "_description",
          "type": "string"
        },
        {
          "internalType": "uint256",
          "name": "_eventDate",
          "type": "uint256"
        },
        {
          "internalType": "string",
          "name": "_location",
          "type": "string"
        },
        {
          "internalType": "uint256",
          "name": "_totalTickets",
          "type": "uint256"
        },
        {
          "internalType": "string",
          "name": "_metadataURI",
          "type": "string"
        }
      ],
      "name": "createEvent",
      "outputs": [
        {
          "internalType": "uint256",
          "name": "",
          "type": "uint256"
        }
      ],
      "stateMutability": "nonpayable",
      "type": "function"
    },
    {
      "inputs": [],
      "name": "eventCounter",
      "outputs": [
        {
          "internalType": "uint256",
          "name": "",
          "type": "uint256"
        }
      ],
      "stateMutability": "view",
      "type": "function"
    },
    {
      "inputs": [
        {
          "internalType": "uint256",
          "name": "",
          "type": "uint256"
        }
      ],
      "name": "events",
      "outputs": [
        {
          "internalType": "uint256",
          "name": "eventId",
          "type": "uint256"
        },
        {
          "internalType": "string",
          "name": "name",
          "type": "string"
        },
        {
          "internalType": "string",
          "name": "description",
          "type": "string"
        },
        {
          "internalType": "uint256",
          "name": "eventDate",
          "type": "uint256"
        },
        {
          "internalType": "string",
          "name": "location",
          "type": "string"
        },
        {
          "internalType": "address",
          "name": "organizer",
          "type": "address"
        },
        {
          "internalType": "uint256",
          "name": "totalTickets",
          "type": "uint256"
        },
        {
          "internalType": "uint256",
          "name": "soldTickets",
          "type": "uint256"
        },
        {
          "internalType": "bool",
          "name": "isActive",
          "type": "bool"
        },
        {
          "internalType": "string",
          "name": "metadataURI",
          "type": "string"
        }
      ],
      "stateMutability": "view",
      "type": "function"
    },
    {
      "inputs": [
        {
          "internalType": "uint256",
          "name": "tokenId",
          "type": "uint256"
        }
      ],
      "name": "getApproved",
      "outputs": [
        {
          "internalType": "address",
          "name": "",
          "type": "address"
        }
      ],
      "stateMutability": "view",
      "type": "function"
    },
    {
      "inputs": [
        {
          "internalType": "uint256",
          "name": "_eventId",
          "type": "uint256"
        }
      ],
      "name": "getEvent",
      "outputs": [
        {
          "components": [
            {
              "internalType": "uint256",
              "name": "eventId",
              "type": "uint256"
            },
            {
              "internalType": "string",
              "name": "name",
              "type": "string"
            },
            {
              "internalType": "string",
              "name": "description",
              "type": "string"
            },
            {
              "internalType": "uint256",
              "name": "eventDate",
              "type": "uint256"
            },
            {
              "internalType": "string",
              "name": "location",
              "type": "string"
            },
            {
              "internalType": "address",
              "name": "organizer",
              "type": "address"
            },
            {
              "internalType": "uint256",
              "name": "totalTickets",
              "type": "uint256"
            },
            {
              "internalType": "uint256",
              "name": "soldTickets",
              "type": "uint256"
            },
            {
              "internalType": "bool",
              "name": "isActive",
              "type": "bool"
            },
            {
              "internalType": "string",
              "name": "metadataURI",
              "type": "string"
            }
          ],
          "internalType": "struct TicketNFT.EventInfo",
          "name": "",
          "type": "tuple"
        }
      ],
      "stateMutability": "view",
      "type": "function"
    },
    {
      "inputs": [],
      "name": "getFeeStructure",
      "outputs": [
        {
          "internalType": "uint256",
          "name": "marketplaceFee",
          "type": "uint256"
        },
        {
          "internalType": "uint256",
          "name": "maxRoyalty",
          "type": "uint256"
        },
        {
          "internalType": "uint256",
          "name": "maxBatchSize",
          "type": "uint256"
        },
        {
          "internalType": "string",
          "name": "feeDisclosure",
          "type": "string"
        }
      ],
      "stateMutability": "pure",
      "type": "function"
    },
    {
      "inputs": [
        {
          "internalType": "uint256",
          "name": "_tokenId",
          "type": "uint256"
        }
      ],
      "name": "getTicket",
      "outputs": [
        {
          "components": [
            {
              "internalType": "uint256",
              "name": "eventId",
              "type": "uint256"
            },
            {
              "internalType": "uint256",
              "name": "ticketType",
              "type": "uint256"
            },
            {
              "internalType": "uint256",
              "name": "price",
              "type": "uint256"
            },
            {
              "internalType": "uint256",
              "name": "purchaseDate",
              "type": "uint256"
            },
            {
              "internalType": "string[]",
              "name": "benefits",
              "type": "string[]"
            },
            {
              "internalType": "bool",
              "name": "isTransferable",
              "type": "bool"
            }
          ],
          "internalType": "struct TicketNFT.TicketInfo",
          "name": "",
          "type": "tuple"
        }
      ],
      "stateMutability": "view",
      "type": "function"
    },
    {
      "inputs": [
        {
          "internalType": "address",
          "name": "owner",
          "type": "address"
        },
        {
          "internalType": "address",
          "name": "operator",
          "type": "address"
        }
      ],
      "name": "isApprovedForAll",
      "outputs": [
        {
          "internalType": "bool",
          "name": "",
          "type": "bool"
        }
      ],
      "stateMutability": "view",
      "type": "function"
    },
    {
      "inputs": [
        {
          "internalType": "uint256",
          "name": "_tokenId",
          "type": "uint256"
        }
      ],
      "name": "isTicketValid",
      "outputs": [
        {
          "internalType": "bool",
          "name": "",
          "type": "bool"
        }
      ],
      "stateMutability": "view",
      "type": "function"
    },
    {
      "inputs": [
        {
          "internalType": "address",
          "name": "_to",
          "type": "address"
        },
        {
          "internalType": "uint256",
          "name": "_eventId",
          "type": "uint256"
        },
        {
          "internalType": "uint256",
          "name": "_ticketType",
          "type": "uint256"
        },
        {
          "internalType": "uint256",
          "name": "_price",
          "type": "uint256"
        },
        {
          "internalType": "string[]",
          "name": "_benefits",
          "type": "string[]"
        },
        {
          "internalType": "string",
          "name": "_tokenURI",
          "type": "string"
        }
      ],
      "name": "mintTicket",
      "outputs": [
        {
          "internalType": "uint256",
          "name": "",
          "type": "uint256"
        }
      ],
      "stateMutability": "payable",
      "type": "function"
    },
    {
      "inputs": [],
      "name": "name",
      "outputs": [
        {
          "internalType": "string",
          "name": "",
          "type": "string"
        }
      ],
      "stateMutability": "view",
      "type": "function"
    },
    {
      "inputs": [],
      "name": "owner",
      "outputs": [
        {
          "internalType": "address",
          "name": "",
          "type": "address"
        }
      ],
      "stateMutability": "view",
      "type": "function"
    },
    {
      "inputs": [
        {
          "internalType": "uint256",
          "name": "tokenId",
          "type": "uint256"
        }
      ],
      "name": "ownerOf",
      "outputs": [
        {
          "internalType": "address",
          "name": "",
          "type": "address"
        }
      ],
      "stateMutability": "view",
      "type": "function"
    },
    {
      "inputs": [],
      "name": "renounceOwnership",
      "outputs": [],
      "stateMutability": "nonpayable",
      "type": "function"
    },
    {
      "inputs": [
        {
          "internalType": "address",
          "name": "_validator",
          "type": "address"
        }
      ],
      "name": "revokeValidator",
      "outputs": [],
      "stateMutability": "nonpayable",
      "type": "function"
    },
    {
      "inputs": [
        {
          "internalType": "uint256",
          "name": "_tokenId",
          "type": "uint256"
        },
        {
          "internalType": "uint256",
          "name": "_salePrice",
          "type": "uint256"
        }
      ],
      "name": "royaltyInfo",
      "outputs": [
        {
          "internalType": "address",
          "name": "",
          "type": "address"
        },
        {
          "internalType": "uint256",
          "name": "",
          "type": "uint256"
        }
      ],
      "stateMutability": "view",
      "type": "function"
    },
    {
      "inputs": [
        {
          "internalType": "address",
          "name": "from",
          "type": "address"
        },
        {
          "internalType": "address",
          "name": "to",
          "type": "address"
        },
        {
          "internalType": "uint256",
          "name": "tokenId",
          "type": "uint256"
        }
      ],
      "name": "safeTransferFrom",
      "outputs": [],
      "stateMutability": "nonpayable",
      "type": "function"
    },
    {
      "inputs": [
        {
          "internalType": "address",
          "name": "from",
          "type": "address"
        },
        {
          "internalType": "address",
          "name": "to",
          "type": "address"
        },
        {
          "internalType": "uint256",
          "name": "tokenId",
          "type": "uint256"
        },
        {
          "internalType": "bytes",
          "name": "data",
          "type": "bytes"
        }
      ],
      "name": "safeTransferFrom",
      "outputs": [],
      "stateMutability": "nonpayable",
      "type": "function"
    },
    {
      "inputs": [
        {
          "internalType": "address",
          "name": "operator",
          "type": "address"
        },
        {
          "internalType": "bool",
          "name": "approved",
          "type": "bool"
        }
      ],
      "name": "setApprovalForAll",
      "outputs": [],
      "stateMutability": "nonpayable",
      "type": "function"
    },
    {
      "inputs": [
        {
          "internalType": "bytes4",
          "name": "interfaceId",
          "type": "bytes4"
        }
      ],
      "name": "supportsInterface",
      "outputs": [
        {
          "internalType": "bool",
          "name": "",
          "type": "bool"
        }
      ],
      "stateMutability": "view",
      "type": "function"
    },
    {
      "inputs": [],
      "name": "symbol",
      "outputs": [
        {
          "internalType": "string",
          "name": "",
          "type": "string"
        }
      ],
      "stateMutability": "view",
      "type": "function"
    },
    {
      "inputs": [
        {
          "internalType": "uint256",
          "name": "",
          "type": "uint256"
        }
      ],
      "name": "tickets",
      "outputs": [
        {
          "internalType": "uint256",
          "name": "eventId",
          "type": "uint256"
        },
        {
          "internalType": "uint256",
          "name": "ticketType",
          "type": "uint256"
        },
        {
          "internalType": "uint256",
          "name": "price",
          "type": "uint256"
        },
        {
          "internalType": "uint256",
          "name": "purchaseDate",
          "type": "uint256"
        },
        {
          "internalType": "bool",
          "name": "isTransferable",
          "type": "bool"
        }
      ],
      "stateMutability": "view",
      "type": "function"
    },
    {
      "inputs": [
        {
          "internalType": "uint256",
          "name": "tokenId",
          "type": "uint256"
        }
      ],
      "name": "tokenURI",
      "outputs": [
        {
          "internalType": "string",
          "name": "",
          "type": "string"
        }
      ],
      "stateMutability": "view",
      "type": "function"
    },
    {
      "inputs": [
        {
          "internalType": "address",
          "name": "from",
          "type": "address"
        },
        {
          "internalType": "address",
          "name": "to",
          "type": "address"
        },
        {
          "internalType": "uint256",
          "name": "tokenId",
          "type": "uint256"
        }
      ],
      "name": "transferFrom",
      "outputs": [],
      "stateMutability": "nonpayable",
      "type": "function"
    },
    {
      "inputs": [
        {
          "internalType": "address",
          "name": "newOwner",
          "type": "address"
        }
      ],
      "name": "transferOwnership",
      "outputs": [],
      "stateMutability": "nonpayable",
      "type": "function"
    },
    {
      "inputs": [
        {
          "internalType": "uint256",
          "name": "_tokenId",
          "type": "uint256"
        }
      ],
      "name": "useTicket",
      "outputs": [],
      "stateMutability": "nonpayable",
      "type": "function"
    },
    {
      "inputs": [
        {
          "internalType": "uint256",
          "name": "",
          "type": "uint256"
        }
      ],
      "name": "usedTickets",
      "outputs": [
        {
          "internalType": "bool",
          "name": "",
          "type": "bool"
        }
      ],
      "stateMutability": "view",
      "type": "function"
    },
    {
      "inputs": [],
      "name": "verifyCNBVCompliance",
      "outputs": [
        {
          "internalType": "bool",
          "name": "compliant",
          "type": "bool"
        },
        {
          "internalType": "string",
          "name": "jurisdiction",
          "type": "string"
        },
        {
          "internalType": "string",
          "name": "regulatoryFramework",
          "type": "string"
        }
      ],
      "stateMutability": "pure",
      "type": "function"
    },
    {
      "inputs": [],
      "name": "withdraw",
      "outputs": [],
      "stateMutability": "nonpayable",
      "type": "function"
    }
  ],
  "bytecode": "0x60806040523480156200001157600080fd5b506040518060400160405280601081526020016f5469636b42617365205469636b65747360801b815250604051806040016040528060048152602001635449434b60e01b815250816000908162000069919062000196565b50600162000078828262000196565b505050620000956200008f6200009b60201b60201c565b6200009f565b62000262565b3390565b600780546001600160a01b038381166001600160a01b0319831681179093556040519116919082907f8be0079c531659141344cd1fd0a4f28419497f9722a3daafe3b4186f6b6457e090600090a35050565b634e487b7160e01b600052604160045260246000fd5b600181811c908216806200011c57607f821691505b6020821081036200013d57634e487b7160e01b600052602260045260246000fd5b50919050565b601f8211156200019157600081815260208120601f850160051c810160208610156200016c5750805b601f850160051c820191505b818110156200018d5782815560010162000178565b5050505b505050565b81516001600160401b03811115620001b257620001b2620000f1565b620001ca81620001c3845462000107565b8462000143565b602080601f831160018114620002025760008415620001e95750858301515b600019600386901b1c1916600185901b1785556200018d565b600085815260208120601f198616915b82811015620002335788860151825594840194600190910190840162000212565b5085821015620002525787850151600019600388901b60f8161c191681555b5050505050600190811b01905550565b613e0a80620002726000396000f3fe60806040526004361061023a5760003560e01c8063587141631161012e578063b88d4fde116100ab578063d9a319b01161006f578063d9a319b014610763578063e985e9c514610788578063f2fde38b146107a8578063fb3ae56f146107c8578063fc8c1b9b146107e857600080fd5b8063b88d4fde146106d8578063bd7b358c146106f8578063c87b56dd14610718578063ca28ae8414610738578063cfdbf2541461074e57600080fd5b806371efdc21116100f257806371efdc21146106285780637dc379fa146106585780638da5cb5b1461068557806395d89b41146106a3578063a22cb465146106b857600080fd5b806358714163146105765780636352211e146105a65780636d1884e0146105c657806370a08231146105f3578063715018a61461061357600080fd5b806326606448116101bc57806342966c681161018057806342966c681461048557806344be0fca146104a557806350b44712146104c957806352c55db91461054057806358298b021461055657600080fd5b806326606448146103bf5780632a55205a146103df578063335477fc1461041e5780633ccfd60b1461045057806342842e0e1461046557600080fd5b8063095ea7b311610203578063095ea7b3146103055780630b7914301461032557806311fa5bee1461035b57806317e1f82e1461038957806323b872dd1461039f57600080fd5b806210ba8b1461023f57806301ffc9a714610269578063047564b71461028957806306fdde03146102ab578063081812fc146102cd575b600080fd5b34801561024b57600080fd5b50610254600181565b60405190151581526020015b60405180910390f35b34801561027557600080fd5b5061025461028436600461308f565b6107fb565b34801561029557600080fd5b506102a96102a43660046130c8565b610826565b005b3480156102b757600080fd5b506102c0610877565b6040516102609190613133565b3480156102d957600080fd5b506102ed6102e8366004613146565b610909565b6040516001600160a01b039091168152602001610260565b34801561031157600080fd5b506102a961032036600461315f565b610930565b34801561033157600080fd5b50610345610340366004613146565b610a4a565b6040516102609a99989796959493929190613189565b34801561036757600080fd5b5061037b6103763660046132dc565b610cc9565b604051908152602001610260565b34801561039557600080fd5b5061037b6103e881565b3480156103ab57600080fd5b506102a96103ba36600461339b565b610e45565b3480156103cb57600080fd5b506102a96103da366004613146565b610e77565b3480156103eb57600080fd5b506103ff6103fa3660046133d7565b61104c565b604080516001600160a01b039093168352602083019190915201610260565b34801561042a57600080fd5b5061043360fa81565b6040516bffffffffffffffffffffffff9091168152602001610260565b34801561045c57600080fd5b506102a96110d3565b34801561047157600080fd5b506102a961048036600461339b565b61115e565b34801561049157600080fd5b506102a96104a0366004613146565b611179565b3480156104b157600080fd5b506104ba6111aa565b604051610260939291906133f9565b3480156104d557600080fd5b506105166104e4366004613146565b600a60205260009081526040902080546001820154600283015460038401546005909401549293919290919060ff1685565b6040805195865260208601949094529284019190915260608301521515608082015260a001610260565b34801561054c57600080fd5b5061037b600d5481565b610569610564366004613621565b6111f4565b60405161026091906136ee565b34801561058257600080fd5b506102546105913660046130c8565b600c6020526000908152604090205460ff1681565b3480156105b257600080fd5b506102ed6105c1366004613146565b6116af565b3480156105d257600080fd5b506105e66105e1366004613146565b61170f565b6040516102609190613732565b3480156105ff57600080fd5b5061037b61060e3660046130c8565b611a2c565b34801561061f57600080fd5b506102a9611ab2565b34801561063457600080fd5b50610254610643366004613146565b600b6020526000908152604090205460ff1681565b34801561066457600080fd5b50610678610673366004613146565b611ac6565b6040516102609190613807565b34801561069157600080fd5b506007546001600160a01b03166102ed565b3480156106af57600080fd5b506102c0611c84565b3480156106c457600080fd5b506102a96106d33660046138a9565b611c93565b3480156106e457600080fd5b506102a96106f33660046138e5565b611c9e565b34801561070457600080fd5b506102a96107133660046130c8565b611cd6565b34801561072457600080fd5b506102c0610733366004613146565b611d2a565b34801561074457600080fd5b5061037b61012c81565b34801561075a57600080fd5b5061037b606381565b34801561076f57600080fd5b50610778611d35565b6040516102609493929190613961565b34801561079457600080fd5b506102546107a3366004613986565b611d6b565b3480156107b457600080fd5b506102a96107c33660046130c8565b611d99565b3480156107d457600080fd5b506102546107e3366004613146565b611e0f565b61037b6107f63660046139b9565b612141565b60006001600160e01b0319821663152a902d60e11b14806108205750610820826123bb565b92915050565b61082e6123e0565b6001600160a01b0381166000818152600c6020526040808220805460ff19169055517f4e45d5f81f991f0158c54bc2297a90790cd4a036412383fca25ba9173b2329d79190a250565b60606000805461088690613a2f565b80601f01602080910402602001604051908101604052809291908181526020018280546108b290613a2f565b80156108ff5780601f106108d4576101008083540402835291602001916108ff565b820191906000526020600020905b8154815290600101906020018083116108e257829003601f168201915b5050505050905090565b60006109148261243a565b506000908152600460205260409020546001600160a01b031690565b600061093b826116af565b9050806001600160a01b0316836001600160a01b0316036109ad5760405162461bcd60e51b815260206004820152602160248201527f4552433732313a20617070726f76616c20746f2063757272656e74206f776e656044820152603960f91b60648201526084015b60405180910390fd5b336001600160a01b03821614806109c957506109c98133611d6b565b610a3b5760405162461bcd60e51b815260206004820152603d60248201527f4552433732313a20617070726f76652063616c6c6572206973206e6f7420746f60448201527f6b656e206f776e6572206f7220617070726f76656420666f7220616c6c00000060648201526084016109a4565b610a45838361248a565b505050565b60096020526000908152604090208054600182018054919291610a6c90613a2f565b80601f0160208091040260200160405190810160405280929190818152602001828054610a9890613a2f565b8015610ae55780601f10610aba57610100808354040283529160200191610ae5565b820191906000526020600020905b815481529060010190602001808311610ac857829003601f168201915b505050505090806002018054610afa90613a2f565b80601f0160208091040260200160405190810160405280929190818152602001828054610b2690613a2f565b8015610b735780601f10610b4857610100808354040283529160200191610b73565b820191906000526020600020905b815481529060010190602001808311610b5657829003601f168201915b505050505090806003015490806004018054610b8e90613a2f565b80601f0160208091040260200160405190810160405280929190818152602001828054610bba90613a2f565b8015610c075780601f10610bdc57610100808354040283529160200191610c07565b820191906000526020600020905b815481529060010190602001808311610bea57829003601f168201915b505050600584015460068501546007860154600887015460098801805497986001600160a01b039095169793965091945060ff169291610c4690613a2f565b80601f0160208091040260200160405190810160405280929190818152602001828054610c7290613a2f565b8015610cbf5780601f10610c9457610100808354040283529160200191610cbf565b820191906000526020600020905b815481529060010190602001808311610ca257829003601f168201915b505050505090508a565b600d805460009182610cda83613a7f565b9091555050600d54604080516101408101825282815260208082018b81528284018b9052606083018a9052608083018990523360a084015260c08301889052600060e0840181905260016101008501819052610120850189905286825260099093529390932082518155925191929190820190610d579082613ae6565b5060408201516002820190610d6c9082613ae6565b506060820151600382015560808201516004820190610d8b9082613ae6565b5060a08201516005820180546001600160a01b0319166001600160a01b0390921691909117905560c0820151600682015560e0820151600782015561010082015160088201805460ff19169115159190911790556101208201516009820190610df49082613ae6565b50905050336001600160a01b0316817f40fb05b814a900c99fa0a76d919dfdeaf3389540e4ca70f97ba40ca9a38f37978a604051610e329190613133565b60405180910390a3979650505050505050565b610e50335b826124f8565b610e6c5760405162461bcd60e51b81526004016109a490613ba6565b610a45838383612557565b336000908152600c602052604090205460ff1680610e9f57506007546001600160a01b031633145b610eeb5760405162461bcd60e51b815260206004820152601860248201527f4e6f7420617574686f72697a65642076616c696461746f72000000000000000060448201526064016109a4565b610ef4816126bb565b610f385760405162461bcd60e51b8152602060048201526015602482015274151a58dad95d08191bd95cc81b9bdd08195e1a5cdd605a1b60448201526064016109a4565b6000818152600b602052604090205460ff1615610f8d5760405162461bcd60e51b8152602060048201526013602482015272151a58dad95d08185b1c9958591e481d5cd959606a1b60448201526064016109a4565b6000818152600a602090815260408083205483526009909152902060030154610fb99062015180613bf3565b421115610ffa5760405162461bcd60e51b815260206004820152600f60248201526e115d995b9d081a185cc8195b991959608a1b60448201526064016109a4565b6000818152600b60209081526040808320805460ff19166001179055600a909152808220549051909183917fad0a02848182e7d3a9bb0ae2cc919bdef92f9da6b0a45ced3656cf5443212ede9190a350565b600080611058846126bb565b61109b5760405162461bcd60e51b8152602060048201526014602482015273151bdad95b88191bd95cc81b9bdd08195e1a5cdd60621b60448201526064016109a4565b60006127106110ab60fa86613c06565b6110b59190613c1d565b90506110c96007546001600160a01b031690565b9590945092505050565b6110db6123e0565b47806111205760405162461bcd60e51b81526020600482015260146024820152734e6f2066756e647320746f20776974686472617760601b60448201526064016109a4565b6007546040516001600160a01b039091169082156108fc029083906000818181858888f1935050505015801561115a573d6000803e3d6000fd5b5050565b610a4583838360405180602001604052806000815250611c9e565b61118233610e4a565b61119e5760405162461bcd60e51b81526004016109a490613ba6565b6111a7816126d8565b50565b60006060806001604051806040016040528060068152602001654d657869636f60d01b815250604051806060016040528060258152602001613d6c60259139925092509250909192565b606084518751148015611208575083518751145b61124c5760405162461bcd60e51b8152602060048201526015602482015274082e4e4c2f240d8cadccee8d040dad2e6dac2e8c6d605b1b60448201526064016109a4565b6063875111156112c45760405162461bcd60e51b815260206004820152603b60248201527f42617463682073697a652065786365656473206c6567616c206c696d6974202860448201527f3939206d617820666f7220434e425620636f6d706c69616e636529000000000060648201526084016109a4565b60008681526009602052604090206008015460ff1661131b5760405162461bcd60e51b81526020600482015260136024820152724576656e74206973206e6f742061637469766560681b60448201526064016109a4565b6000875167ffffffffffffffff8111156113375761133761321d565b604051908082528060200260200182016040528015611360578160200160208202803683370190505b5090506000805b86518110156113a95786818151811061138257611382613c3f565b6020026020010151826113959190613bf3565b9150806113a181613a7f565b915050611367565b50803410156113f15760405162461bcd60e51b8152602060048201526014602482015273125b9cdd59999a58da595b9d081c185e5b595b9d60621b60448201526064016109a4565b60005b895181101561163b5760008981526009602052604090206006810154600790910154106114545760405162461bcd60e51b815260206004820152600e60248201526d115d995b9d081cdbdb19081bdd5d60921b60448201526064016109a4565b6008805490600061146483613a7f565b9190505550600060085490506114938b838151811061148557611485613c3f565b6020026020010151826126e1565b6114b6818784815181106114a9576114a9613c3f565b60200260200101516126fb565b6040518060c001604052808b81526020018a84815181106114d9576114d9613c3f565b602002602001015181526020018984815181106114f8576114f8613c3f565b6020026020010151815260200142815260200188848151811061151d5761151d613c3f565b602090810291909101810151825260019181018290526000848152600a82526040908190208451815584830151938101939093558301516002830155606083015160038301556080830151805161157a9260048501920190612fb7565b5060a091909101516005909101805460ff191691151591909117905560008a81526009602052604081206007018054916115b383613a7f565b9190505550808483815181106115cb576115cb613c3f565b6020026020010181815250508a82815181106115e9576115e9613c3f565b60200260200101516001600160a01b03168a827f085ec0eff4bf526b0dd054adffcd8bd8da42126a1133ce302042973f32029fb060405160405180910390a4508061163381613a7f565b9150506113f4565b5060006103e861164d346103cf613c06565b6116579190613c1d565b60008a8152600960205260408082206005015490519293506001600160a01b03169183156108fc0291849190818181858888f193505050501580156116a0573d6000803e3d6000fd5b50919998505050505050505050565b6000818152600260205260408120546001600160a01b0316806108205760405162461bcd60e51b8152602060048201526018602482015277115490cdcc8c4e881a5b9d985b1a59081d1bdad95b88125160421b60448201526064016109a4565b611770604051806101400160405280600081526020016060815260200160608152602001600081526020016060815260200160006001600160a01b031681526020016000815260200160008152602001600015158152602001606081525090565b6009600083815260200190815260200160002060405180610140016040529081600082015481526020016001820180546117a990613a2f565b80601f01602080910402602001604051908101604052809291908181526020018280546117d590613a2f565b80156118225780601f106117f757610100808354040283529160200191611822565b820191906000526020600020905b81548152906001019060200180831161180557829003601f168201915b5050505050815260200160028201805461183b90613a2f565b80601f016020809104026020016040519081016040528092919081815260200182805461186790613a2f565b80156118b45780601f10611889576101008083540402835291602001916118b4565b820191906000526020600020905b81548152906001019060200180831161189757829003601f168201915b50505050508152602001600382015481526020016004820180546118d790613a2f565b80601f016020809104026020016040519081016040528092919081815260200182805461190390613a2f565b80156119505780601f1061192557610100808354040283529160200191611950565b820191906000526020600020905b81548152906001019060200180831161193357829003601f168201915b505050918352505060058201546001600160a01b031660208201526006820154604082015260078201546060820152600882015460ff161515608082015260098201805460a0909201916119a390613a2f565b80601f01602080910402602001604051908101604052809291908181526020018280546119cf90613a2f565b8015611a1c5780601f106119f157610100808354040283529160200191611a1c565b820191906000526020600020905b8154815290600101906020018083116119ff57829003601f168201915b5050505050815250509050919050565b60006001600160a01b038216611a965760405162461bcd60e51b815260206004820152602960248201527f4552433732313a2061646472657373207a65726f206973206e6f7420612076616044820152683634b21037bbb732b960b91b60648201526084016109a4565b506001600160a01b031660009081526003602052604090205490565b611aba6123e0565b611ac460006127b7565b565b611b016040518060c0016040528060008152602001600081526020016000815260200160008152602001606081526020016000151581525090565b611b0a826126bb565b611b4e5760405162461bcd60e51b8152602060048201526015602482015274151a58dad95d08191bd95cc81b9bdd08195e1a5cdd605a1b60448201526064016109a4565b600a60008381526020019081526020016000206040518060c00160405290816000820154815260200160018201548152602001600282015481526020016003820154815260200160048201805480602002602001604051908101604052809291908181526020016000905b82821015611c65578382906000526020600020018054611bd890613a2f565b80601f0160208091040260200160405190810160405280929190818152602001828054611c0490613a2f565b8015611c515780601f10611c2657610100808354040283529160200191611c51565b820191906000526020600020905b815481529060010190602001808311611c3457829003601f168201915b505050505081526020019060010190611bb9565b505050908252506005919091015460ff16151560209091015292915050565b60606001805461088690613a2f565b61115a338383612809565b611ca833836124f8565b611cc45760405162461bcd60e51b81526004016109a490613ba6565b611cd0848484846128d7565b50505050565b611cde6123e0565b6001600160a01b0381166000818152600c6020526040808220805460ff19166001179055517f7e7b46f96b81fdc950459cd1b69e84ba6672783d48c4626c47822c844eae56959190a250565b60606108208261290a565b6000806000606061012c6103e86063604051806080016040528060448152602001613d9160449139935093509350935090919293565b6001600160a01b03918216600090815260056020908152604080832093909416825291909152205460ff1690565b611da16123e0565b6001600160a01b038116611e065760405162461bcd60e51b815260206004820152602660248201527f4f776e61626c653a206e6577206f776e657220697320746865207a65726f206160448201526564647265737360d01b60648201526084016109a4565b6111a7816127b7565b6000611e1a826126bb565b611e2657506000919050565b6000828152600b602052604090205460ff1615611e4557506000919050565b6000828152600a602090815260408083205483526009825280832081516101408101909252805482526001810180549293919291840191611e8590613a2f565b80601f0160208091040260200160405190810160405280929190818152602001828054611eb190613a2f565b8015611efe5780601f10611ed357610100808354040283529160200191611efe565b820191906000526020600020905b815481529060010190602001808311611ee157829003601f168201915b50505050508152602001600282018054611f1790613a2f565b80601f0160208091040260200160405190810160405280929190818152602001828054611f4390613a2f565b8015611f905780601f10611f6557610100808354040283529160200191611f90565b820191906000526020600020905b815481529060010190602001808311611f7357829003601f168201915b5050505050815260200160038201548152602001600482018054611fb390613a2f565b80601f0160208091040260200160405190810160405280929190818152602001828054611fdf90613a2f565b801561202c5780601f106120015761010080835404028352916020019161202c565b820191906000526020600020905b81548152906001019060200180831161200f57829003601f168201915b505050918352505060058201546001600160a01b031660208201526006820154604082015260078201546060820152600882015460ff161515608082015260098201805460a09092019161207f90613a2f565b80601f01602080910402602001604051908101604052809291908181526020018280546120ab90613a2f565b80156120f85780601f106120cd576101008083540402835291602001916120f8565b820191906000526020600020905b8154815290600101906020018083116120db57829003601f168201915b50505050508152505090508061010001516121165750600092915050565b60608101516121289062015180613bf3565b4211156121385750600092915050565b50600192915050565b60008581526009602052604081206008015460ff166121985760405162461bcd60e51b81526020600482015260136024820152724576656e74206973206e6f742061637469766560681b60448201526064016109a4565b60008681526009602052604090206006810154600790910154106121ef5760405162461bcd60e51b815260206004820152600e60248201526d115d995b9d081cdbdb19081bdd5d60921b60448201526064016109a4565b833410156122365760405162461bcd60e51b8152602060048201526014602482015273125b9cdd59999a58da595b9d081c185e5b595b9d60621b60448201526064016109a4565b6008805490600061224683613a7f565b909155505060085461225888826126e1565b61226281846126fb565b6040805160c08101825288815260208082018981528284018981524260608501908152608085018a8152600160a087018190526000898152600a8752979097208651815593519684019690965590516002830155516003820155925180519293926122d39260048501920190612fb7565b5060a091909101516005909101805460ff1916911515919091179055600087815260096020526040812060070180549161230c83613a7f565b90915550600090506103e8612323346103cf613c06565b61232d9190613c1d565b6000898152600960205260408082206005015490519293506001600160a01b03169183156108fc0291849190818181858888f19350505050158015612376573d6000803e3d6000fd5b50886001600160a01b031688837f085ec0eff4bf526b0dd054adffcd8bd8da42126a1133ce302042973f32029fb060405160405180910390a450979650505050505050565b60006001600160e01b03198216632483248360e11b1480610820575061082082612a12565b6007546001600160a01b03163314611ac45760405162461bcd60e51b815260206004820181905260248201527f4f776e61626c653a2063616c6c6572206973206e6f7420746865206f776e657260448201526064016109a4565b612443816126bb565b6111a75760405162461bcd60e51b8152602060048201526018602482015277115490cdcc8c4e881a5b9d985b1a59081d1bdad95b88125160421b60448201526064016109a4565b600081815260046020526040902080546001600160a01b0319166001600160a01b03841690811790915581906124bf826116af565b6001600160a01b03167f8c5be1e5ebec7d5bd14f71427d1e84f3dd0314c0f7b2291e5b200ac8c7c3b92560405160405180910390a45050565b600080612504836116af565b9050806001600160a01b0316846001600160a01b0316148061252b575061252b8185611d6b565b8061254f5750836001600160a01b031661254484610909565b6001600160a01b0316145b949350505050565b826001600160a01b031661256a826116af565b6001600160a01b0316146125905760405162461bcd60e51b81526004016109a490613c55565b6001600160a01b0382166125f25760405162461bcd60e51b8152602060048201526024808201527f4552433732313a207472616e7366657220746f20746865207a65726f206164646044820152637265737360e01b60648201526084016109a4565b826001600160a01b0316612605826116af565b6001600160a01b03161461262b5760405162461bcd60e51b81526004016109a490613c55565b600081815260046020908152604080832080546001600160a01b03199081169091556001600160a01b0387811680865260038552838620805460001901905590871680865283862080546001019055868652600290945282852080549092168417909155905184937fddf252ad1be2c89b69c2b068fc378daa952ba7f163c4a11628f55a4df523b3ef91a4505050565b6000908152600260205260409020546001600160a01b0316151590565b6111a781612a62565b61115a828260405180602001604052806000815250612aa2565b612704826126bb565b6127675760405162461bcd60e51b815260206004820152602e60248201527f45524337323155524953746f726167653a2055524920736574206f66206e6f6e60448201526d32bc34b9ba32b73a103a37b5b2b760911b60648201526084016109a4565b600082815260066020526040902061277f8282613ae6565b506040518281527ff8e1a15aba9398e019f0b49df1a4fde98ee17ae345cb5f6b5e2c27f5033e8ce79060200160405180910390a15050565b600780546001600160a01b038381166001600160a01b0319831681179093556040519116919082907f8be0079c531659141344cd1fd0a4f28419497f9722a3daafe3b4186f6b6457e090600090a35050565b816001600160a01b0316836001600160a01b03160361286a5760405162461bcd60e51b815260206004820152601960248201527f4552433732313a20617070726f766520746f2063616c6c65720000000000000060448201526064016109a4565b6001600160a01b03838116600081815260056020908152604080832094871680845294825291829020805460ff191686151590811790915591519182527f17307eab39ab6107e8899845ad3d59bd9653f200f220920489ca2b5937696c31910160405180910390a3505050565b6128e2848484612557565b6128ee84848484612ad5565b611cd05760405162461bcd60e51b81526004016109a490613c9a565b60606129158261243a565b6000828152600660205260408120805461292e90613a2f565b80601f016020809104026020016040519081016040528092919081815260200182805461295a90613a2f565b80156129a75780601f1061297c576101008083540402835291602001916129a7565b820191906000526020600020905b81548152906001019060200180831161298a57829003601f168201915b5050505050905060006129c560408051602081019091526000815290565b905080516000036129d7575092915050565b815115612a095780826040516020016129f1929190613cec565b60405160208183030381529060405292505050919050565b61254f84612bd6565b60006001600160e01b031982166380ac58cd60e01b1480612a4357506001600160e01b03198216635b5e139f60e01b145b8061082057506301ffc9a760e01b6001600160e01b0319831614610820565b612a6b81612c4a565b60008181526006602052604090208054612a8490613a2f565b1590506111a75760008181526006602052604081206111a79161300d565b612aac8383612cdf565b612ab96000848484612ad5565b610a455760405162461bcd60e51b81526004016109a490613c9a565b60006001600160a01b0384163b15612bcb57604051630a85bd0160e11b81526001600160a01b0385169063150b7a0290612b19903390899088908890600401613d1b565b6020604051808303816000875af1925050508015612b54575060408051601f3d908101601f19168201909252612b5191810190613d4e565b60015b612bb1573d808015612b82576040519150601f19603f3d011682016040523d82523d6000602084013e612b87565b606091505b508051600003612ba95760405162461bcd60e51b81526004016109a490613c9a565b805181602001fd5b6001600160e01b031916630a85bd0160e11b14905061254f565b506001949350505050565b6060612be18261243a565b6000612bf860408051602081019091526000815290565b90506000815111612c185760405180602001604052806000815250612c43565b80612c2284612e4c565b604051602001612c33929190613cec565b6040516020818303038152906040525b9392505050565b6000612c55826116af565b9050612c60826116af565b600083815260046020908152604080832080546001600160a01b03199081169091556001600160a01b0385168085526003845282852080546000190190558785526002909352818420805490911690555192935084927fddf252ad1be2c89b69c2b068fc378daa952ba7f163c4a11628f55a4df523b3ef908390a45050565b6001600160a01b038216612d355760405162461bcd60e51b815260206004820181905260248201527f4552433732313a206d696e7420746f20746865207a65726f206164647265737360448201526064016109a4565b612d3e816126bb565b15612d8b5760405162461bcd60e51b815260206004820152601c60248201527f4552433732313a20746f6b656e20616c7265616479206d696e7465640000000060448201526064016109a4565b612d94816126bb565b15612de15760405162461bcd60e51b815260206004820152601c60248201527f4552433732313a20746f6b656e20616c7265616479206d696e7465640000000060448201526064016109a4565b6001600160a01b038216600081815260036020908152604080832080546001019055848352600290915280822080546001600160a01b0319168417905551839291907fddf252ad1be2c89b69c2b068fc378daa952ba7f163c4a11628f55a4df523b3ef908290a45050565b60606000612e5983612edf565b600101905060008167ffffffffffffffff811115612e7957612e7961321d565b6040519080825280601f01601f191660200182016040528015612ea3576020820181803683370190505b5090508181016020015b600019016f181899199a1a9b1b9c1cb0b131b232b360811b600a86061a8153600a8504945084612ead57509392505050565b60008072184f03e93ff9f4daa797ed6e38ed64bf6a1f0160401b8310612f1e5772184f03e93ff9f4daa797ed6e38ed64bf6a1f0160401b830492506040015b6d04ee2d6d415b85acef81000000008310612f4a576d04ee2d6d415b85acef8100000000830492506020015b662386f26fc100008310612f6857662386f26fc10000830492506010015b6305f5e1008310612f80576305f5e100830492506008015b6127108310612f9457612710830492506004015b60648310612fa6576064830492506002015b600a83106108205760010192915050565b828054828255906000526020600020908101928215612ffd579160200282015b82811115612ffd5782518290612fed9082613ae6565b5091602001919060010190612fd7565b50613009929150613047565b5090565b50805461301990613a2f565b6000825580601f10613029575050565b601f0160209004906000526020600020908101906111a79190613064565b8082111561300957600061305b828261300d565b50600101613047565b5b808211156130095760008155600101613065565b6001600160e01b0319811681146111a757600080fd5b6000602082840312156130a157600080fd5b8135612c4381613079565b80356001600160a01b03811681146130c357600080fd5b919050565b6000602082840312156130da57600080fd5b612c43826130ac565b60005b838110156130fe5781810151838201526020016130e6565b50506000910152565b6000815180845261311f8160208601602086016130e3565b601f01601f19169290920160200192915050565b602081526000612c436020830184613107565b60006020828403121561315857600080fd5b5035919050565b6000806040838503121561317257600080fd5b61317b836130ac565b946020939093013593505050565b60006101408c83528060208401526131a38184018d613107565b905082810360408401526131b7818c613107565b905089606084015282810360808401526131d1818a613107565b6001600160a01b03891660a085015260c0840188905260e08401879052851515610100850152838103610120850152905061320c8185613107565b9d9c50505050505050505050505050565b634e487b7160e01b600052604160045260246000fd5b604051601f8201601f1916810167ffffffffffffffff8111828210171561325c5761325c61321d565b604052919050565b600067ffffffffffffffff83111561327e5761327e61321d565b613291601f8401601f1916602001613233565b90508281528383830111156132a557600080fd5b828260208301376000602084830101529392505050565b600082601f8301126132cd57600080fd5b612c4383833560208501613264565b60008060008060008060c087890312156132f557600080fd5b863567ffffffffffffffff8082111561330d57600080fd5b6133198a838b016132bc565b9750602089013591508082111561332f57600080fd5b61333b8a838b016132bc565b965060408901359550606089013591508082111561335857600080fd5b6133648a838b016132bc565b94506080890135935060a089013591508082111561338157600080fd5b5061338e89828a016132bc565b9150509295509295509295565b6000806000606084860312156133b057600080fd5b6133b9846130ac565b92506133c7602085016130ac565b9150604084013590509250925092565b600080604083850312156133ea57600080fd5b50508035926020909101359150565b83151581526060602082015260006134146060830185613107565b82810360408401526134268185613107565b9695505050505050565b600067ffffffffffffffff82111561344a5761344a61321d565b5060051b60200190565b600082601f83011261346557600080fd5b8135602061347a61347583613430565b613233565b82815260059290921b8401810191818101908684111561349957600080fd5b8286015b848110156134bb576134ae816130ac565b835291830191830161349d565b509695505050505050565b600082601f8301126134d757600080fd5b813560206134e761347583613430565b82815260059290921b8401810191818101908684111561350657600080fd5b8286015b848110156134bb578035835291830191830161350a565b600082601f83011261353257600080fd5b8135602061354261347583613430565b82815260059290921b8401810191818101908684111561356157600080fd5b8286015b848110156134bb57803567ffffffffffffffff8111156135855760008081fd5b6135938986838b01016132bc565b845250918301918301613565565b600082601f8301126135b257600080fd5b813560206135c261347583613430565b82815260059290921b840181019181810190868411156135e157600080fd5b8286015b848110156134bb57803567ffffffffffffffff8111156136055760008081fd5b6136138986838b0101613521565b8452509183019183016135e5565b60008060008060008060c0878903121561363a57600080fd5b863567ffffffffffffffff8082111561365257600080fd5b61365e8a838b01613454565b975060208901359650604089013591508082111561367b57600080fd5b6136878a838b016134c6565b9550606089013591508082111561369d57600080fd5b6136a98a838b016134c6565b945060808901359150808211156136bf57600080fd5b6136cb8a838b016135a1565b935060a08901359150808211156136e157600080fd5b5061338e89828a01613521565b6020808252825182820181905260009190848201906040850190845b818110156137265783518352928401929184019160010161370a565b50909695505050505050565b60208152815160208201526000602083015161014080604085015261375b610160850183613107565b91506040850151601f19808685030160608701526137798483613107565b93506060870151608087015260808701519150808685030160a08701526137a08483613107565b935060a087015191506137be60c08701836001600160a01b03169052565b60c087015160e087015260e087015191506101008281880152808801519250506101206137ee8188018415159052565b8701518685039091018387015290506134268382613107565b6000602080835260e083018451828501528185015160408501526040850151606085015260608501516080850152608085015160c060a086015281815180845261010093508387019150838160051b8801019350848301925060005b818110156138915760ff1988860301835261387f858551613107565b94509285019291850191600101613863565b5050505060a085015180151560c0860152915061254f565b600080604083850312156138bc57600080fd5b6138c5836130ac565b9150602083013580151581146138da57600080fd5b809150509250929050565b600080600080608085870312156138fb57600080fd5b613904856130ac565b9350613912602086016130ac565b925060408501359150606085013567ffffffffffffffff81111561393557600080fd5b8501601f8101871361394657600080fd5b61395587823560208401613264565b91505092959194509250565b8481528360208201528260408201526080606082015260006134266080830184613107565b6000806040838503121561399957600080fd5b6139a2836130ac565b91506139b0602084016130ac565b90509250929050565b60008060008060008060c087890312156139d257600080fd5b6139db876130ac565b9550602087013594506040870135935060608701359250608087013567ffffffffffffffff80821115613a0d57600080fd5b613a198a838b01613521565b935060a089013591508082111561338157600080fd5b600181811c90821680613a4357607f821691505b602082108103613a6357634e487b7160e01b600052602260045260246000fd5b50919050565b634e487b7160e01b600052601160045260246000fd5b600060018201613a9157613a91613a69565b5060010190565b601f821115610a4557600081815260208120601f850160051c81016020861015613abf5750805b601f850160051c820191505b81811015613ade57828155600101613acb565b505050505050565b815167ffffffffffffffff811115613b0057613b0061321d565b613b1481613b0e8454613a2f565b84613a98565b602080601f831160018114613b495760008415613b315750858301515b600019600386901b1c1916600185901b178555613ade565b600085815260208120601f198616915b82811015613b7857888601518255948401946001909101908401613b59565b5085821015613b965787850151600019600388901b60f8161c191681555b5050505050600190811b01905550565b6020808252602d908201527f4552433732313a2063616c6c6572206973206e6f7420746f6b656e206f776e6560408201526c1c881bdc88185c1c1c9bdd9959609a1b606082015260800190565b8082018082111561082057610820613a69565b808202811582820484141761082057610820613a69565b600082613c3a57634e487b7160e01b600052601260045260246000fd5b500490565b634e487b7160e01b600052603260045260246000fd5b60208082526025908201527f4552433732313a207472616e736665722066726f6d20696e636f72726563742060408201526437bbb732b960d91b606082015260800190565b60208082526032908201527f4552433732313a207472616e7366657220746f206e6f6e20455243373231526560408201527131b2b4bb32b91034b6b83632b6b2b73a32b960711b606082015260800190565b60008351613cfe8184602088016130e3565b835190830190613d128183602088016130e3565b01949350505050565b6001600160a01b038581168252841660208201526040810183905260806060820181905260009061342690830184613107565b600060208284031215613d6057600080fd5b8151612c438161307956fe4c65792046696e746563682032303138202d20434e42562f53415420726567756c617465644665657320646973636c6f7365642070657220434e4256207472616e73706172656e637920726571756972656d656e7473202d204d657869636f20636f6d706c69616e74a26469706673582212207484456afb6ff50c74cda6ff8debc94d695cd4cead9f2bba978ba000f93168d164736f6c63430008130033",
  "linkReferences": {},
  "deployedLinkReferences": {}
}