{
  "_format": "hh-sol-artifact-1",
  "contractName": "TicketNFT",
  "sourceName": "contracts/TicketNFT.sol",
  "abi": [
    {
      "inputs": [],
      "stateMutability": "nonpayable",
      "type": "constructor"
    },
    {
      "anonymous": false,
      "inputs": [
        {
          "indexed": true,
          "internalType": "address",
          "name": "owner",
          "type": "address"
        },
        {
          "indexed": true,
          "internalType": "address",
          "name": "approved",
          "type": "address"
        },
        {
          "indexed": true,
          "internalType": "uint256",
          "name": "tokenId",
          "type": "uint256"
        }
      ],
      "name": "Approval",
      "type": "event"
    },
    {
      "anonymous": false,
      "inputs": [
        {
          "indexed": true,
          "internalType": "address",
          "name": "owner",
          "type": "address"
        },
        {
          "indexed": true,
          "internalType": "address",
          "name": "operator",
          "type": "address"
        },
        {
          "indexed": false,
          "internalType": "bool",
          "name": "approved",
          "type": "bool"
        }
      ],
      "name": "ApprovalForAll",
      "type": "event"
    },
    {
      "anonymous": false,
      "inputs": [
        {
          "indexed": false,
          "internalType": "uint256",
          "name": "_fromTokenId",
          "type": "uint256"
        },
        {
          "indexed": false,
          "internalType": "uint256",
          "name": "_toTokenId",
          "type": "uint256"
        }
      ],
      "name": "BatchMetadataUpdate",
      "type": "event"
    },
    {
      "anonymous": false,
      "inputs": [
        {
          "indexed": true,
          "internalType": "uint256",
          "name": "eventId",
          "type": "uint256"
        },
        {
          "indexed": false,
          "internalType": "string",
          "name": "name",
          "type": "string"
        },
        {
          "indexed": true,
          "internalType": "address",
          "name": "organizer",
          "type": "address"
        }
      ],
      "name": "EventCreated",
      "type": "event"
    },
    {
      "anonymous": false,
      "inputs": [
        {
          "indexed": false,
          "internalType": "uint256",
          "name": "_tokenId",
          "type": "uint256"
        }
      ],
      "name": "MetadataUpdate",
      "type": "event"
    },
    {
      "anonymous": false,
      "inputs": [
        {
          "indexed": true,
          "internalType": "address",
          "name": "previousOwner",
          "type": "address"
        },
        {
          "indexed": true,
          "internalType": "address",
          "name": "newOwner",
          "type": "address"
        }
      ],
      "name": "OwnershipTransferred",
      "type": "event"
    },
    {
      "anonymous": false,
      "inputs": [
        {
          "indexed": true,
          "internalType": "uint256",
          "name": "tokenId",
          "type": "uint256"
        },
        {
          "indexed": true,
          "internalType": "uint256",
          "name": "eventId",
          "type": "uint256"
        },
        {
          "indexed": true,
          "internalType": "address",
          "name": "owner",
          "type": "address"
        }
      ],
      "name": "TicketMinted",
      "type": "event"
    },
    {
      "anonymous": false,
      "inputs": [
        {
          "indexed": true,
          "internalType": "uint256",
          "name": "tokenId",
          "type": "uint256"
        },
        {
          "indexed": true,
          "internalType": "uint256",
          "name": "eventId",
          "type": "uint256"
        }
      ],
      "name": "TicketUsed",
      "type": "event"
    },
    {
      "anonymous": false,
      "inputs": [
        {
          "indexed": true,
          "internalType": "address",
          "name": "from",
          "type": "address"
        },
        {
          "indexed": true,
          "internalType": "address",
          "name": "to",
          "type": "address"
        },
        {
          "indexed": true,
          "internalType": "uint256",
          "name": "tokenId",
          "type": "uint256"
        }
      ],
      "name": "Transfer",
      "type": "event"
    },
    {
      "anonymous": false,
      "inputs": [
        {
          "indexed": true,
          "internalType": "address",
          "name": "validator",
          "type": "address"
        }
      ],
      "name": "ValidatorAuthorized",
      "type": "event"
    },
    {
      "anonymous": false,
      "inputs": [
        {
          "indexed": true,
          "internalType": "address",
          "name": "validator",
          "type": "address"
        }
      ],
      "name": "ValidatorRevoked",
      "type": "event"
    },
    {
      "inputs": [],
      "name": "ROYALTY_FEE",
      "outputs": [
        {
          "internalType": "uint96",
          "name": "",
          "type": "uint96"
        }
      ],
      "stateMutability": "view",
      "type": "function"
    },
    {
      "inputs": [
        {
          "internalType": "address",
          "name": "to",
          "type": "address"
        },
        {
          "internalType": "uint256",
          "name": "tokenId",
          "type": "uint256"
        }
      ],
      "name": "approve",
      "outputs": [],
      "stateMutability": "nonpayable",
      "type": "function"
    },
    {
      "inputs": [
        {
          "internalType": "address",
          "name": "_validator",
          "type": "address"
        }
      ],
      "name": "authorizeValidator",
      "outputs": [],
      "stateMutability": "nonpayable",
      "type": "function"
    },
    {
      "inputs": [
        {
          "internalType": "address",
          "name": "",
          "type": "address"
        }
      ],
      "name": "authorizedValidators",
      "outputs": [
        {
          "internalType": "bool",
          "name": "",
          "type": "bool"
        }
      ],
      "stateMutability": "view",
      "type": "function"
    },
    {
      "inputs": [
        {
          "internalType": "address",
          "name": "owner",
          "type": "address"
        }
      ],
      "name": "balanceOf",
      "outputs": [
        {
          "internalType": "uint256",
          "name": "",
          "type": "uint256"
        }
      ],
      "stateMutability": "view",
      "type": "function"
    },
    {
      "inputs": [
        {
          "internalType": "address[]",
          "name": "_to",
          "type": "address[]"
        },
        {
          "internalType": "uint256",
          "name": "_eventId",
          "type": "uint256"
        },
        {
          "internalType": "uint256[]",
          "name": "_ticketTypes",
          "type": "uint256[]"
        },
        {
          "internalType": "uint256[]",
          "name": "_prices",
          "type": "uint256[]"
        },
        {
          "internalType": "string[][]",
          "name": "_benefits",
          "type": "string[][]"
        },
        {
          "internalType": "string[]",
          "name": "_tokenURIs",
          "type": "string[]"
        }
      ],
      "name": "batchMintTickets",
      "outputs": [
        {
          "internalType": "uint256[]",
          "name": "",
          "type": "uint256[]"
        }
      ],
      "stateMutability": "payable",
      "type": "function"
    },
    {
      "inputs": [
        {
          "internalType": "uint256",
          "name": "tokenId",
          "type": "uint256"
        }
      ],
      "name": "burn",
      "outputs": [],
      "stateMutability": "nonpayable",
      "type": "function"
    },
    {
      "inputs": [
        {
          "internalType": "string",
          "name": "_name",
          "type": "string"
        },
        {
          "internalType": "string",
          "name": "_description",
          "type": "string"
        },
        {
          "internalType": "uint256",
          "name": "_eventDate",
          "type": "uint256"
        },
        {
          "internalType": "string",
          "name": "_location",
          "type": "string"
        },
        {
          "internalType": "uint256",
          "name": "_totalTickets",
          "type": "uint256"
        },
        {
          "internalType": "string",
          "name": "_metadataURI",
          "type": "string"
        }
      ],
      "name": "createEvent",
      "outputs": [
        {
          "internalType": "uint256",
          "name": "",
          "type": "uint256"
        }
      ],
      "stateMutability": "nonpayable",
      "type": "function"
    },
    {
      "inputs": [],
      "name": "eventCounter",
      "outputs": [
        {
          "internalType": "uint256",
          "name": "",
          "type": "uint256"
        }
      ],
      "stateMutability": "view",
      "type": "function"
    },
    {
      "inputs": [
        {
          "internalType": "uint256",
          "name": "",
          "type": "uint256"
        }
      ],
      "name": "events",
      "outputs": [
        {
          "internalType": "uint256",
          "name": "eventId",
          "type": "uint256"
        },
        {
          "internalType": "string",
          "name": "name",
          "type": "string"
        },
        {
          "internalType": "string",
          "name": "description",
          "type": "string"
        },
        {
          "internalType": "uint256",
          "name": "eventDate",
          "type": "uint256"
        },
        {
          "internalType": "string",
          "name": "location",
          "type": "string"
        },
        {
          "internalType": "address",
          "name": "organizer",
          "type": "address"
        },
        {
          "internalType": "uint256",
          "name": "totalTickets",
          "type": "uint256"
        },
        {
          "internalType": "uint256",
          "name": "soldTickets",
          "type": "uint256"
        },
        {
          "internalType": "bool",
          "name": "isActive",
          "type": "bool"
        },
        {
          "internalType": "string",
          "name": "metadataURI",
          "type": "string"
        }
      ],
      "stateMutability": "view",
      "type": "function"
    },
    {
      "inputs": [
        {
          "internalType": "uint256",
          "name": "tokenId",
          "type": "uint256"
        }
      ],
      "name": "getApproved",
      "outputs": [
        {
          "internalType": "address",
          "name": "",
          "type": "address"
        }
      ],
      "stateMutability": "view",
      "type": "function"
    },
    {
      "inputs": [
        {
          "internalType": "uint256",
          "name": "_eventId",
          "type": "uint256"
        }
      ],
      "name": "getEvent",
      "outputs": [
        {
          "components": [
            {
              "internalType": "uint256",
              "name": "eventId",
              "type": "uint256"
            },
            {
              "internalType": "string",
              "name": "name",
              "type": "string"
            },
            {
              "internalType": "string",
              "name": "description",
              "type": "string"
            },
            {
              "internalType": "uint256",
              "name": "eventDate",
              "type": "uint256"
            },
            {
              "internalType": "string",
              "name": "location",
              "type": "string"
            },
            {
              "internalType": "address",
              "name": "organizer",
              "type": "address"
            },
            {
              "internalType": "uint256",
              "name": "totalTickets",
              "type": "uint256"
            },
            {
              "internalType": "uint256",
              "name": "soldTickets",
              "type": "uint256"
            },
            {
              "internalType": "bool",
              "name": "isActive",
              "type": "bool"
            },
            {
              "internalType": "string",
              "name": "metadataURI",
              "type": "string"
            }
          ],
          "internalType": "struct TicketNFT.EventInfo",
          "name": "",
          "type": "tuple"
        }
      ],
      "stateMutability": "view",
      "type": "function"
    },
    {
      "inputs": [
        {
          "internalType": "uint256",
          "name": "_tokenId",
          "type": "uint256"
        }
      ],
      "name": "getTicket",
      "outputs": [
        {
          "components": [
            {
              "internalType": "uint256",
              "name": "eventId",
              "type": "uint256"
            },
            {
              "internalType": "uint256",
              "name": "ticketType",
              "type": "uint256"
            },
            {
              "internalType": "uint256",
              "name": "price",
              "type": "uint256"
            },
            {
              "internalType": "uint256",
              "name": "purchaseDate",
              "type": "uint256"
            },
            {
              "internalType": "string[]",
              "name": "benefits",
              "type": "string[]"
            },
            {
              "internalType": "bool",
              "name": "isTransferable",
              "type": "bool"
            }
          ],
          "internalType": "struct TicketNFT.TicketInfo",
          "name": "",
          "type": "tuple"
        }
      ],
      "stateMutability": "view",
      "type": "function"
    },
    {
      "inputs": [
        {
          "internalType": "address",
          "name": "owner",
          "type": "address"
        },
        {
          "internalType": "address",
          "name": "operator",
          "type": "address"
        }
      ],
      "name": "isApprovedForAll",
      "outputs": [
        {
          "internalType": "bool",
          "name": "",
          "type": "bool"
        }
      ],
      "stateMutability": "view",
      "type": "function"
    },
    {
      "inputs": [
        {
          "internalType": "uint256",
          "name": "_tokenId",
          "type": "uint256"
        }
      ],
      "name": "isTicketValid",
      "outputs": [
        {
          "internalType": "bool",
          "name": "",
          "type": "bool"
        }
      ],
      "stateMutability": "view",
      "type": "function"
    },
    {
      "inputs": [
        {
          "internalType": "address",
          "name": "_to",
          "type": "address"
        },
        {
          "internalType": "uint256",
          "name": "_eventId",
          "type": "uint256"
        },
        {
          "internalType": "uint256",
          "name": "_ticketType",
          "type": "uint256"
        },
        {
          "internalType": "uint256",
          "name": "_price",
          "type": "uint256"
        },
        {
          "internalType": "string[]",
          "name": "_benefits",
          "type": "string[]"
        },
        {
          "internalType": "string",
          "name": "_tokenURI",
          "type": "string"
        }
      ],
      "name": "mintTicket",
      "outputs": [
        {
          "internalType": "uint256",
          "name": "",
          "type": "uint256"
        }
      ],
      "stateMutability": "payable",
      "type": "function"
    },
    {
      "inputs": [],
      "name": "name",
      "outputs": [
        {
          "internalType": "string",
          "name": "",
          "type": "string"
        }
      ],
      "stateMutability": "view",
      "type": "function"
    },
    {
      "inputs": [],
      "name": "owner",
      "outputs": [
        {
          "internalType": "address",
          "name": "",
          "type": "address"
        }
      ],
      "stateMutability": "view",
      "type": "function"
    },
    {
      "inputs": [
        {
          "internalType": "uint256",
          "name": "tokenId",
          "type": "uint256"
        }
      ],
      "name": "ownerOf",
      "outputs": [
        {
          "internalType": "address",
          "name": "",
          "type": "address"
        }
      ],
      "stateMutability": "view",
      "type": "function"
    },
    {
      "inputs": [],
      "name": "renounceOwnership",
      "outputs": [],
      "stateMutability": "nonpayable",
      "type": "function"
    },
    {
      "inputs": [
        {
          "internalType": "address",
          "name": "_validator",
          "type": "address"
        }
      ],
      "name": "revokeValidator",
      "outputs": [],
      "stateMutability": "nonpayable",
      "type": "function"
    },
    {
      "inputs": [
        {
          "internalType": "uint256",
          "name": "_tokenId",
          "type": "uint256"
        },
        {
          "internalType": "uint256",
          "name": "_salePrice",
          "type": "uint256"
        }
      ],
      "name": "royaltyInfo",
      "outputs": [
        {
          "internalType": "address",
          "name": "",
          "type": "address"
        },
        {
          "internalType": "uint256",
          "name": "",
          "type": "uint256"
        }
      ],
      "stateMutability": "view",
      "type": "function"
    },
    {
      "inputs": [
        {
          "internalType": "address",
          "name": "from",
          "type": "address"
        },
        {
          "internalType": "address",
          "name": "to",
          "type": "address"
        },
        {
          "internalType": "uint256",
          "name": "tokenId",
          "type": "uint256"
        }
      ],
      "name": "safeTransferFrom",
      "outputs": [],
      "stateMutability": "nonpayable",
      "type": "function"
    },
    {
      "inputs": [
        {
          "internalType": "address",
          "name": "from",
          "type": "address"
        },
        {
          "internalType": "address",
          "name": "to",
          "type": "address"
        },
        {
          "internalType": "uint256",
          "name": "tokenId",
          "type": "uint256"
        },
        {
          "internalType": "bytes",
          "name": "data",
          "type": "bytes"
        }
      ],
      "name": "safeTransferFrom",
      "outputs": [],
      "stateMutability": "nonpayable",
      "type": "function"
    },
    {
      "inputs": [
        {
          "internalType": "address",
          "name": "operator",
          "type": "address"
        },
        {
          "internalType": "bool",
          "name": "approved",
          "type": "bool"
        }
      ],
      "name": "setApprovalForAll",
      "outputs": [],
      "stateMutability": "nonpayable",
      "type": "function"
    },
    {
      "inputs": [
        {
          "internalType": "bytes4",
          "name": "interfaceId",
          "type": "bytes4"
        }
      ],
      "name": "supportsInterface",
      "outputs": [
        {
          "internalType": "bool",
          "name": "",
          "type": "bool"
        }
      ],
      "stateMutability": "view",
      "type": "function"
    },
    {
      "inputs": [],
      "name": "symbol",
      "outputs": [
        {
          "internalType": "string",
          "name": "",
          "type": "string"
        }
      ],
      "stateMutability": "view",
      "type": "function"
    },
    {
      "inputs": [
        {
          "internalType": "uint256",
          "name": "",
          "type": "uint256"
        }
      ],
      "name": "tickets",
      "outputs": [
        {
          "internalType": "uint256",
          "name": "eventId",
          "type": "uint256"
        },
        {
          "internalType": "uint256",
          "name": "ticketType",
          "type": "uint256"
        },
        {
          "internalType": "uint256",
          "name": "price",
          "type": "uint256"
        },
        {
          "internalType": "uint256",
          "name": "purchaseDate",
          "type": "uint256"
        },
        {
          "internalType": "bool",
          "name": "isTransferable",
          "type": "bool"
        }
      ],
      "stateMutability": "view",
      "type": "function"
    },
    {
      "inputs": [
        {
          "internalType": "uint256",
          "name": "tokenId",
          "type": "uint256"
        }
      ],
      "name": "tokenURI",
      "outputs": [
        {
          "internalType": "string",
          "name": "",
          "type": "string"
        }
      ],
      "stateMutability": "view",
      "type": "function"
    },
    {
      "inputs": [
        {
          "internalType": "address",
          "name": "from",
          "type": "address"
        },
        {
          "internalType": "address",
          "name": "to",
          "type": "address"
        },
        {
          "internalType": "uint256",
          "name": "tokenId",
          "type": "uint256"
        }
      ],
      "name": "transferFrom",
      "outputs": [],
      "stateMutability": "nonpayable",
      "type": "function"
    },
    {
      "inputs": [
        {
          "internalType": "address",
          "name": "newOwner",
          "type": "address"
        }
      ],
      "name": "transferOwnership",
      "outputs": [],
      "stateMutability": "nonpayable",
      "type": "function"
    },
    {
      "inputs": [
        {
          "internalType": "uint256",
          "name": "_tokenId",
          "type": "uint256"
        }
      ],
      "name": "useTicket",
      "outputs": [],
      "stateMutability": "nonpayable",
      "type": "function"
    },
    {
      "inputs": [
        {
          "internalType": "uint256",
          "name": "",
          "type": "uint256"
        }
      ],
      "name": "usedTickets",
      "outputs": [
        {
          "internalType": "bool",
          "name": "",
          "type": "bool"
        }
      ],
      "stateMutability": "view",
      "type": "function"
    },
    {
      "inputs": [],
      "name": "withdraw",
      "outputs": [],
      "stateMutability": "nonpayable",
      "type": "function"
    }
  ],
  "bytecode": "0x60806040523480156200001157600080fd5b506040518060400160405280601081526020016f5469636b42617365205469636b65747360801b815250604051806040016040528060048152602001635449434b60e01b815250816000908162000069919062000196565b50600162000078828262000196565b505050620000956200008f6200009b60201b60201c565b6200009f565b62000262565b3390565b600780546001600160a01b038381166001600160a01b0319831681179093556040519116919082907f8be0079c531659141344cd1fd0a4f28419497f9722a3daafe3b4186f6b6457e090600090a35050565b634e487b7160e01b600052604160045260246000fd5b600181811c908216806200011c57607f821691505b6020821081036200013d57634e487b7160e01b600052602260045260246000fd5b50919050565b601f8211156200019157600081815260208120601f850160051c810160208610156200016c5750805b601f850160051c820191505b818110156200018d5782815560010162000178565b5050505b505050565b81516001600160401b03811115620001b257620001b2620000f1565b620001ca81620001c3845462000107565b8462000143565b602080601f831160018114620002025760008415620001e95750858301515b600019600386901b1c1916600185901b1785556200018d565b600085815260208120601f198616915b82811015620002335788860151825594840194600190910190840162000212565b5085821015620002525787850151600019600388901b60f8161c191681555b5050505050600190811b01905550565b613b7780620002726000396000f3fe6080604052600436106101f95760003560e01c8063587141631161010d57806395d89b41116100a0578063c87b56dd1161006f578063c87b56dd14610688578063e985e9c5146106a8578063f2fde38b146106c8578063fb3ae56f146106e8578063fc8c1b9b1461070857600080fd5b806395d89b4114610613578063a22cb46514610628578063b88d4fde14610648578063bd7b358c1461066857600080fd5b8063715018a6116100dc578063715018a61461058357806371efdc21146105985780637dc379fa146105c85780638da5cb5b146105f557600080fd5b806358714163146104e65780636352211e146105165780636d1884e01461053657806370a082311461056357600080fd5b8063266064481161019057806342842e0e1161015f57806342842e0e146103f957806342966c681461041957806350b447121461043957806352c55db9146104b057806358298b02146104c657600080fd5b806326606448146103535780632a55205a14610373578063335477fc146103b25780633ccfd60b146103e457600080fd5b8063095ea7b3116101cc578063095ea7b3146102af5780630b791430146102cf57806311fa5bee1461030557806323b872dd1461033357600080fd5b806301ffc9a7146101fe578063047564b71461023357806306fdde0314610255578063081812fc14610277575b600080fd5b34801561020a57600080fd5b5061021e610219366004612eb7565b61071b565b60405190151581526020015b60405180910390f35b34801561023f57600080fd5b5061025361024e366004612ef0565b610746565b005b34801561026157600080fd5b5061026a610797565b60405161022a9190612f5b565b34801561028357600080fd5b50610297610292366004612f6e565b610829565b6040516001600160a01b03909116815260200161022a565b3480156102bb57600080fd5b506102536102ca366004612f87565b610850565b3480156102db57600080fd5b506102ef6102ea366004612f6e565b61096a565b60405161022a9a99989796959493929190612fb1565b34801561031157600080fd5b50610325610320366004613104565b610be9565b60405190815260200161022a565b34801561033f57600080fd5b5061025361034e3660046131c3565b610d65565b34801561035f57600080fd5b5061025361036e366004612f6e565b610d97565b34801561037f57600080fd5b5061039361038e3660046131ff565b610f6c565b604080516001600160a01b03909316835260208301919091520161022a565b3480156103be57600080fd5b506103c760fa81565b6040516bffffffffffffffffffffffff909116815260200161022a565b3480156103f057600080fd5b50610253610ff3565b34801561040557600080fd5b506102536104143660046131c3565b61107e565b34801561042557600080fd5b50610253610434366004612f6e565b611099565b34801561044557600080fd5b50610486610454366004612f6e565b600a60205260009081526040902080546001820154600283015460038401546005909401549293919290919060ff1685565b6040805195865260208601949094529284019190915260608301521515608082015260a00161022a565b3480156104bc57600080fd5b50610325600d5481565b6104d96104d4366004613412565b6110ca565b60405161022a91906134df565b3480156104f257600080fd5b5061021e610501366004612ef0565b600c6020526000908152604090205460ff1681565b34801561052257600080fd5b50610297610531366004612f6e565b61150d565b34801561054257600080fd5b50610556610551366004612f6e565b61156d565b60405161022a9190613523565b34801561056f57600080fd5b5061032561057e366004612ef0565b61188a565b34801561058f57600080fd5b50610253611910565b3480156105a457600080fd5b5061021e6105b3366004612f6e565b600b6020526000908152604090205460ff1681565b3480156105d457600080fd5b506105e86105e3366004612f6e565b611924565b60405161022a9190613602565b34801561060157600080fd5b506007546001600160a01b0316610297565b34801561061f57600080fd5b5061026a611ae2565b34801561063457600080fd5b506102536106433660046136a4565b611af1565b34801561065457600080fd5b506102536106633660046136e0565b611afc565b34801561067457600080fd5b50610253610683366004612ef0565b611b34565b34801561069457600080fd5b5061026a6106a3366004612f6e565b611b88565b3480156106b457600080fd5b5061021e6106c336600461375c565b611b93565b3480156106d457600080fd5b506102536106e3366004612ef0565b611bc1565b3480156106f457600080fd5b5061021e610703366004612f6e565b611c37565b61032561071636600461378f565b611f69565b60006001600160e01b0319821663152a902d60e11b14806107405750610740826121e3565b92915050565b61074e612208565b6001600160a01b0381166000818152600c6020526040808220805460ff19169055517f4e45d5f81f991f0158c54bc2297a90790cd4a036412383fca25ba9173b2329d79190a250565b6060600080546107a690613805565b80601f01602080910402602001604051908101604052809291908181526020018280546107d290613805565b801561081f5780601f106107f45761010080835404028352916020019161081f565b820191906000526020600020905b81548152906001019060200180831161080257829003601f168201915b5050505050905090565b600061083482612262565b506000908152600460205260409020546001600160a01b031690565b600061085b8261150d565b9050806001600160a01b0316836001600160a01b0316036108cd5760405162461bcd60e51b815260206004820152602160248201527f4552433732313a20617070726f76616c20746f2063757272656e74206f776e656044820152603960f91b60648201526084015b60405180910390fd5b336001600160a01b03821614806108e957506108e98133611b93565b61095b5760405162461bcd60e51b815260206004820152603d60248201527f4552433732313a20617070726f76652063616c6c6572206973206e6f7420746f60448201527f6b656e206f776e6572206f7220617070726f76656420666f7220616c6c00000060648201526084016108c4565b61096583836122b2565b505050565b6009602052600090815260409020805460018201805491929161098c90613805565b80601f01602080910402602001604051908101604052809291908181526020018280546109b890613805565b8015610a055780601f106109da57610100808354040283529160200191610a05565b820191906000526020600020905b8154815290600101906020018083116109e857829003601f168201915b505050505090806002018054610a1a90613805565b80601f0160208091040260200160405190810160405280929190818152602001828054610a4690613805565b8015610a935780601f10610a6857610100808354040283529160200191610a93565b820191906000526020600020905b815481529060010190602001808311610a7657829003601f168201915b505050505090806003015490806004018054610aae90613805565b80601f0160208091040260200160405190810160405280929190818152602001828054610ada90613805565b8015610b275780601f10610afc57610100808354040283529160200191610b27565b820191906000526020600020905b815481529060010190602001808311610b0a57829003601f168201915b505050600584015460068501546007860154600887015460098801805497986001600160a01b039095169793965091945060ff169291610b6690613805565b80601f0160208091040260200160405190810160405280929190818152602001828054610b9290613805565b8015610bdf5780601f10610bb457610100808354040283529160200191610bdf565b820191906000526020600020905b815481529060010190602001808311610bc257829003601f168201915b505050505090508a565b600d805460009182610bfa83613855565b9091555050600d54604080516101408101825282815260208082018b81528284018b9052606083018a9052608083018990523360a084015260c08301889052600060e0840181905260016101008501819052610120850189905286825260099093529390932082518155925191929190820190610c7790826138bc565b5060408201516002820190610c8c90826138bc565b506060820151600382015560808201516004820190610cab90826138bc565b5060a08201516005820180546001600160a01b0319166001600160a01b0390921691909117905560c0820151600682015560e0820151600782015561010082015160088201805460ff19169115159190911790556101208201516009820190610d1490826138bc565b50905050336001600160a01b0316817f40fb05b814a900c99fa0a76d919dfdeaf3389540e4ca70f97ba40ca9a38f37978a604051610d529190612f5b565b60405180910390a3979650505050505050565b610d70335b82612320565b610d8c5760405162461bcd60e51b81526004016108c49061397c565b61096583838361237f565b336000908152600c602052604090205460ff1680610dbf57506007546001600160a01b031633145b610e0b5760405162461bcd60e51b815260206004820152601860248201527f4e6f7420617574686f72697a65642076616c696461746f72000000000000000060448201526064016108c4565b610e14816124e3565b610e585760405162461bcd60e51b8152602060048201526015602482015274151a58dad95d08191bd95cc81b9bdd08195e1a5cdd605a1b60448201526064016108c4565b6000818152600b602052604090205460ff1615610ead5760405162461bcd60e51b8152602060048201526013602482015272151a58dad95d08185b1c9958591e481d5cd959606a1b60448201526064016108c4565b6000818152600a602090815260408083205483526009909152902060030154610ed990620151806139c9565b421115610f1a5760405162461bcd60e51b815260206004820152600f60248201526e115d995b9d081a185cc8195b991959608a1b60448201526064016108c4565b6000818152600b60209081526040808320805460ff19166001179055600a909152808220549051909183917fad0a02848182e7d3a9bb0ae2cc919bdef92f9da6b0a45ced3656cf5443212ede9190a350565b600080610f78846124e3565b610fbb5760405162461bcd60e51b8152602060048201526014602482015273151bdad95b88191bd95cc81b9bdd08195e1a5cdd60621b60448201526064016108c4565b6000612710610fcb60fa866139dc565b610fd591906139f3565b9050610fe96007546001600160a01b031690565b9590945092505050565b610ffb612208565b47806110405760405162461bcd60e51b81526020600482015260146024820152734e6f2066756e647320746f20776974686472617760601b60448201526064016108c4565b6007546040516001600160a01b039091169082156108fc029083906000818181858888f1935050505015801561107a573d6000803e3d6000fd5b5050565b61096583838360405180602001604052806000815250611afc565b6110a233610d6a565b6110be5760405162461bcd60e51b81526004016108c49061397c565b6110c781612500565b50565b6060845187511480156110de575083518751145b6111225760405162461bcd60e51b8152602060048201526015602482015274082e4e4c2f240d8cadccee8d040dad2e6dac2e8c6d605b1b60448201526064016108c4565b60008681526009602052604090206008015460ff166111795760405162461bcd60e51b81526020600482015260136024820152724576656e74206973206e6f742061637469766560681b60448201526064016108c4565b6000875167ffffffffffffffff81111561119557611195613045565b6040519080825280602002602001820160405280156111be578160200160208202803683370190505b5090506000805b8651811015611207578681815181106111e0576111e0613a15565b6020026020010151826111f391906139c9565b9150806111ff81613855565b9150506111c5565b508034101561124f5760405162461bcd60e51b8152602060048201526014602482015273125b9cdd59999a58da595b9d081c185e5b595b9d60621b60448201526064016108c4565b60005b89518110156114995760008981526009602052604090206006810154600790910154106112b25760405162461bcd60e51b815260206004820152600e60248201526d115d995b9d081cdbdb19081bdd5d60921b60448201526064016108c4565b600880549060006112c283613855565b9190505550600060085490506112f18b83815181106112e3576112e3613a15565b602002602001015182612509565b6113148187848151811061130757611307613a15565b6020026020010151612523565b6040518060c001604052808b81526020018a848151811061133757611337613a15565b6020026020010151815260200189848151811061135657611356613a15565b6020026020010151815260200142815260200188848151811061137b5761137b613a15565b602090810291909101810151825260019181018290526000848152600a8252604090819020845181558483015193810193909355830151600283015560608301516003830155608083015180516113d89260048501920190612ddf565b5060a091909101516005909101805460ff191691151591909117905560008a815260096020526040812060070180549161141183613855565b91905055508084838151811061142957611429613a15565b6020026020010181815250508a828151811061144757611447613a15565b60200260200101516001600160a01b03168a827f085ec0eff4bf526b0dd054adffcd8bd8da42126a1133ce302042973f32029fb060405160405180910390a4508061149181613855565b915050611252565b5060006103e86114ab346103cf6139dc565b6114b591906139f3565b60008a8152600960205260408082206005015490519293506001600160a01b03169183156108fc0291849190818181858888f193505050501580156114fe573d6000803e3d6000fd5b50919998505050505050505050565b6000818152600260205260408120546001600160a01b0316806107405760405162461bcd60e51b8152602060048201526018602482015277115490cdcc8c4e881a5b9d985b1a59081d1bdad95b88125160421b60448201526064016108c4565b6115ce604051806101400160405280600081526020016060815260200160608152602001600081526020016060815260200160006001600160a01b031681526020016000815260200160008152602001600015158152602001606081525090565b60096000838152602001908152602001600020604051806101400160405290816000820154815260200160018201805461160790613805565b80601f016020809104026020016040519081016040528092919081815260200182805461163390613805565b80156116805780601f1061165557610100808354040283529160200191611680565b820191906000526020600020905b81548152906001019060200180831161166357829003601f168201915b5050505050815260200160028201805461169990613805565b80601f01602080910402602001604051908101604052809291908181526020018280546116c590613805565b80156117125780601f106116e757610100808354040283529160200191611712565b820191906000526020600020905b8154815290600101906020018083116116f557829003601f168201915b505050505081526020016003820154815260200160048201805461173590613805565b80601f016020809104026020016040519081016040528092919081815260200182805461176190613805565b80156117ae5780601f10611783576101008083540402835291602001916117ae565b820191906000526020600020905b81548152906001019060200180831161179157829003601f168201915b505050918352505060058201546001600160a01b031660208201526006820154604082015260078201546060820152600882015460ff161515608082015260098201805460a09092019161180190613805565b80601f016020809104026020016040519081016040528092919081815260200182805461182d90613805565b801561187a5780601f1061184f5761010080835404028352916020019161187a565b820191906000526020600020905b81548152906001019060200180831161185d57829003601f168201915b5050505050815250509050919050565b60006001600160a01b0382166118f45760405162461bcd60e51b815260206004820152602960248201527f4552433732313a2061646472657373207a65726f206973206e6f7420612076616044820152683634b21037bbb732b960b91b60648201526084016108c4565b506001600160a01b031660009081526003602052604090205490565b611918612208565b61192260006125df565b565b61195f6040518060c0016040528060008152602001600081526020016000815260200160008152602001606081526020016000151581525090565b611968826124e3565b6119ac5760405162461bcd60e51b8152602060048201526015602482015274151a58dad95d08191bd95cc81b9bdd08195e1a5cdd605a1b60448201526064016108c4565b600a60008381526020019081526020016000206040518060c00160405290816000820154815260200160018201548152602001600282015481526020016003820154815260200160048201805480602002602001604051908101604052809291908181526020016000905b82821015611ac3578382906000526020600020018054611a3690613805565b80601f0160208091040260200160405190810160405280929190818152602001828054611a6290613805565b8015611aaf5780601f10611a8457610100808354040283529160200191611aaf565b820191906000526020600020905b815481529060010190602001808311611a9257829003601f168201915b505050505081526020019060010190611a17565b505050908252506005919091015460ff16151560209091015292915050565b6060600180546107a690613805565b61107a338383612631565b611b063383612320565b611b225760405162461bcd60e51b81526004016108c49061397c565b611b2e848484846126ff565b50505050565b611b3c612208565b6001600160a01b0381166000818152600c6020526040808220805460ff19166001179055517f7e7b46f96b81fdc950459cd1b69e84ba6672783d48c4626c47822c844eae56959190a250565b606061074082612732565b6001600160a01b03918216600090815260056020908152604080832093909416825291909152205460ff1690565b611bc9612208565b6001600160a01b038116611c2e5760405162461bcd60e51b815260206004820152602660248201527f4f776e61626c653a206e6577206f776e657220697320746865207a65726f206160448201526564647265737360d01b60648201526084016108c4565b6110c7816125df565b6000611c42826124e3565b611c4e57506000919050565b6000828152600b602052604090205460ff1615611c6d57506000919050565b6000828152600a602090815260408083205483526009825280832081516101408101909252805482526001810180549293919291840191611cad90613805565b80601f0160208091040260200160405190810160405280929190818152602001828054611cd990613805565b8015611d265780601f10611cfb57610100808354040283529160200191611d26565b820191906000526020600020905b815481529060010190602001808311611d0957829003601f168201915b50505050508152602001600282018054611d3f90613805565b80601f0160208091040260200160405190810160405280929190818152602001828054611d6b90613805565b8015611db85780601f10611d8d57610100808354040283529160200191611db8565b820191906000526020600020905b815481529060010190602001808311611d9b57829003601f168201915b5050505050815260200160038201548152602001600482018054611ddb90613805565b80601f0160208091040260200160405190810160405280929190818152602001828054611e0790613805565b8015611e545780601f10611e2957610100808354040283529160200191611e54565b820191906000526020600020905b815481529060010190602001808311611e3757829003601f168201915b505050918352505060058201546001600160a01b031660208201526006820154604082015260078201546060820152600882015460ff161515608082015260098201805460a090920191611ea790613805565b80601f0160208091040260200160405190810160405280929190818152602001828054611ed390613805565b8015611f205780601f10611ef557610100808354040283529160200191611f20565b820191906000526020600020905b815481529060010190602001808311611f0357829003601f168201915b5050505050815250509050806101000151611f3e5750600092915050565b6060810151611f5090620151806139c9565b421115611f605750600092915050565b50600192915050565b60008581526009602052604081206008015460ff16611fc05760405162461bcd60e51b81526020600482015260136024820152724576656e74206973206e6f742061637469766560681b60448201526064016108c4565b60008681526009602052604090206006810154600790910154106120175760405162461bcd60e51b815260206004820152600e60248201526d115d995b9d081cdbdb19081bdd5d60921b60448201526064016108c4565b8334101561205e5760405162461bcd60e51b8152602060048201526014602482015273125b9cdd59999a58da595b9d081c185e5b595b9d60621b60448201526064016108c4565b6008805490600061206e83613855565b90915550506008546120808882612509565b61208a8184612523565b6040805160c08101825288815260208082018981528284018981524260608501908152608085018a8152600160a087018190526000898152600a8752979097208651815593519684019690965590516002830155516003820155925180519293926120fb9260048501920190612ddf565b5060a091909101516005909101805460ff1916911515919091179055600087815260096020526040812060070180549161213483613855565b90915550600090506103e861214b346103cf6139dc565b61215591906139f3565b6000898152600960205260408082206005015490519293506001600160a01b03169183156108fc0291849190818181858888f1935050505015801561219e573d6000803e3d6000fd5b50886001600160a01b031688837f085ec0eff4bf526b0dd054adffcd8bd8da42126a1133ce302042973f32029fb060405160405180910390a450979650505050505050565b60006001600160e01b03198216632483248360e11b148061074057506107408261283a565b6007546001600160a01b031633146119225760405162461bcd60e51b815260206004820181905260248201527f4f776e61626c653a2063616c6c6572206973206e6f7420746865206f776e657260448201526064016108c4565b61226b816124e3565b6110c75760405162461bcd60e51b8152602060048201526018602482015277115490cdcc8c4e881a5b9d985b1a59081d1bdad95b88125160421b60448201526064016108c4565b600081815260046020526040902080546001600160a01b0319166001600160a01b03841690811790915581906122e78261150d565b6001600160a01b03167f8c5be1e5ebec7d5bd14f71427d1e84f3dd0314c0f7b2291e5b200ac8c7c3b92560405160405180910390a45050565b60008061232c8361150d565b9050806001600160a01b0316846001600160a01b0316148061235357506123538185611b93565b806123775750836001600160a01b031661236c84610829565b6001600160a01b0316145b949350505050565b826001600160a01b03166123928261150d565b6001600160a01b0316146123b85760405162461bcd60e51b81526004016108c490613a2b565b6001600160a01b03821661241a5760405162461bcd60e51b8152602060048201526024808201527f4552433732313a207472616e7366657220746f20746865207a65726f206164646044820152637265737360e01b60648201526084016108c4565b826001600160a01b031661242d8261150d565b6001600160a01b0316146124535760405162461bcd60e51b81526004016108c490613a2b565b600081815260046020908152604080832080546001600160a01b03199081169091556001600160a01b0387811680865260038552838620805460001901905590871680865283862080546001019055868652600290945282852080549092168417909155905184937fddf252ad1be2c89b69c2b068fc378daa952ba7f163c4a11628f55a4df523b3ef91a4505050565b6000908152600260205260409020546001600160a01b0316151590565b6110c78161288a565b61107a8282604051806020016040528060008152506128ca565b61252c826124e3565b61258f5760405162461bcd60e51b815260206004820152602e60248201527f45524337323155524953746f726167653a2055524920736574206f66206e6f6e60448201526d32bc34b9ba32b73a103a37b5b2b760911b60648201526084016108c4565b60008281526006602052604090206125a782826138bc565b506040518281527ff8e1a15aba9398e019f0b49df1a4fde98ee17ae345cb5f6b5e2c27f5033e8ce79060200160405180910390a15050565b600780546001600160a01b038381166001600160a01b0319831681179093556040519116919082907f8be0079c531659141344cd1fd0a4f28419497f9722a3daafe3b4186f6b6457e090600090a35050565b816001600160a01b0316836001600160a01b0316036126925760405162461bcd60e51b815260206004820152601960248201527f4552433732313a20617070726f766520746f2063616c6c65720000000000000060448201526064016108c4565b6001600160a01b03838116600081815260056020908152604080832094871680845294825291829020805460ff191686151590811790915591519182527f17307eab39ab6107e8899845ad3d59bd9653f200f220920489ca2b5937696c31910160405180910390a3505050565b61270a84848461237f565b612716848484846128fd565b611b2e5760405162461bcd60e51b81526004016108c490613a70565b606061273d82612262565b6000828152600660205260408120805461275690613805565b80601f016020809104026020016040519081016040528092919081815260200182805461278290613805565b80156127cf5780601f106127a4576101008083540402835291602001916127cf565b820191906000526020600020905b8154815290600101906020018083116127b257829003601f168201915b5050505050905060006127ed60408051602081019091526000815290565b905080516000036127ff575092915050565b815115612831578082604051602001612819929190613ac2565b60405160208183030381529060405292505050919050565b612377846129fe565b60006001600160e01b031982166380ac58cd60e01b148061286b57506001600160e01b03198216635b5e139f60e01b145b8061074057506301ffc9a760e01b6001600160e01b0319831614610740565b61289381612a72565b600081815260066020526040902080546128ac90613805565b1590506110c75760008181526006602052604081206110c791612e35565b6128d48383612b07565b6128e160008484846128fd565b6109655760405162461bcd60e51b81526004016108c490613a70565b60006001600160a01b0384163b156129f357604051630a85bd0160e11b81526001600160a01b0385169063150b7a0290612941903390899088908890600401613af1565b6020604051808303816000875af192505050801561297c575060408051601f3d908101601f1916820190925261297991810190613b24565b60015b6129d9573d8080156129aa576040519150601f19603f3d011682016040523d82523d6000602084013e6129af565b606091505b5080516000036129d15760405162461bcd60e51b81526004016108c490613a70565b805181602001fd5b6001600160e01b031916630a85bd0160e11b149050612377565b506001949350505050565b6060612a0982612262565b6000612a2060408051602081019091526000815290565b90506000815111612a405760405180602001604052806000815250612a6b565b80612a4a84612c74565b604051602001612a5b929190613ac2565b6040516020818303038152906040525b9392505050565b6000612a7d8261150d565b9050612a888261150d565b600083815260046020908152604080832080546001600160a01b03199081169091556001600160a01b0385168085526003845282852080546000190190558785526002909352818420805490911690555192935084927fddf252ad1be2c89b69c2b068fc378daa952ba7f163c4a11628f55a4df523b3ef908390a45050565b6001600160a01b038216612b5d5760405162461bcd60e51b815260206004820181905260248201527f4552433732313a206d696e7420746f20746865207a65726f206164647265737360448201526064016108c4565b612b66816124e3565b15612bb35760405162461bcd60e51b815260206004820152601c60248201527f4552433732313a20746f6b656e20616c7265616479206d696e7465640000000060448201526064016108c4565b612bbc816124e3565b15612c095760405162461bcd60e51b815260206004820152601c60248201527f4552433732313a20746f6b656e20616c7265616479206d696e7465640000000060448201526064016108c4565b6001600160a01b038216600081815260036020908152604080832080546001019055848352600290915280822080546001600160a01b0319168417905551839291907fddf252ad1be2c89b69c2b068fc378daa952ba7f163c4a11628f55a4df523b3ef908290a45050565b60606000612c8183612d07565b600101905060008167ffffffffffffffff811115612ca157612ca1613045565b6040519080825280601f01601f191660200182016040528015612ccb576020820181803683370190505b5090508181016020015b600019016f181899199a1a9b1b9c1cb0b131b232b360811b600a86061a8153600a8504945084612cd557509392505050565b60008072184f03e93ff9f4daa797ed6e38ed64bf6a1f0160401b8310612d465772184f03e93ff9f4daa797ed6e38ed64bf6a1f0160401b830492506040015b6d04ee2d6d415b85acef81000000008310612d72576d04ee2d6d415b85acef8100000000830492506020015b662386f26fc100008310612d9057662386f26fc10000830492506010015b6305f5e1008310612da8576305f5e100830492506008015b6127108310612dbc57612710830492506004015b60648310612dce576064830492506002015b600a83106107405760010192915050565b828054828255906000526020600020908101928215612e25579160200282015b82811115612e255782518290612e1590826138bc565b5091602001919060010190612dff565b50612e31929150612e6f565b5090565b508054612e4190613805565b6000825580601f10612e51575050565b601f0160209004906000526020600020908101906110c79190612e8c565b80821115612e31576000612e838282612e35565b50600101612e6f565b5b80821115612e315760008155600101612e8d565b6001600160e01b0319811681146110c757600080fd5b600060208284031215612ec957600080fd5b8135612a6b81612ea1565b80356001600160a01b0381168114612eeb57600080fd5b919050565b600060208284031215612f0257600080fd5b612a6b82612ed4565b60005b83811015612f26578181015183820152602001612f0e565b50506000910152565b60008151808452612f47816020860160208601612f0b565b601f01601f19169290920160200192915050565b602081526000612a6b6020830184612f2f565b600060208284031215612f8057600080fd5b5035919050565b60008060408385031215612f9a57600080fd5b612fa383612ed4565b946020939093013593505050565b60006101408c8352806020840152612fcb8184018d612f2f565b90508281036040840152612fdf818c612f2f565b90508960608401528281036080840152612ff9818a612f2f565b6001600160a01b03891660a085015260c0840188905260e0840187905285151561010085015283810361012085015290506130348185612f2f565b9d9c50505050505050505050505050565b634e487b7160e01b600052604160045260246000fd5b604051601f8201601f1916810167ffffffffffffffff8111828210171561308457613084613045565b604052919050565b600067ffffffffffffffff8311156130a6576130a6613045565b6130b9601f8401601f191660200161305b565b90508281528383830111156130cd57600080fd5b828260208301376000602084830101529392505050565b600082601f8301126130f557600080fd5b612a6b8383356020850161308c565b60008060008060008060c0878903121561311d57600080fd5b863567ffffffffffffffff8082111561313557600080fd5b6131418a838b016130e4565b9750602089013591508082111561315757600080fd5b6131638a838b016130e4565b965060408901359550606089013591508082111561318057600080fd5b61318c8a838b016130e4565b94506080890135935060a08901359150808211156131a957600080fd5b506131b689828a016130e4565b9150509295509295509295565b6000806000606084860312156131d857600080fd5b6131e184612ed4565b92506131ef60208501612ed4565b9150604084013590509250925092565b6000806040838503121561321257600080fd5b50508035926020909101359150565b600067ffffffffffffffff82111561323b5761323b613045565b5060051b60200190565b600082601f83011261325657600080fd5b8135602061326b61326683613221565b61305b565b82815260059290921b8401810191818101908684111561328a57600080fd5b8286015b848110156132ac5761329f81612ed4565b835291830191830161328e565b509695505050505050565b600082601f8301126132c857600080fd5b813560206132d861326683613221565b82815260059290921b840181019181810190868411156132f757600080fd5b8286015b848110156132ac57803583529183019183016132fb565b600082601f83011261332357600080fd5b8135602061333361326683613221565b82815260059290921b8401810191818101908684111561335257600080fd5b8286015b848110156132ac57803567ffffffffffffffff8111156133765760008081fd5b6133848986838b01016130e4565b845250918301918301613356565b600082601f8301126133a357600080fd5b813560206133b361326683613221565b82815260059290921b840181019181810190868411156133d257600080fd5b8286015b848110156132ac57803567ffffffffffffffff8111156133f65760008081fd5b6134048986838b0101613312565b8452509183019183016133d6565b60008060008060008060c0878903121561342b57600080fd5b863567ffffffffffffffff8082111561344357600080fd5b61344f8a838b01613245565b975060208901359650604089013591508082111561346c57600080fd5b6134788a838b016132b7565b9550606089013591508082111561348e57600080fd5b61349a8a838b016132b7565b945060808901359150808211156134b057600080fd5b6134bc8a838b01613392565b935060a08901359150808211156134d257600080fd5b506131b689828a01613312565b6020808252825182820181905260009190848201906040850190845b81811015613517578351835292840192918401916001016134fb565b50909695505050505050565b60208152815160208201526000602083015161014080604085015261354c610160850183612f2f565b91506040850151601f198086850301606087015261356a8483612f2f565b93506060870151608087015260808701519150808685030160a08701526135918483612f2f565b935060a087015191506135af60c08701836001600160a01b03169052565b60c087015160e087015260e087015191506101008281880152808801519250506101206135df8188018415159052565b8701518685039091018387015290506135f88382612f2f565b9695505050505050565b6000602080835260e083018451828501528185015160408501526040850151606085015260608501516080850152608085015160c060a086015281815180845261010093508387019150838160051b8801019350848301925060005b8181101561368c5760ff1988860301835261367a858551612f2f565b9450928501929185019160010161365e565b5050505060a085015180151560c08601529150612377565b600080604083850312156136b757600080fd5b6136c083612ed4565b9150602083013580151581146136d557600080fd5b809150509250929050565b600080600080608085870312156136f657600080fd5b6136ff85612ed4565b935061370d60208601612ed4565b925060408501359150606085013567ffffffffffffffff81111561373057600080fd5b8501601f8101871361374157600080fd5b6137508782356020840161308c565b91505092959194509250565b6000806040838503121561376f57600080fd5b61377883612ed4565b915061378660208401612ed4565b90509250929050565b60008060008060008060c087890312156137a857600080fd5b6137b187612ed4565b9550602087013594506040870135935060608701359250608087013567ffffffffffffffff808211156137e357600080fd5b6137ef8a838b01613312565b935060a08901359150808211156131a957600080fd5b600181811c9082168061381957607f821691505b60208210810361383957634e487b7160e01b600052602260045260246000fd5b50919050565b634e487b7160e01b600052601160045260246000fd5b6000600182016138675761386761383f565b5060010190565b601f82111561096557600081815260208120601f850160051c810160208610156138955750805b601f850160051c820191505b818110156138b4578281556001016138a1565b505050505050565b815167ffffffffffffffff8111156138d6576138d6613045565b6138ea816138e48454613805565b8461386e565b602080601f83116001811461391f57600084156139075750858301515b600019600386901b1c1916600185901b1785556138b4565b600085815260208120601f198616915b8281101561394e5788860151825594840194600190910190840161392f565b508582101561396c5787850151600019600388901b60f8161c191681555b5050505050600190811b01905550565b6020808252602d908201527f4552433732313a2063616c6c6572206973206e6f7420746f6b656e206f776e6560408201526c1c881bdc88185c1c1c9bdd9959609a1b606082015260800190565b808201808211156107405761074061383f565b80820281158282048414176107405761074061383f565b600082613a1057634e487b7160e01b600052601260045260246000fd5b500490565b634e487b7160e01b600052603260045260246000fd5b60208082526025908201527f4552433732313a207472616e736665722066726f6d20696e636f72726563742060408201526437bbb732b960d91b606082015260800190565b60208082526032908201527f4552433732313a207472616e7366657220746f206e6f6e20455243373231526560408201527131b2b4bb32b91034b6b83632b6b2b73a32b960711b606082015260800190565b60008351613ad4818460208801612f0b565b835190830190613ae8818360208801612f0b565b01949350505050565b6001600160a01b03858116825284166020820152604081018390526080606082018190526000906135f890830184612f2f565b600060208284031215613b3657600080fd5b8151612a6b81612ea156fea26469706673582212204cf798766b5dd5ac8fed7774843cb3a212de9d406f55b7d13e2752b66622166564736f6c63430008130033",
  "linkReferences": {},
  "deployedLinkReferences": {}
}