{
  "_format": "hh-sol-artifact-1",
  "contractName": "TicketMarketplace",
  "sourceName": "contracts/TicketMarketplace.sol",
  "abi": [
    {
      "inputs": [],
      "stateMutability": "nonpayable",
      "type": "constructor"
    },
    {
      "anonymous": false,
      "inputs": [
        {
          "indexed": true,
          "internalType": "uint256",
          "name": "listingId",
          "type": "uint256"
        }
      ],
      "name": "ListingCancelled",
      "type": "event"
    },
    {
      "anonymous": false,
      "inputs": [
        {
          "indexed": true,
          "internalType": "uint256",
          "name": "listingId",
          "type": "uint256"
        },
        {
          "indexed": false,
          "internalType": "uint256",
          "name": "newPrice",
          "type": "uint256"
        }
      ],
      "name": "ListingUpdated",
      "type": "event"
    },
    {
      "anonymous": false,
      "inputs": [
        {
          "indexed": true,
          "internalType": "address",
          "name": "previousOwner",
          "type": "address"
        },
        {
          "indexed": true,
          "internalType": "address",
          "name": "newOwner",
          "type": "address"
        }
      ],
      "name": "OwnershipTransferred",
      "type": "event"
    },
    {
      "anonymous": false,
      "inputs": [
        {
          "indexed": false,
          "internalType": "uint256",
          "name": "newFeePercent",
          "type": "uint256"
        }
      ],
      "name": "PlatformFeeUpdated",
      "type": "event"
    },
    {
      "anonymous": false,
      "inputs": [
        {
          "indexed": true,
          "internalType": "uint256",
          "name": "listingId",
          "type": "uint256"
        },
        {
          "indexed": true,
          "internalType": "address",
          "name": "seller",
          "type": "address"
        },
        {
          "indexed": true,
          "internalType": "address",
          "name": "nftContract",
          "type": "address"
        },
        {
          "indexed": false,
          "internalType": "uint256",
          "name": "tokenId",
          "type": "uint256"
        },
        {
          "indexed": false,
          "internalType": "uint256",
          "name": "price",
          "type": "uint256"
        },
        {
          "indexed": false,
          "internalType": "uint256",
          "name": "expiresAt",
          "type": "uint256"
        }
      ],
      "name": "TicketListed",
      "type": "event"
    },
    {
      "anonymous": false,
      "inputs": [
        {
          "indexed": true,
          "internalType": "uint256",
          "name": "listingId",
          "type": "uint256"
        },
        {
          "indexed": true,
          "internalType": "address",
          "name": "seller",
          "type": "address"
        },
        {
          "indexed": true,
          "internalType": "address",
          "name": "buyer",
          "type": "address"
        },
        {
          "indexed": false,
          "internalType": "address",
          "name": "nftContract",
          "type": "address"
        },
        {
          "indexed": false,
          "internalType": "uint256",
          "name": "tokenId",
          "type": "uint256"
        },
        {
          "indexed": false,
          "internalType": "uint256",
          "name": "price",
          "type": "uint256"
        }
      ],
      "name": "TicketSold",
      "type": "event"
    },
    {
      "inputs": [],
      "name": "MAX_FEE_PERCENT",
      "outputs": [
        {
          "internalType": "uint256",
          "name": "",
          "type": "uint256"
        }
      ],
      "stateMutability": "view",
      "type": "function"
    },
    {
      "inputs": [
        {
          "internalType": "uint256",
          "name": "_listingId",
          "type": "uint256"
        }
      ],
      "name": "buyTicket",
      "outputs": [],
      "stateMutability": "payable",
      "type": "function"
    },
    {
      "inputs": [
        {
          "internalType": "uint256",
          "name": "_listingId",
          "type": "uint256"
        }
      ],
      "name": "cancelListing",
      "outputs": [],
      "stateMutability": "nonpayable",
      "type": "function"
    },
    {
      "inputs": [
        {
          "internalType": "uint256",
          "name": "_listingId",
          "type": "uint256"
        }
      ],
      "name": "getListing",
      "outputs": [
        {
          "components": [
            {
              "internalType": "uint256",
              "name": "listingId",
              "type": "uint256"
            },
            {
              "internalType": "address",
              "name": "seller",
              "type": "address"
            },
            {
              "internalType": "address",
              "name": "nftContract",
              "type": "address"
            },
            {
              "internalType": "uint256",
              "name": "tokenId",
              "type": "uint256"
            },
            {
              "internalType": "uint256",
              "name": "price",
              "type": "uint256"
            },
            {
              "internalType": "bool",
              "name": "isActive",
              "type": "bool"
            },
            {
              "internalType": "uint256",
              "name": "createdAt",
              "type": "uint256"
            },
            {
              "internalType": "uint256",
              "name": "expiresAt",
              "type": "uint256"
            }
          ],
          "internalType": "struct TicketMarketplace.Listing",
          "name": "",
          "type": "tuple"
        }
      ],
      "stateMutability": "view",
      "type": "function"
    },
    {
      "inputs": [
        {
          "internalType": "address",
          "name": "_nftContract",
          "type": "address"
        },
        {
          "internalType": "uint256",
          "name": "_tokenId",
          "type": "uint256"
        }
      ],
      "name": "getListingByToken",
      "outputs": [
        {
          "internalType": "uint256",
          "name": "",
          "type": "uint256"
        }
      ],
      "stateMutability": "view",
      "type": "function"
    },
    {
      "inputs": [],
      "name": "getNextListingId",
      "outputs": [
        {
          "internalType": "uint256",
          "name": "",
          "type": "uint256"
        }
      ],
      "stateMutability": "view",
      "type": "function"
    },
    {
      "inputs": [
        {
          "internalType": "address",
          "name": "_seller",
          "type": "address"
        }
      ],
      "name": "getSellerListings",
      "outputs": [
        {
          "internalType": "uint256[]",
          "name": "",
          "type": "uint256[]"
        }
      ],
      "stateMutability": "view",
      "type": "function"
    },
    {
      "inputs": [],
      "name": "getTotalListings",
      "outputs": [
        {
          "internalType": "uint256",
          "name": "",
          "type": "uint256"
        }
      ],
      "stateMutability": "view",
      "type": "function"
    },
    {
      "inputs": [
        {
          "internalType": "address",
          "name": "_nftContract",
          "type": "address"
        },
        {
          "internalType": "uint256",
          "name": "_tokenId",
          "type": "uint256"
        },
        {
          "internalType": "uint256",
          "name": "_price",
          "type": "uint256"
        },
        {
          "internalType": "uint256",
          "name": "_expiresAt",
          "type": "uint256"
        }
      ],
      "name": "listTicket",
      "outputs": [
        {
          "internalType": "uint256",
          "name": "",
          "type": "uint256"
        }
      ],
      "stateMutability": "nonpayable",
      "type": "function"
    },
    {
      "inputs": [
        {
          "internalType": "uint256",
          "name": "",
          "type": "uint256"
        }
      ],
      "name": "listings",
      "outputs": [
        {
          "internalType": "uint256",
          "name": "listingId",
          "type": "uint256"
        },
        {
          "internalType": "address",
          "name": "seller",
          "type": "address"
        },
        {
          "internalType": "address",
          "name": "nftContract",
          "type": "address"
        },
        {
          "internalType": "uint256",
          "name": "tokenId",
          "type": "uint256"
        },
        {
          "internalType": "uint256",
          "name": "price",
          "type": "uint256"
        },
        {
          "internalType": "bool",
          "name": "isActive",
          "type": "bool"
        },
        {
          "internalType": "uint256",
          "name": "createdAt",
          "type": "uint256"
        },
        {
          "internalType": "uint256",
          "name": "expiresAt",
          "type": "uint256"
        }
      ],
      "stateMutability": "view",
      "type": "function"
    },
    {
      "inputs": [
        {
          "internalType": "address",
          "name": "",
          "type": "address"
        },
        {
          "internalType": "address",
          "name": "",
          "type": "address"
        },
        {
          "internalType": "uint256",
          "name": "",
          "type": "uint256"
        },
        {
          "internalType": "bytes",
          "name": "",
          "type": "bytes"
        }
      ],
      "name": "onERC721Received",
      "outputs": [
        {
          "internalType": "bytes4",
          "name": "",
          "type": "bytes4"
        }
      ],
      "stateMutability": "pure",
      "type": "function"
    },
    {
      "inputs": [],
      "name": "owner",
      "outputs": [
        {
          "internalType": "address",
          "name": "",
          "type": "address"
        }
      ],
      "stateMutability": "view",
      "type": "function"
    },
    {
      "inputs": [],
      "name": "platformFeePercent",
      "outputs": [
        {
          "internalType": "uint256",
          "name": "",
          "type": "uint256"
        }
      ],
      "stateMutability": "view",
      "type": "function"
    },
    {
      "inputs": [],
      "name": "renounceOwnership",
      "outputs": [],
      "stateMutability": "nonpayable",
      "type": "function"
    },
    {
      "inputs": [
        {
          "internalType": "address",
          "name": "",
          "type": "address"
        },
        {
          "internalType": "uint256",
          "name": "",
          "type": "uint256"
        }
      ],
      "name": "sellerListings",
      "outputs": [
        {
          "internalType": "uint256",
          "name": "",
          "type": "uint256"
        }
      ],
      "stateMutability": "view",
      "type": "function"
    },
    {
      "inputs": [
        {
          "internalType": "address",
          "name": "",
          "type": "address"
        },
        {
          "internalType": "uint256",
          "name": "",
          "type": "uint256"
        }
      ],
      "name": "tokenToListingId",
      "outputs": [
        {
          "internalType": "uint256",
          "name": "",
          "type": "uint256"
        }
      ],
      "stateMutability": "view",
      "type": "function"
    },
    {
      "inputs": [
        {
          "internalType": "address",
          "name": "newOwner",
          "type": "address"
        }
      ],
      "name": "transferOwnership",
      "outputs": [],
      "stateMutability": "nonpayable",
      "type": "function"
    },
    {
      "inputs": [
        {
          "internalType": "uint256",
          "name": "_listingId",
          "type": "uint256"
        },
        {
          "internalType": "uint256",
          "name": "_newPrice",
          "type": "uint256"
        }
      ],
      "name": "updateListingPrice",
      "outputs": [],
      "stateMutability": "nonpayable",
      "type": "function"
    },
    {
      "inputs": [
        {
          "internalType": "uint256",
          "name": "_newFeePercent",
          "type": "uint256"
        }
      ],
      "name": "updatePlatformFee",
      "outputs": [],
      "stateMutability": "nonpayable",
      "type": "function"
    },
    {
      "inputs": [],
      "name": "withdraw",
      "outputs": [],
      "stateMutability": "nonpayable",
      "type": "function"
    }
  ],
  "bytecode": "0x608060405260fa60065534801561001557600080fd5b50600160005561002433610029565b61007b565b600180546001600160a01b038381166001600160a01b0319831681179093556040519116919082907f8be0079c531659141344cd1fd0a4f28419497f9722a3daafe3b4186f6b6457e090600090a35050565b6117a08061008a6000396000f3fe60806040526004361061011f5760003560e01c8063715018a6116100a0578063aa0b598811610064578063aa0b598814610395578063c4604943146103b5578063de74e57b146103d5578063f2fde38b1461048e578063fbf30c35146104ae57600080fd5b8063715018a6146102ea5780637c5180be146102ff57806382102998146103375780638c639a85146103575780638da5cb5b1461036d57600080fd5b806339bbf609116100e757806339bbf6091461026a5780633ccfd60b1461027f5780635f42da091461029457806367d81740146102c157806367dd74ca146102d757600080fd5b8063054564f014610124578063107a274a14610157578063150b7a02146101e3578063248d9aa314610228578063305a67a814610248575b600080fd5b34801561013057600080fd5b5061014461013f3660046114de565b6104c3565b6040519081526020015b60405180910390f35b34801561016357600080fd5b5061017761017236600461150a565b6104f4565b60408051825181526020808401516001600160a01b0390811691830191909152838301511691810191909152606080830151908201526080808301519082015260a08083015115159082015260c0808301519082015260e091820151918101919091526101000161014e565b3480156101ef57600080fd5b5061020f6101fe366004611523565b630a85bd0160e11b95945050505050565b6040516001600160e01b0319909116815260200161014e565b34801561023457600080fd5b506101446102433660046114de565b6105d0565b34801561025457600080fd5b5061026861026336600461150a565b6105fb565b005b34801561027657600080fd5b5061014461071a565b34801561028b57600080fd5b50610268610735565b3480156102a057600080fd5b506102b46102af3660046115c2565b6107c0565b60405161014e91906115e6565b3480156102cd57600080fd5b506101446103e881565b6102686102e536600461150a565b61082c565b3480156102f657600080fd5b50610268610c56565b34801561030b57600080fd5b5061014461031a3660046114de565b600460209081526000928352604080842090915290825290205481565b34801561034357600080fd5b5061014461035236600461162a565b610c6a565b34801561036357600080fd5b5061014460065481565b34801561037957600080fd5b506001546040516001600160a01b03909116815260200161014e565b3480156103a157600080fd5b506102686103b036600461150a565b6111af565b3480156103c157600080fd5b506102686103d0366004611665565b611233565b3480156103e157600080fd5b506104456103f036600461150a565b60036020819052600091825260409091208054600182015460028301549383015460048401546005850154600686015460079096015494966001600160a01b03948516969416949293919260ff909116919088565b604080519889526001600160a01b0397881660208a0152959096169487019490945260608601929092526080850152151560a084015260c083015260e08201526101000161014e565b34801561049a57600080fd5b506102686104a93660046115c2565b611343565b3480156104ba57600080fd5b506101446113b9565b600560205281600052604060002081815481106104df57600080fd5b90600052602060002001600091509150505481565b6105506040518061010001604052806000815260200160006001600160a01b0316815260200160006001600160a01b03168152602001600081526020016000815260200160001515815260200160008152602001600081525090565b506000908152600360208181526040928390208351610100810185528154815260018201546001600160a01b039081169382019390935260028201549092169382019390935290820154606082015260048201546080820152600582015460ff16151560a0820152600682015460c082015260079091015460e082015290565b6001600160a01b03821660009081526004602090815260408083208484529091529020545b92915050565b6000818152600360205260409020600581015460ff166106365760405162461bcd60e51b815260040161062d90611687565b60405180910390fd5b60018101546001600160a01b031633148061065b57506001546001600160a01b031633145b6106b55760405162461bcd60e51b815260206004820152602560248201527f4e6f7420617574686f72697a656420746f2063616e63656c2074686973206c696044820152647374696e6760d81b606482015260840161062d565b60058101805460ff1916905560028101546001600160a01b03166000908152600460209081526040808320600385015484529091528082208290555183917f411aee90354c51b1b04cd563fcab2617142a9d50da19232d888547c8a1b7fd8a91a25050565b600061072560025490565b6107309060016116cc565b905090565b61073d6113c4565b47806107825760405162461bcd60e51b81526020600482015260146024820152734e6f2066756e647320746f20776974686472617760601b604482015260640161062d565b6001546040516001600160a01b039091169082156108fc029083906000818181858888f193505050501580156107bc573d6000803e3d6000fd5b5050565b6001600160a01b03811660009081526005602090815260409182902080548351818402810184019094528084526060939283018282801561082057602002820191906000526020600020905b81548152602001906001019080831161080c575b50505050509050919050565b61083461141e565b6000818152600360205260409020600581015460ff166108665760405162461bcd60e51b815260040161062d90611687565b6001810154336001600160a01b03909116036108c45760405162461bcd60e51b815260206004820152601b60248201527f43616e6e6f742062757920796f7572206f776e206c697374696e670000000000604482015260640161062d565b806004015434101561090f5760405162461bcd60e51b8152602060048201526014602482015273125b9cdd59999a58da595b9d081c185e5b595b9d60621b604482015260640161062d565b80600701544211156109595760405162461bcd60e51b8152602060048201526013602482015272131a5cdd1a5b99c81a185cc8195e1c1a5c9959606a1b604482015260640161062d565b6001810154600282015460038301546040516331a9108f60e11b815260048101919091526001600160a01b039283169290911690636352211e90602401602060405180830381865afa1580156109b3573d6000803e3d6000fd5b505050506040513d601f19601f820116820180604052508101906109d791906116df565b6001600160a01b031614610a2d5760405162461bcd60e51b815260206004820181905260248201527f53656c6c6572206e6f206c6f6e676572206f776e73207468697320746f6b656e604482015260640161062d565b60058101805460ff1916905560028101546001600160a01b031660009081526004602081815260408084206003860154855290915282208290556006549083015461271091610a7b916116fc565b610a859190611713565b90506000818360040154610a999190611735565b600284015460018501546003860154604051632142170760e11b81526001600160a01b039283166004820152336024820152604481019190915292935016906342842e0e90606401600060405180830381600087803b158015610afb57600080fd5b505af1158015610b0f573d6000803e3d6000fd5b505050506000821115610b58576001546040516001600160a01b039091169083156108fc029084906000818181858888f19350505050158015610b56573d6000803e3d6000fd5b505b60018301546040516001600160a01b039091169082156108fc029083906000818181858888f19350505050158015610b94573d6000803e3d6000fd5b508260040154341115610be057600483015433906108fc90610bb69034611735565b6040518115909202916000818181858888f19350505050158015610bde573d6000803e3d6000fd5b505b6001830154600284015460038501546004860154604080516001600160a01b03948516815260208101939093528201523392919091169086907f163027a757873e3a5e5c515b2ba3e2ca42d1cbdbae0059ec30ca985ba93315f29060600160405180910390a4505050610c536001600055565b50565b610c5e6113c4565b610c686000611477565b565b6000610c7461141e565b60008311610cc45760405162461bcd60e51b815260206004820152601c60248201527f5072696365206d7573742062652067726561746572207468616e203000000000604482015260640161062d565b428211610d135760405162461bcd60e51b815260206004820181905260248201527f45787069726174696f6e206d75737420626520696e2074686520667574757265604482015260640161062d565b6040516331a9108f60e11b81526004810185905233906001600160a01b03871690636352211e90602401602060405180830381865afa158015610d5a573d6000803e3d6000fd5b505050506040513d601f19601f82011682018060405250810190610d7e91906116df565b6001600160a01b031614610dd45760405162461bcd60e51b815260206004820152601b60248201527f4e6f7420746865206f776e6572206f66207468697320746f6b656e0000000000604482015260640161062d565b60405163e985e9c560e01b81523360048201523060248201526001600160a01b0386169063e985e9c590604401602060405180830381865afa158015610e1e573d6000803e3d6000fd5b505050506040513d601f19601f82011682018060405250810190610e429190611748565b80610ebe575060405163020604bf60e21b81526004810185905230906001600160a01b0387169063081812fc90602401602060405180830381865afa158015610e8f573d6000803e3d6000fd5b505050506040513d601f19601f82011682018060405250810190610eb391906116df565b6001600160a01b0316145b610f1f5760405162461bcd60e51b815260206004820152602c60248201527f436f6e7472616374206e6f7420617070726f76656420746f207472616e73666560448201526b39103a3434b9903a37b5b2b760a11b606482015260840161062d565b6001600160a01b038516600090815260046020908152604080832087845290915290205415610f875760405162461bcd60e51b8152602060048201526014602482015273151bdad95b88185b1c9958591e481b1a5cdd195960621b604482015260640161062d565b610f95600280546001019055565b6000610fa060025490565b9050604051806101000160405280828152602001336001600160a01b03168152602001876001600160a01b0316815260200186815260200185815260200160011515815260200142815260200184815250600360008381526020019081526020016000206000820151816000015560208201518160010160006101000a8154816001600160a01b0302191690836001600160a01b0316021790555060408201518160020160006101000a8154816001600160a01b0302191690836001600160a01b03160217905550606082015181600301556080820151816004015560a08201518160050160006101000a81548160ff02191690831515021790555060c0820151816006015560e082015181600701559050508060046000886001600160a01b03166001600160a01b0316815260200190815260200160002060008781526020019081526020016000208190555060056000336001600160a01b03166001600160a01b03168152602001908152602001600020819080600181540180825580915050600190039060005260206000200160009091909190915055856001600160a01b0316336001600160a01b0316827f10ccd3db64e020bee1072a945d7979da170049ee93d58b34838cbd6feac14634888888604051611193939291909283526020830191909152604082015260600190565b60405180910390a490506111a76001600055565b949350505050565b6111b76113c4565b6103e88111156111f85760405162461bcd60e51b815260206004820152600c60248201526b08ccaca40e8dede40d0d2ced60a31b604482015260640161062d565b60068190556040518181527f45610d581145924dd7090a5017e5f2b1d6f42213bb2e95707ff86846bbfcb1ca9060200160405180910390a150565b6000828152600360205260409020600581015460ff166112655760405162461bcd60e51b815260040161062d90611687565b60018101546001600160a01b031633146112b25760405162461bcd60e51b815260206004820152600e60248201526d2737ba103a34329039b2b63632b960911b604482015260640161062d565b600082116113025760405162461bcd60e51b815260206004820152601c60248201527f5072696365206d7573742062652067726561746572207468616e203000000000604482015260640161062d565b6004810182905560405182815283907f66bcde9f7aec9b81719a4fdec54cbafbf6c834d1f2f989d9cd2134dab8d0c0de9060200160405180910390a2505050565b61134b6113c4565b6001600160a01b0381166113b05760405162461bcd60e51b815260206004820152602660248201527f4f776e61626c653a206e6577206f776e657220697320746865207a65726f206160448201526564647265737360d01b606482015260840161062d565b610c5381611477565b600061073060025490565b6001546001600160a01b03163314610c685760405162461bcd60e51b815260206004820181905260248201527f4f776e61626c653a2063616c6c6572206973206e6f7420746865206f776e6572604482015260640161062d565b6002600054036114705760405162461bcd60e51b815260206004820152601f60248201527f5265656e7472616e637947756172643a207265656e7472616e742063616c6c00604482015260640161062d565b6002600055565b600180546001600160a01b038381166001600160a01b0319831681179093556040519116919082907f8be0079c531659141344cd1fd0a4f28419497f9722a3daafe3b4186f6b6457e090600090a35050565b6001600160a01b0381168114610c5357600080fd5b600080604083850312156114f157600080fd5b82356114fc816114c9565b946020939093013593505050565b60006020828403121561151c57600080fd5b5035919050565b60008060008060006080868803121561153b57600080fd5b8535611546816114c9565b94506020860135611556816114c9565b935060408601359250606086013567ffffffffffffffff8082111561157a57600080fd5b818801915088601f83011261158e57600080fd5b81358181111561159d57600080fd5b8960208285010111156115af57600080fd5b9699959850939650602001949392505050565b6000602082840312156115d457600080fd5b81356115df816114c9565b9392505050565b6020808252825182820181905260009190848201906040850190845b8181101561161e57835183529284019291840191600101611602565b50909695505050505050565b6000806000806080858703121561164057600080fd5b843561164b816114c9565b966020860135965060408601359560600135945092505050565b6000806040838503121561167857600080fd5b50508035926020909101359150565b6020808252601590820152744c697374696e67206973206e6f742061637469766560581b604082015260600190565b634e487b7160e01b600052601160045260246000fd5b808201808211156105f5576105f56116b6565b6000602082840312156116f157600080fd5b81516115df816114c9565b80820281158282048414176105f5576105f56116b6565b60008261173057634e487b7160e01b600052601260045260246000fd5b500490565b818103818111156105f5576105f56116b6565b60006020828403121561175a57600080fd5b815180151581146115df57600080fdfea264697066735822122099c87071ee47c9908226e3a72ed38cb0ce354c413a1a65e12ab9fbd4b08e78de64736f6c63430008130033",
  "linkReferences": {},
  "deployedLinkReferences": {}
}