{
  "_format": "hh-sol-artifact-1",
  "contractName": "TicketFactory",
  "sourceName": "contracts/TicketFactory.sol",
  "abi": [
    {
      "inputs": [
        {
          "internalType": "address",
          "name": "_ticketNFT",
          "type": "address"
        }
      ],
      "stateMutability": "nonpayable",
      "type": "constructor"
    },
    {
      "anonymous": false,
      "inputs": [
        {
          "indexed": true,
          "internalType": "uint256",
          "name": "eventId",
          "type": "uint256"
        },
        {
          "indexed": true,
          "internalType": "address",
          "name": "organizer",
          "type": "address"
        },
        {
          "indexed": false,
          "internalType": "string",
          "name": "name",
          "type": "string"
        },
        {
          "indexed": false,
          "internalType": "uint256",
          "name": "eventDate",
          "type": "uint256"
        }
      ],
      "name": "EventCreated",
      "type": "event"
    },
    {
      "anonymous": false,
      "inputs": [
        {
          "indexed": true,
          "internalType": "uint256",
          "name": "eventId",
          "type": "uint256"
        },
        {
          "indexed": false,
          "internalType": "string",
          "name": "name",
          "type": "string"
        },
        {
          "indexed": false,
          "internalType": "bool",
          "name": "isActive",
          "type": "bool"
        }
      ],
      "name": "EventUpdated",
      "type": "event"
    },
    {
      "anonymous": false,
      "inputs": [
        {
          "indexed": true,
          "internalType": "address",
          "name": "previousOwner",
          "type": "address"
        },
        {
          "indexed": true,
          "internalType": "address",
          "name": "newOwner",
          "type": "address"
        }
      ],
      "name": "OwnershipTransferred",
      "type": "event"
    },
    {
      "anonymous": false,
      "inputs": [
        {
          "indexed": false,
          "internalType": "address",
          "name": "account",
          "type": "address"
        }
      ],
      "name": "Paused",
      "type": "event"
    },
    {
      "anonymous": false,
      "inputs": [
        {
          "indexed": false,
          "internalType": "uint256",
          "name": "newFeePercent",
          "type": "uint256"
        }
      ],
      "name": "PlatformFeeUpdated",
      "type": "event"
    },
    {
      "anonymous": false,
      "inputs": [
        {
          "indexed": true,
          "internalType": "uint256",
          "name": "eventId",
          "type": "uint256"
        },
        {
          "indexed": true,
          "internalType": "uint256",
          "name": "ticketTypeId",
          "type": "uint256"
        },
        {
          "indexed": false,
          "internalType": "string",
          "name": "name",
          "type": "string"
        },
        {
          "indexed": false,
          "internalType": "uint256",
          "name": "price",
          "type": "uint256"
        },
        {
          "indexed": false,
          "internalType": "uint256",
          "name": "maxSupply",
          "type": "uint256"
        }
      ],
      "name": "TicketTypeAdded",
      "type": "event"
    },
    {
      "anonymous": false,
      "inputs": [
        {
          "indexed": true,
          "internalType": "uint256",
          "name": "eventId",
          "type": "uint256"
        },
        {
          "indexed": true,
          "internalType": "uint256",
          "name": "ticketTypeId",
          "type": "uint256"
        },
        {
          "indexed": true,
          "internalType": "address",
          "name": "buyer",
          "type": "address"
        },
        {
          "indexed": false,
          "internalType": "uint256",
          "name": "quantity",
          "type": "uint256"
        },
        {
          "indexed": false,
          "internalType": "uint256",
          "name": "totalCost",
          "type": "uint256"
        }
      ],
      "name": "TicketsMinted",
      "type": "event"
    },
    {
      "anonymous": false,
      "inputs": [
        {
          "indexed": false,
          "internalType": "address",
          "name": "account",
          "type": "address"
        }
      ],
      "name": "Unpaused",
      "type": "event"
    },
    {
      "inputs": [],
      "name": "MAX_FEE_PERCENT",
      "outputs": [
        {
          "internalType": "uint256",
          "name": "",
          "type": "uint256"
        }
      ],
      "stateMutability": "view",
      "type": "function"
    },
    {
      "inputs": [
        {
          "internalType": "uint256",
          "name": "_eventId",
          "type": "uint256"
        },
        {
          "internalType": "string",
          "name": "_name",
          "type": "string"
        },
        {
          "internalType": "string",
          "name": "_description",
          "type": "string"
        },
        {
          "internalType": "uint256",
          "name": "_price",
          "type": "uint256"
        },
        {
          "internalType": "uint256",
          "name": "_maxSupply",
          "type": "uint256"
        },
        {
          "internalType": "string",
          "name": "_metadataURI",
          "type": "string"
        },
        {
          "internalType": "string[]",
          "name": "_benefits",
          "type": "string[]"
        }
      ],
      "name": "addTicketType",
      "outputs": [],
      "stateMutability": "nonpayable",
      "type": "function"
    },
    {
      "inputs": [
        {
          "internalType": "string",
          "name": "_name",
          "type": "string"
        },
        {
          "internalType": "string",
          "name": "_description",
          "type": "string"
        },
        {
          "internalType": "uint256",
          "name": "_eventDate",
          "type": "uint256"
        },
        {
          "internalType": "string",
          "name": "_location",
          "type": "string"
        },
        {
          "internalType": "uint256",
          "name": "_totalTickets",
          "type": "uint256"
        },
        {
          "internalType": "string",
          "name": "_metadataURI",
          "type": "string"
        }
      ],
      "name": "createEvent",
      "outputs": [
        {
          "internalType": "uint256",
          "name": "",
          "type": "uint256"
        }
      ],
      "stateMutability": "nonpayable",
      "type": "function"
    },
    {
      "inputs": [],
      "name": "eventCounter",
      "outputs": [
        {
          "internalType": "uint256",
          "name": "",
          "type": "uint256"
        }
      ],
      "stateMutability": "view",
      "type": "function"
    },
    {
      "inputs": [
        {
          "internalType": "uint256",
          "name": "",
          "type": "uint256"
        }
      ],
      "name": "eventOrganizer",
      "outputs": [
        {
          "internalType": "address",
          "name": "",
          "type": "address"
        }
      ],
      "stateMutability": "view",
      "type": "function"
    },
    {
      "inputs": [
        {
          "internalType": "uint256",
          "name": "",
          "type": "uint256"
        },
        {
          "internalType": "uint256",
          "name": "",
          "type": "uint256"
        }
      ],
      "name": "eventTicketTypes",
      "outputs": [
        {
          "internalType": "string",
          "name": "name",
          "type": "string"
        },
        {
          "internalType": "string",
          "name": "description",
          "type": "string"
        },
        {
          "internalType": "uint256",
          "name": "price",
          "type": "uint256"
        },
        {
          "internalType": "uint256",
          "name": "maxSupply",
          "type": "uint256"
        },
        {
          "internalType": "uint256",
          "name": "sold",
          "type": "uint256"
        },
        {
          "internalType": "bool",
          "name": "active",
          "type": "bool"
        },
        {
          "internalType": "string",
          "name": "metadataURI",
          "type": "string"
        }
      ],
      "stateMutability": "view",
      "type": "function"
    },
    {
      "inputs": [
        {
          "internalType": "uint256",
          "name": "",
          "type": "uint256"
        }
      ],
      "name": "events",
      "outputs": [
        {
          "internalType": "uint256",
          "name": "eventId",
          "type": "uint256"
        },
        {
          "internalType": "string",
          "name": "name",
          "type": "string"
        },
        {
          "internalType": "string",
          "name": "description",
          "type": "string"
        },
        {
          "internalType": "uint256",
          "name": "eventDate",
          "type": "uint256"
        },
        {
          "internalType": "string",
          "name": "location",
          "type": "string"
        },
        {
          "internalType": "address",
          "name": "organizer",
          "type": "address"
        },
        {
          "internalType": "uint256",
          "name": "totalTickets",
          "type": "uint256"
        },
        {
          "internalType": "uint256",
          "name": "soldTickets",
          "type": "uint256"
        },
        {
          "internalType": "bool",
          "name": "isActive",
          "type": "bool"
        },
        {
          "internalType": "string",
          "name": "metadataURI",
          "type": "string"
        },
        {
          "internalType": "uint256",
          "name": "createdAt",
          "type": "uint256"
        },
        {
          "internalType": "uint256",
          "name": "ticketTypeCount",
          "type": "uint256"
        }
      ],
      "stateMutability": "view",
      "type": "function"
    },
    {
      "inputs": [
        {
          "internalType": "uint256",
          "name": "_eventId",
          "type": "uint256"
        }
      ],
      "name": "getEvent",
      "outputs": [
        {
          "components": [
            {
              "internalType": "uint256",
              "name": "eventId",
              "type": "uint256"
            },
            {
              "internalType": "string",
              "name": "name",
              "type": "string"
            },
            {
              "internalType": "string",
              "name": "description",
              "type": "string"
            },
            {
              "internalType": "uint256",
              "name": "eventDate",
              "type": "uint256"
            },
            {
              "internalType": "string",
              "name": "location",
              "type": "string"
            },
            {
              "internalType": "address",
              "name": "organizer",
              "type": "address"
            },
            {
              "internalType": "uint256",
              "name": "totalTickets",
              "type": "uint256"
            },
            {
              "internalType": "uint256",
              "name": "soldTickets",
              "type": "uint256"
            },
            {
              "internalType": "bool",
              "name": "isActive",
              "type": "bool"
            },
            {
              "internalType": "string",
              "name": "metadataURI",
              "type": "string"
            },
            {
              "internalType": "uint256",
              "name": "createdAt",
              "type": "uint256"
            },
            {
              "internalType": "uint256",
              "name": "ticketTypeCount",
              "type": "uint256"
            }
          ],
          "internalType": "struct TicketFactory.Event",
          "name": "",
          "type": "tuple"
        }
      ],
      "stateMutability": "view",
      "type": "function"
    },
    {
      "inputs": [],
      "name": "getGlobalStats",
      "outputs": [
        {
          "internalType": "uint256",
          "name": "_totalEvents",
          "type": "uint256"
        },
        {
          "internalType": "uint256",
          "name": "_totalTicketsSold",
          "type": "uint256"
        },
        {
          "internalType": "uint256",
          "name": "_activeEvents",
          "type": "uint256"
        }
      ],
      "stateMutability": "view",
      "type": "function"
    },
    {
      "inputs": [
        {
          "internalType": "address",
          "name": "_organizer",
          "type": "address"
        }
      ],
      "name": "getOrganizerEvents",
      "outputs": [
        {
          "internalType": "uint256[]",
          "name": "",
          "type": "uint256[]"
        }
      ],
      "stateMutability": "view",
      "type": "function"
    },
    {
      "inputs": [
        {
          "internalType": "uint256",
          "name": "_eventId",
          "type": "uint256"
        },
        {
          "internalType": "uint256",
          "name": "_ticketTypeId",
          "type": "uint256"
        }
      ],
      "name": "getTicketType",
      "outputs": [
        {
          "components": [
            {
              "internalType": "string",
              "name": "name",
              "type": "string"
            },
            {
              "internalType": "string",
              "name": "description",
              "type": "string"
            },
            {
              "internalType": "uint256",
              "name": "price",
              "type": "uint256"
            },
            {
              "internalType": "uint256",
              "name": "maxSupply",
              "type": "uint256"
            },
            {
              "internalType": "uint256",
              "name": "sold",
              "type": "uint256"
            },
            {
              "internalType": "bool",
              "name": "active",
              "type": "bool"
            },
            {
              "internalType": "string",
              "name": "metadataURI",
              "type": "string"
            },
            {
              "internalType": "string[]",
              "name": "benefits",
              "type": "string[]"
            }
          ],
          "internalType": "struct TicketFactory.TicketType",
          "name": "",
          "type": "tuple"
        }
      ],
      "stateMutability": "view",
      "type": "function"
    },
    {
      "inputs": [
        {
          "internalType": "uint256",
          "name": "_eventId",
          "type": "uint256"
        }
      ],
      "name": "getTicketTypeCount",
      "outputs": [
        {
          "internalType": "uint256",
          "name": "",
          "type": "uint256"
        }
      ],
      "stateMutability": "view",
      "type": "function"
    },
    {
      "inputs": [
        {
          "internalType": "uint256",
          "name": "_eventId",
          "type": "uint256"
        },
        {
          "internalType": "uint256",
          "name": "_ticketTypeId",
          "type": "uint256"
        },
        {
          "internalType": "uint256",
          "name": "_quantity",
          "type": "uint256"
        },
        {
          "internalType": "address",
          "name": "_to",
          "type": "address"
        }
      ],
      "name": "mintTickets",
      "outputs": [],
      "stateMutability": "payable",
      "type": "function"
    },
    {
      "inputs": [
        {
          "internalType": "address",
          "name": "",
          "type": "address"
        },
        {
          "internalType": "uint256",
          "name": "",
          "type": "uint256"
        }
      ],
      "name": "organizerEvents",
      "outputs": [
        {
          "internalType": "uint256",
          "name": "",
          "type": "uint256"
        }
      ],
      "stateMutability": "view",
      "type": "function"
    },
    {
      "inputs": [],
      "name": "owner",
      "outputs": [
        {
          "internalType": "address",
          "name": "",
          "type": "address"
        }
      ],
      "stateMutability": "view",
      "type": "function"
    },
    {
      "inputs": [],
      "name": "pause",
      "outputs": [],
      "stateMutability": "nonpayable",
      "type": "function"
    },
    {
      "inputs": [],
      "name": "paused",
      "outputs": [
        {
          "internalType": "bool",
          "name": "",
          "type": "bool"
        }
      ],
      "stateMutability": "view",
      "type": "function"
    },
    {
      "inputs": [],
      "name": "platformFeePercent",
      "outputs": [
        {
          "internalType": "uint256",
          "name": "",
          "type": "uint256"
        }
      ],
      "stateMutability": "view",
      "type": "function"
    },
    {
      "inputs": [],
      "name": "renounceOwnership",
      "outputs": [],
      "stateMutability": "nonpayable",
      "type": "function"
    },
    {
      "inputs": [],
      "name": "ticketNFT",
      "outputs": [
        {
          "internalType": "contract TicketNFT",
          "name": "",
          "type": "address"
        }
      ],
      "stateMutability": "view",
      "type": "function"
    },
    {
      "inputs": [],
      "name": "totalEventsCreated",
      "outputs": [
        {
          "internalType": "uint256",
          "name": "",
          "type": "uint256"
        }
      ],
      "stateMutability": "view",
      "type": "function"
    },
    {
      "inputs": [],
      "name": "totalTicketsSold",
      "outputs": [
        {
          "internalType": "uint256",
          "name": "",
          "type": "uint256"
        }
      ],
      "stateMutability": "view",
      "type": "function"
    },
    {
      "inputs": [
        {
          "internalType": "uint256",
          "name": "_eventId",
          "type": "uint256"
        },
        {
          "internalType": "address",
          "name": "_newOrganizer",
          "type": "address"
        }
      ],
      "name": "transferEventOwnership",
      "outputs": [],
      "stateMutability": "nonpayable",
      "type": "function"
    },
    {
      "inputs": [
        {
          "internalType": "address",
          "name": "newOwner",
          "type": "address"
        }
      ],
      "name": "transferOwnership",
      "outputs": [],
      "stateMutability": "nonpayable",
      "type": "function"
    },
    {
      "inputs": [],
      "name": "unpause",
      "outputs": [],
      "stateMutability": "nonpayable",
      "type": "function"
    },
    {
      "inputs": [
        {
          "internalType": "uint256",
          "name": "_eventId",
          "type": "uint256"
        },
        {
          "internalType": "string",
          "name": "_name",
          "type": "string"
        },
        {
          "internalType": "string",
          "name": "_description",
          "type": "string"
        },
        {
          "internalType": "string",
          "name": "_location",
          "type": "string"
        },
        {
          "internalType": "bool",
          "name": "_isActive",
          "type": "bool"
        }
      ],
      "name": "updateEvent",
      "outputs": [],
      "stateMutability": "nonpayable",
      "type": "function"
    },
    {
      "inputs": [
        {
          "internalType": "uint256",
          "name": "_newFeePercent",
          "type": "uint256"
        }
      ],
      "name": "updatePlatformFee",
      "outputs": [],
      "stateMutability": "nonpayable",
      "type": "function"
    },
    {
      "inputs": [
        {
          "internalType": "uint256",
          "name": "_eventId",
          "type": "uint256"
        },
        {
          "internalType": "uint256",
          "name": "_ticketTypeId",
          "type": "uint256"
        },
        {
          "internalType": "string",
          "name": "_name",
          "type": "string"
        },
        {
          "internalType": "string",
          "name": "_description",
          "type": "string"
        },
        {
          "internalType": "uint256",
          "name": "_price",
          "type": "uint256"
        },
        {
          "internalType": "bool",
          "name": "_active",
          "type": "bool"
        }
      ],
      "name": "updateTicketType",
      "outputs": [],
      "stateMutability": "nonpayable",
      "type": "function"
    },
    {
      "inputs": [],
      "name": "withdraw",
      "outputs": [],
      "stateMutability": "nonpayable",
      "type": "function"
    }
  ],
  "bytecode": "0x608060405260fa600a553480156200001657600080fd5b506040516200344a3803806200344a8339810160408190526200003991620000c3565b620000443362000073565b60018055600280546001600160a01b03909216610100026001600160a81b0319909216919091179055620000f5565b600080546001600160a01b038381166001600160a01b0319831681178455604051919092169283917f8be0079c531659141344cd1fd0a4f28419497f9722a3daafe3b4186f6b6457e09190a35050565b600060208284031215620000d657600080fd5b81516001600160a01b0381168114620000ee57600080fd5b9392505050565b61334580620001056000396000f3fe6080604052600436106101c25760003560e01c80636d1884e0116100f7578063a68d02ed11610095578063e4aa47e311610064578063e4aa47e31461051e578063ec95d2d01461053e578063f2fde38b1461056e578063ff9f59701461058e57600080fd5b8063a68d02ed1461048c578063aa0b5988146104b9578063b1fd4ed2146104d9578063b393391b146104f957600080fd5b806386f4c772116100d157806386f4c772146104185780638c639a85146104385780638da5cb5b1461044e578063990328ab1461046c57600080fd5b80636d1884e0146103c1578063715018a6146103ee5780638456cb591461040357600080fd5b8063438c31001161016457806367d817401161013e57806367d817401461031757806367db1a521461032d578063697626441461037b5780636b4169c31461039157600080fd5b8063438c3100146102be57806352c55db9146102de5780635c975abb146102f457600080fd5b806334701db8116101a057806334701db81461024b578063365f6281146102615780633ccfd60b146102945780633f4ba83a146102a957600080fd5b80630b791430146101c757806311fa5bee146102085780631f2d6ea014610236575b600080fd5b3480156101d357600080fd5b506101e76101e2366004612657565b6105bb565b6040516101ff9c9b9a999897969594939291906126b6565b60405180910390f35b34801561021457600080fd5b5061022861022336600461280e565b610846565b6040519081526020016101ff565b6102496102443660046128e9565b610b45565b005b34801561025757600080fd5b5061022860095481565b34801561026d57600080fd5b5061028161027c366004612928565b61105a565b6040516101ff979695949392919061294a565b3480156102a057600080fd5b5061024961123f565b3480156102b557600080fd5b506102496112c9565b3480156102ca57600080fd5b506102496102d93660046129bb565b6112db565b3480156102ea57600080fd5b5061022860075481565b34801561030057600080fd5b5060025460ff1660405190151581526020016101ff565b34801561032357600080fd5b506102286103e881565b34801561033957600080fd5b50610363610348366004612657565b6006602052600090815260409020546001600160a01b031681565b6040516001600160a01b0390911681526020016101ff565b34801561038757600080fd5b5061022860085481565b34801561039d57600080fd5b506103a661142e565b604080519384526020840192909252908201526060016101ff565b3480156103cd57600080fd5b506103e16103dc366004612657565b61149f565b6040516101ff9190612a5e565b3480156103fa57600080fd5b506102496117de565b34801561040f57600080fd5b506102496117f0565b34801561042457600080fd5b50610249610433366004612b5a565b611800565b34801561044457600080fd5b50610228600a5481565b34801561045a57600080fd5b506000546001600160a01b0316610363565b34801561047857600080fd5b50610249610487366004612c25565b6119dc565b34801561049857600080fd5b506104ac6104a7366004612928565b611cd3565b6040516101ff9190612d44565b3480156104c557600080fd5b506102496104d4366004612657565b61203a565b3480156104e557600080fd5b506102496104f4366004612df8565b6120be565b34801561050557600080fd5b506002546103639061010090046001600160a01b031681565b34801561052a57600080fd5b50610228610539366004612e88565b612263565b34801561054a57600080fd5b50610228610559366004612657565b6000908152600360205260409020600b015490565b34801561057a57600080fd5b50610249610589366004612eb2565b612294565b34801561059a57600080fd5b506105ae6105a9366004612eb2565b61230d565b6040516101ff9190612ed4565b600360205260009081526040902080546001820180549192916105dd90612f18565b80601f016020809104026020016040519081016040528092919081815260200182805461060990612f18565b80156106565780601f1061062b57610100808354040283529160200191610656565b820191906000526020600020905b81548152906001019060200180831161063957829003601f168201915b50505050509080600201805461066b90612f18565b80601f016020809104026020016040519081016040528092919081815260200182805461069790612f18565b80156106e45780601f106106b9576101008083540402835291602001916106e4565b820191906000526020600020905b8154815290600101906020018083116106c757829003601f168201915b5050505050908060030154908060040180546106ff90612f18565b80601f016020809104026020016040519081016040528092919081815260200182805461072b90612f18565b80156107785780601f1061074d57610100808354040283529160200191610778565b820191906000526020600020905b81548152906001019060200180831161075b57829003601f168201915b505050600584015460068501546007860154600887015460098801805497986001600160a01b039095169793965091945060ff1692916107b790612f18565b80601f01602080910402602001604051908101604052809291908181526020018280546107e390612f18565b80156108305780601f1061080557610100808354040283529160200191610830565b820191906000526020600020905b81548152906001019060200180831161081357829003601f168201915b50505050509080600a01549080600b015490508c565b6000610850612379565b4285116108a45760405162461bcd60e51b815260206004820181905260248201527f4576656e742064617465206d75737420626520696e207468652066757475726560448201526064015b60405180910390fd5b600083116109005760405162461bcd60e51b8152602060048201526024808201527f546f74616c207469636b657473206d75737420626520677265617465722074686044820152630616e20360e41b606482015260840161089b565b60008751116109515760405162461bcd60e51b815260206004820152601a60248201527f4576656e74206e616d652063616e6e6f7420626520656d707479000000000000604482015260640161089b565b6007805490600061096183612f68565b9091555050600754604080516101808101825282815260208082018b81528284018b9052606083018a9052608083018990523360a084015260c08301889052600060e08401819052600161010085018190526101208501899052426101408601526101608501829052868252600390935293909320825181559251919291908201906109ed9082612fd0565b5060408201516002820190610a029082612fd0565b506060820151600382015560808201516004820190610a219082612fd0565b5060a08201516005820180546001600160a01b0319166001600160a01b0390921691909117905560c0820151600682015560e0820151600782015561010082015160088201805460ff19169115159190911790556101208201516009820190610a8a9082612fd0565b50610140820151600a82015561016090910151600b909101553360008181526005602090815260408083208054600181018255908452828420018590558483526006909152812080546001600160a01b0319169092179091556008805491610af183612f68565b9190505550336001600160a01b0316817f56acb10c6ecae7e178ece5d22c2f0346efb606427ea6a15f96904d0ceec03d1d8a89604051610b32929190613090565b60405180910390a3979650505050505050565b610b4d6123bf565b610b55612379565b60008211610ba55760405162461bcd60e51b815260206004820152601f60248201527f5175616e74697479206d7573742062652067726561746572207468616e203000604482015260640161089b565b6001600160a01b038116610bfb5760405162461bcd60e51b815260206004820152601960248201527f496e76616c696420726563697069656e74206164647265737300000000000000604482015260640161089b565b60008481526003602052604090206008015460ff16610c525760405162461bcd60e51b81526020600482015260136024820152724576656e74206973206e6f742061637469766560681b604482015260640161089b565b6000848152600360205260409020600b01548310610c825760405162461bcd60e51b815260040161089b906130b2565b60008481526004602090815260408083208684529091529020600581015460ff16610ce85760405162461bcd60e51b81526020600482015260166024820152755469636b65742074797065206e6f742061637469766560501b604482015260640161089b565b8060030154838260040154610cfd91906130df565b1115610d405760405162461bcd60e51b815260206004820152601260248201527145786365656473206d617820737570706c7960701b604482015260640161089b565b60008581526003602052604090206006810154600790910154610d649085906130df565b1115610da35760405162461bcd60e51b815260206004820152600e60248201526d115d995b9d081cdbdb19081bdd5d60921b604482015260640161089b565b6000838260020154610db591906130f2565b905080341015610dfe5760405162461bcd60e51b8152602060048201526014602482015273125b9cdd59999a58da595b9d081c185e5b595b9d60621b604482015260640161089b565b83826004016000828254610e1291906130df565b909155505060008681526003602052604081206007018054869290610e389084906130df565b925050819055508360096000828254610e5191906130df565b90915550600090505b84811015610f0257600280549084015460405163fc8c1b9b60e01b81526101009092046001600160a01b03169163fc8c1b9b9190610eac9088908c908c90859060078c019060068d0190600401613186565b60206040518083038185885af1158015610eca573d6000803e3d6000fd5b50505050506040513d601f19601f82011682018060405250810190610eef9190613224565b5080610efa81612f68565b915050610e5a565b506000612710600a5483610f1691906130f2565b610f20919061323d565b90506000610f2e828461325f565b90508115610f7157600080546040516001600160a01b039091169184156108fc02918591818181858888f19350505050158015610f6f573d6000803e3d6000fd5b505b6000888152600360205260408082206005015490516001600160a01b039091169183156108fc02918491818181858888f19350505050158015610fb8573d6000803e3d6000fd5b5082341115610ff957336108fc610fcf853461325f565b6040518115909202916000818181858888f19350505050158015610ff7573d6000803e3d6000fd5b505b846001600160a01b031687897f5512c5ea4b3362d292db28f5a081328ef59f062896602b817e95690614ecd749898760405161103f929190918252602082015260400190565b60405180910390a45050505061105460018055565b50505050565b600460209081526000928352604080842090915290825290208054819061108090612f18565b80601f01602080910402602001604051908101604052809291908181526020018280546110ac90612f18565b80156110f95780601f106110ce576101008083540402835291602001916110f9565b820191906000526020600020905b8154815290600101906020018083116110dc57829003601f168201915b50505050509080600101805461110e90612f18565b80601f016020809104026020016040519081016040528092919081815260200182805461113a90612f18565b80156111875780601f1061115c57610100808354040283529160200191611187565b820191906000526020600020905b81548152906001019060200180831161116a57829003601f168201915b50505060028401546003850154600486015460058701546006880180549798949793965091945060ff1692916111bc90612f18565b80601f01602080910402602001604051908101604052809291908181526020018280546111e890612f18565b80156112355780601f1061120a57610100808354040283529160200191611235565b820191906000526020600020905b81548152906001019060200180831161121857829003601f168201915b5050505050905087565b611247612418565b478061128c5760405162461bcd60e51b81526020600482015260146024820152734e6f2066756e647320746f20776974686472617760601b604482015260640161089b565b600080546040516001600160a01b039091169183156108fc02918491818181858888f193505050501580156112c5573d6000803e3d6000fd5b5050565b6112d1612418565b6112d9612472565b565b6000858152600360205260409020600501546001600160a01b031633148061130d57506000546001600160a01b031633145b6113295760405162461bcd60e51b815260040161089b90613272565b600084511161137a5760405162461bcd60e51b815260206004820152601a60248201527f4576656e74206e616d652063616e6e6f7420626520656d707479000000000000604482015260640161089b565b60008581526003602052604090206001016113958582612fd0565b5060008581526003602052604090206002016113b18482612fd0565b5060008581526003602052604090206004016113cd8382612fd0565b5060008581526003602052604090819020600801805460ff19168315151790555185907fa556c7a7c1dd886e8b9f27c9ad4e2af946d6b8057971b7ae5c7d1586afd4c5b19061141f908790859061329a565b60405180910390a25050505050565b600854600954600060015b60075481116114995760008181526003602052604090206008015460ff16801561147457506000818152600360208190526040909120015442105b15611487578161148381612f68565b9250505b8061149181612f68565b915050611439565b50909192565b61150e604051806101800160405280600081526020016060815260200160608152602001600081526020016060815260200160006001600160a01b0316815260200160008152602001600081526020016000151581526020016060815260200160008152602001600081525090565b60036000838152602001908152602001600020604051806101800160405290816000820154815260200160018201805461154790612f18565b80601f016020809104026020016040519081016040528092919081815260200182805461157390612f18565b80156115c05780601f10611595576101008083540402835291602001916115c0565b820191906000526020600020905b8154815290600101906020018083116115a357829003601f168201915b505050505081526020016002820180546115d990612f18565b80601f016020809104026020016040519081016040528092919081815260200182805461160590612f18565b80156116525780601f1061162757610100808354040283529160200191611652565b820191906000526020600020905b81548152906001019060200180831161163557829003601f168201915b505050505081526020016003820154815260200160048201805461167590612f18565b80601f01602080910402602001604051908101604052809291908181526020018280546116a190612f18565b80156116ee5780601f106116c3576101008083540402835291602001916116ee565b820191906000526020600020905b8154815290600101906020018083116116d157829003601f168201915b505050918352505060058201546001600160a01b031660208201526006820154604082015260078201546060820152600882015460ff161515608082015260098201805460a09092019161174190612f18565b80601f016020809104026020016040519081016040528092919081815260200182805461176d90612f18565b80156117ba5780601f1061178f576101008083540402835291602001916117ba565b820191906000526020600020905b81548152906001019060200180831161179d57829003601f168201915b50505050508152602001600a8201548152602001600b820154815250509050919050565b6117e6612418565b6112d960006124c4565b6117f8612418565b6112d9612514565b6000828152600360205260409020600501546001600160a01b031633146118695760405162461bcd60e51b815260206004820152601760248201527f4e6f7420746865206576656e74206f7267616e697a6572000000000000000000604482015260640161089b565b6001600160a01b0381166118b75760405162461bcd60e51b815260206004820152601560248201527424b73b30b634b2103732bb9037b933b0b734bd32b960591b604482015260640161089b565b336000908152600560205260408120905b815481101561197c57838282815481106118e4576118e46132be565b90600052602060002001540361196a57815482906119049060019061325f565b81548110611914576119146132be565b9060005260206000200154828281548110611931576119316132be565b90600052602060002001819055508180548061194f5761194f6132d4565b6001900381819060005260206000200160009055905561197c565b8061197481612f68565b9150506118c8565b50506001600160a01b031660008181526005602081815260408084208054600181018255908552828520018690559483526003815284832090910180546001600160a01b0319908116851790915560069091529290208054909216179055565b6119e4612379565b6000878152600360205260409020600501546001600160a01b0316331480611a1657506000546001600160a01b031633145b611a325760405162461bcd60e51b815260040161089b90613272565b60008781526003602052604090206008015460ff16611a895760405162461bcd60e51b81526020600482015260136024820152724576656e74206973206e6f742061637469766560681b604482015260640161089b565b60008311611ae35760405162461bcd60e51b815260206004820152602160248201527f4d617820737570706c79206d7573742062652067726561746572207468616e206044820152600360fc1b606482015260840161089b565b60008411611b335760405162461bcd60e51b815260206004820152601c60248201527f5072696365206d7573742062652067726561746572207468616e203000000000604482015260640161089b565b6000865111611b845760405162461bcd60e51b815260206004820181905260248201527f5469636b65742074797065206e616d652063616e6e6f7420626520656d707479604482015260640161089b565b6000878152600360205260408120600b01805491829190611ba483612f68565b90915550506040805161010081018252888152602080820189905281830188905260608201879052600060808301819052600160a084015260c0830187905260e083018690528b8152600482528381208582529091529190912081518190611c0c9082612fd0565b5060208201516001820190611c219082612fd0565b5060408201516002820155606082015160038201556080820151600482015560a082015160058201805460ff191691151591909117905560c08201516006820190611c6c9082612fd0565b5060e08201518051611c8891600784019160209091019061259a565b5090505080887f766363e141a90ab2ab87c4d5ab572d5df3ac4b4e6cd8228f13b6a56b02d8c5c6898888604051611cc1939291906132ea565b60405180910390a35050505050505050565b611d1d604051806101000160405280606081526020016060815260200160008152602001600081526020016000815260200160001515815260200160608152602001606081525090565b6000838152600360205260409020600b01548210611d4d5760405162461bcd60e51b815260040161089b906130b2565b60008381526004602090815260408083208584529091529081902081516101008101909252805482908290611d8190612f18565b80601f0160208091040260200160405190810160405280929190818152602001828054611dad90612f18565b8015611dfa5780601f10611dcf57610100808354040283529160200191611dfa565b820191906000526020600020905b815481529060010190602001808311611ddd57829003601f168201915b50505050508152602001600182018054611e1390612f18565b80601f0160208091040260200160405190810160405280929190818152602001828054611e3f90612f18565b8015611e8c5780601f10611e6157610100808354040283529160200191611e8c565b820191906000526020600020905b815481529060010190602001808311611e6f57829003601f168201915b5050509183525050600282015460208201526003820154604082015260048201546060820152600582015460ff161515608082015260068201805460a090920191611ed690612f18565b80601f0160208091040260200160405190810160405280929190818152602001828054611f0290612f18565b8015611f4f5780601f10611f2457610100808354040283529160200191611f4f565b820191906000526020600020905b815481529060010190602001808311611f3257829003601f168201915b5050505050815260200160078201805480602002602001604051908101604052809291908181526020016000905b82821015612029578382906000526020600020018054611f9c90612f18565b80601f0160208091040260200160405190810160405280929190818152602001828054611fc890612f18565b80156120155780601f10611fea57610100808354040283529160200191612015565b820191906000526020600020905b815481529060010190602001808311611ff857829003601f168201915b505050505081526020019060010190611f7d565b505050508152505090505b92915050565b612042612418565b6103e88111156120835760405162461bcd60e51b815260206004820152600c60248201526b08ccaca40e8dede40d0d2ced60a31b604482015260640161089b565b600a8190556040518181527f45610d581145924dd7090a5017e5f2b1d6f42213bb2e95707ff86846bbfcb1ca9060200160405180910390a150565b6000868152600360205260409020600501546001600160a01b03163314806120f057506000546001600160a01b031633145b61210c5760405162461bcd60e51b815260040161089b90613272565b6000868152600360205260409020600b0154851061213c5760405162461bcd60e51b815260040161089b906130b2565b6000821161218c5760405162461bcd60e51b815260206004820152601c60248201527f5072696365206d7573742062652067726561746572207468616e203000000000604482015260640161089b565b60008451116121dd5760405162461bcd60e51b815260206004820181905260248201527f5469636b65742074797065206e616d652063616e6e6f7420626520656d707479604482015260640161089b565b600086815260046020908152604080832088845290915290206122008582612fd0565b50600086815260046020908152604080832088845290915290206001016122278482612fd0565b50600095865260046020908152604080882096885295905293909420600281019490945550506005909101805460ff1916911515919091179055565b6005602052816000526040600020818154811061227f57600080fd5b90600052602060002001600091509150505481565b61229c612418565b6001600160a01b0381166123015760405162461bcd60e51b815260206004820152602660248201527f4f776e61626c653a206e6577206f776e657220697320746865207a65726f206160448201526564647265737360d01b606482015260840161089b565b61230a816124c4565b50565b6001600160a01b03811660009081526005602090815260409182902080548351818402810184019094528084526060939283018282801561236d57602002820191906000526020600020905b815481526020019060010190808311612359575b50505050509050919050565b60025460ff16156112d95760405162461bcd60e51b815260206004820152601060248201526f14185d5cd8589b194e881c185d5cd95960821b604482015260640161089b565b6002600154036124115760405162461bcd60e51b815260206004820152601f60248201527f5265656e7472616e637947756172643a207265656e7472616e742063616c6c00604482015260640161089b565b6002600155565b6000546001600160a01b031633146112d95760405162461bcd60e51b815260206004820181905260248201527f4f776e61626c653a2063616c6c6572206973206e6f7420746865206f776e6572604482015260640161089b565b61247a612551565b6002805460ff191690557f5db9ee0a495bf2e6ff9c91a7834c1ba4fdd244a5e8aa4e537bd38aeae4b073aa335b6040516001600160a01b03909116815260200160405180910390a1565b600080546001600160a01b038381166001600160a01b0319831681178455604051919092169283917f8be0079c531659141344cd1fd0a4f28419497f9722a3daafe3b4186f6b6457e09190a35050565b61251c612379565b6002805460ff191660011790557f62e78cea01bee320cd4e420270b5ea74000d11b0c9f74754ebdbfc544b05a2586124a73390565b60025460ff166112d95760405162461bcd60e51b815260206004820152601460248201527314185d5cd8589b194e881b9bdd081c185d5cd95960621b604482015260640161089b565b8280548282559060005260206000209081019282156125e0579160200282015b828111156125e057825182906125d09082612fd0565b50916020019190600101906125ba565b506125ec9291506125f0565b5090565b808211156125ec576000612604828261260d565b506001016125f0565b50805461261990612f18565b6000825580601f10612629575050565b601f01602090049060005260206000209081019061230a91905b808211156125ec5760008155600101612643565b60006020828403121561266957600080fd5b5035919050565b6000815180845260005b818110156126965760208185018101518683018201520161267a565b506000602082860101526020601f19601f83011685010191505092915050565b60006101808e83528060208401526126d08184018f612670565b905082810360408401526126e4818e612670565b90508b606084015282810360808401526126fe818c612670565b6001600160a01b038b1660a085015260c084018a905260e0840189905287151561010085015283810361012085015290506127398187612670565b610140840195909552505061016001529a9950505050505050505050565b634e487b7160e01b600052604160045260246000fd5b604051601f8201601f1916810167ffffffffffffffff8111828210171561279657612796612757565b604052919050565b600082601f8301126127af57600080fd5b813567ffffffffffffffff8111156127c9576127c9612757565b6127dc601f8201601f191660200161276d565b8181528460208386010111156127f157600080fd5b816020850160208301376000918101602001919091529392505050565b60008060008060008060c0878903121561282757600080fd5b863567ffffffffffffffff8082111561283f57600080fd5b61284b8a838b0161279e565b9750602089013591508082111561286157600080fd5b61286d8a838b0161279e565b965060408901359550606089013591508082111561288a57600080fd5b6128968a838b0161279e565b94506080890135935060a08901359150808211156128b357600080fd5b506128c089828a0161279e565b9150509295509295509295565b80356001600160a01b03811681146128e457600080fd5b919050565b600080600080608085870312156128ff57600080fd5b84359350602085013592506040850135915061291d606086016128cd565b905092959194509250565b6000806040838503121561293b57600080fd5b50508035926020909101359150565b60e08152600061295d60e083018a612670565b828103602084015261296f818a612670565b905087604084015286606084015285608084015284151560a084015282810360c084015261299d8185612670565b9a9950505050505050505050565b803580151581146128e457600080fd5b600080600080600060a086880312156129d357600080fd5b85359450602086013567ffffffffffffffff808211156129f257600080fd5b6129fe89838a0161279e565b95506040880135915080821115612a1457600080fd5b612a2089838a0161279e565b94506060880135915080821115612a3657600080fd5b50612a438882890161279e565b925050612a52608087016129ab565b90509295509295909350565b602081528151602082015260006020830151610180806040850152612a876101a0850183612670565b91506040850151601f1980868503016060870152612aa58483612670565b93506060870151608087015260808701519150808685030160a0870152612acc8483612670565b935060a08701519150612aea60c08701836001600160a01b03169052565b60c087015160e087015260e08701519150610100828188015280880151925050610120612b1a8188018415159052565b80880151925050610140818786030181880152612b378584612670565b908801516101608881019190915290970151929095019190915250929392505050565b60008060408385031215612b6d57600080fd5b82359150612b7d602084016128cd565b90509250929050565b600082601f830112612b9757600080fd5b8135602067ffffffffffffffff80831115612bb457612bb4612757565b8260051b612bc383820161276d565b9384528581018301938381019088861115612bdd57600080fd5b84880192505b85831015612c1957823584811115612bfb5760008081fd5b612c098a87838c010161279e565b8352509184019190840190612be3565b98975050505050505050565b600080600080600080600060e0888a031215612c4057600080fd5b87359650602088013567ffffffffffffffff80821115612c5f57600080fd5b612c6b8b838c0161279e565b975060408a0135915080821115612c8157600080fd5b612c8d8b838c0161279e565b965060608a0135955060808a0135945060a08a0135915080821115612cb157600080fd5b612cbd8b838c0161279e565b935060c08a0135915080821115612cd357600080fd5b50612ce08a828b01612b86565b91505092959891949750929550565b600081518084526020808501808196508360051b8101915082860160005b85811015612d37578284038952612d25848351612670565b98850198935090840190600101612d0d565b5091979650505050505050565b6020815260008251610100806020850152612d63610120850183612670565b91506020850151601f1980868503016040870152612d818483612670565b93506040870151606087015260608701516080870152608087015160a087015260a08701519150612db660c087018315159052565b60c08701519150808685030160e0870152612dd18483612670565b935060e0870151915080868503018387015250612dee8382612cef565b9695505050505050565b60008060008060008060c08789031215612e1157600080fd5b8635955060208701359450604087013567ffffffffffffffff80821115612e3757600080fd5b612e438a838b0161279e565b95506060890135915080821115612e5957600080fd5b50612e6689828a0161279e565b93505060808701359150612e7c60a088016129ab565b90509295509295509295565b60008060408385031215612e9b57600080fd5b612ea4836128cd565b946020939093013593505050565b600060208284031215612ec457600080fd5b612ecd826128cd565b9392505050565b6020808252825182820181905260009190848201906040850190845b81811015612f0c57835183529284019291840191600101612ef0565b50909695505050505050565b600181811c90821680612f2c57607f821691505b602082108103612f4c57634e487b7160e01b600052602260045260246000fd5b50919050565b634e487b7160e01b600052601160045260246000fd5b600060018201612f7a57612f7a612f52565b5060010190565b601f821115612fcb57600081815260208120601f850160051c81016020861015612fa85750805b601f850160051c820191505b81811015612fc757828155600101612fb4565b5050505b505050565b815167ffffffffffffffff811115612fea57612fea612757565b612ffe81612ff88454612f18565b84612f81565b602080601f831160018114613033576000841561301b5750858301515b600019600386901b1c1916600185901b178555612fc7565b600085815260208120601f198616915b8281101561306257888601518255948401946001909101908401613043565b50858210156130805787850151600019600388901b60f8161c191681555b5050505050600190811b01905550565b6040815260006130a36040830185612670565b90508260208301529392505050565b602080825260139082015272496e76616c6964207469636b6574207479706560681b604082015260600190565b8082018082111561203457612034612f52565b808202811582820484141761203457612034612f52565b6000815461311681612f18565b808552602060018381168015613133576001811461314d5761317b565b60ff1985168884015283151560051b88018301955061317b565b866000528260002060005b858110156131735781548a8201860152908301908401613158565b890184019650505b505050505092915050565b600060c0820160018060a01b03891683526020888185015287604085015286606085015260c0608085015281865480845260e08601915060e08160051b8701019350876000528260002060005b828110156132005787860360df190184526131ee8683613109565b955092840192600191820191016131d3565b505050505082810360a08401526132178185613109565b9998505050505050505050565b60006020828403121561323657600080fd5b5051919050565b60008261325a57634e487b7160e01b600052601260045260246000fd5b500490565b8181038181111561203457612034612f52565b6020808252600e908201526d139bdd08185d5d1a1bdc9a5e995960921b604082015260600190565b6040815260006132ad6040830185612670565b905082151560208301529392505050565b634e487b7160e01b600052603260045260246000fd5b634e487b7160e01b600052603160045260246000fd5b6060815260006132fd6060830186612670565b6020830194909452506040015291905056fea2646970667358221220e0598f9f368f96c90769b8ae3133b70548aa83f78be1673fb9a2f984e8a42a5764736f6c63430008130033",
  "linkReferences": {},
  "deployedLinkReferences": {}
}