{
  "_format": "hh-sol-artifact-1",
  "contractName": "SimpleTicketFactory",
  "sourceName": "contracts/SimpleTicketFactory.sol",
  "abi": [
    {
      "inputs": [
        {
          "internalType": "address",
          "name": "_ticketNFT",
          "type": "address"
        }
      ],
      "stateMutability": "nonpayable",
      "type": "constructor"
    },
    {
      "anonymous": false,
      "inputs": [
        {
          "indexed": true,
          "internalType": "uint256",
          "name": "eventId",
          "type": "uint256"
        },
        {
          "indexed": true,
          "internalType": "address",
          "name": "organizer",
          "type": "address"
        },
        {
          "indexed": false,
          "internalType": "string",
          "name": "name",
          "type": "string"
        }
      ],
      "name": "EventCreated",
      "type": "event"
    },
    {
      "anonymous": false,
      "inputs": [
        {
          "indexed": true,
          "internalType": "address",
          "name": "previousOwner",
          "type": "address"
        },
        {
          "indexed": true,
          "internalType": "address",
          "name": "newOwner",
          "type": "address"
        }
      ],
      "name": "OwnershipTransferred",
      "type": "event"
    },
    {
      "anonymous": false,
      "inputs": [
        {
          "indexed": true,
          "internalType": "uint256",
          "name": "eventId",
          "type": "uint256"
        },
        {
          "indexed": true,
          "internalType": "uint256",
          "name": "ticketTypeId",
          "type": "uint256"
        },
        {
          "indexed": false,
          "internalType": "string",
          "name": "name",
          "type": "string"
        },
        {
          "indexed": false,
          "internalType": "uint256",
          "name": "price",
          "type": "uint256"
        }
      ],
      "name": "TicketTypeAdded",
      "type": "event"
    },
    {
      "inputs": [
        {
          "internalType": "uint256",
          "name": "eventId",
          "type": "uint256"
        },
        {
          "internalType": "string",
          "name": "name",
          "type": "string"
        },
        {
          "internalType": "uint256",
          "name": "price",
          "type": "uint256"
        },
        {
          "internalType": "uint256",
          "name": "maxSupply",
          "type": "uint256"
        }
      ],
      "name": "addTicketType",
      "outputs": [],
      "stateMutability": "nonpayable",
      "type": "function"
    },
    {
      "inputs": [
        {
          "internalType": "string",
          "name": "name",
          "type": "string"
        },
        {
          "internalType": "string",
          "name": "description",
          "type": "string"
        },
        {
          "internalType": "uint256",
          "name": "eventDate",
          "type": "uint256"
        },
        {
          "internalType": "string",
          "name": "location",
          "type": "string"
        },
        {
          "internalType": "uint256",
          "name": "totalTickets",
          "type": "uint256"
        },
        {
          "internalType": "string",
          "name": "metadataURI",
          "type": "string"
        }
      ],
      "name": "createEvent",
      "outputs": [
        {
          "internalType": "uint256",
          "name": "",
          "type": "uint256"
        }
      ],
      "stateMutability": "nonpayable",
      "type": "function"
    },
    {
      "inputs": [
        {
          "internalType": "uint256",
          "name": "",
          "type": "uint256"
        }
      ],
      "name": "eventTicketTypeCount",
      "outputs": [
        {
          "internalType": "uint256",
          "name": "",
          "type": "uint256"
        }
      ],
      "stateMutability": "view",
      "type": "function"
    },
    {
      "inputs": [
        {
          "internalType": "uint256",
          "name": "",
          "type": "uint256"
        },
        {
          "internalType": "uint256",
          "name": "",
          "type": "uint256"
        }
      ],
      "name": "eventTicketTypes",
      "outputs": [
        {
          "internalType": "string",
          "name": "name",
          "type": "string"
        },
        {
          "internalType": "uint256",
          "name": "price",
          "type": "uint256"
        },
        {
          "internalType": "uint256",
          "name": "maxSupply",
          "type": "uint256"
        },
        {
          "internalType": "uint256",
          "name": "sold",
          "type": "uint256"
        },
        {
          "internalType": "bool",
          "name": "active",
          "type": "bool"
        }
      ],
      "stateMutability": "view",
      "type": "function"
    },
    {
      "inputs": [
        {
          "internalType": "uint256",
          "name": "eventId",
          "type": "uint256"
        },
        {
          "internalType": "uint256",
          "name": "ticketTypeId",
          "type": "uint256"
        }
      ],
      "name": "getTicketType",
      "outputs": [
        {
          "internalType": "string",
          "name": "name",
          "type": "string"
        },
        {
          "internalType": "uint256",
          "name": "price",
          "type": "uint256"
        },
        {
          "internalType": "uint256",
          "name": "maxSupply",
          "type": "uint256"
        },
        {
          "internalType": "uint256",
          "name": "sold",
          "type": "uint256"
        },
        {
          "internalType": "bool",
          "name": "active",
          "type": "bool"
        }
      ],
      "stateMutability": "view",
      "type": "function"
    },
    {
      "inputs": [
        {
          "internalType": "uint256",
          "name": "eventId",
          "type": "uint256"
        }
      ],
      "name": "getTicketTypeCount",
      "outputs": [
        {
          "internalType": "uint256",
          "name": "",
          "type": "uint256"
        }
      ],
      "stateMutability": "view",
      "type": "function"
    },
    {
      "inputs": [
        {
          "internalType": "uint256",
          "name": "eventId",
          "type": "uint256"
        },
        {
          "internalType": "uint256",
          "name": "ticketTypeId",
          "type": "uint256"
        },
        {
          "internalType": "uint256",
          "name": "quantity",
          "type": "uint256"
        },
        {
          "internalType": "address",
          "name": "to",
          "type": "address"
        }
      ],
      "name": "mintTickets",
      "outputs": [],
      "stateMutability": "payable",
      "type": "function"
    },
    {
      "inputs": [],
      "name": "owner",
      "outputs": [
        {
          "internalType": "address",
          "name": "",
          "type": "address"
        }
      ],
      "stateMutability": "view",
      "type": "function"
    },
    {
      "inputs": [],
      "name": "renounceOwnership",
      "outputs": [],
      "stateMutability": "nonpayable",
      "type": "function"
    },
    {
      "inputs": [
        {
          "internalType": "uint256",
          "name": "eventId",
          "type": "uint256"
        },
        {
          "internalType": "uint256",
          "name": "ticketTypeId",
          "type": "uint256"
        },
        {
          "internalType": "bool",
          "name": "active",
          "type": "bool"
        }
      ],
      "name": "setTicketTypeActive",
      "outputs": [],
      "stateMutability": "nonpayable",
      "type": "function"
    },
    {
      "inputs": [],
      "name": "ticketNFT",
      "outputs": [
        {
          "internalType": "contract TicketNFT",
          "name": "",
          "type": "address"
        }
      ],
      "stateMutability": "view",
      "type": "function"
    },
    {
      "inputs": [
        {
          "internalType": "address",
          "name": "newOwner",
          "type": "address"
        }
      ],
      "name": "transferOwnership",
      "outputs": [],
      "stateMutability": "nonpayable",
      "type": "function"
    },
    {
      "inputs": [],
      "name": "withdraw",
      "outputs": [],
      "stateMutability": "nonpayable",
      "type": "function"
    }
  ],
  "bytecode": "0x608060405234801561001057600080fd5b506040516113a33803806113a383398101604081905261002f916100b1565b61003833610061565b60018055600280546001600160a01b0319166001600160a01b03929092169190911790556100e1565b600080546001600160a01b038381166001600160a01b0319831681178455604051919092169283917f8be0079c531659141344cd1fd0a4f28419497f9722a3daafe3b4186f6b6457e09190a35050565b6000602082840312156100c357600080fd5b81516001600160a01b03811681146100da57600080fd5b9392505050565b6112b3806100f06000396000f3fe6080604052600436106100c25760003560e01c806352b65afc1161007f578063a68d02ed11610059578063a68d02ed14610209578063b393391b14610229578063ec95d2d014610249578063f2fde38b1461027657600080fd5b806352b65afc146101a2578063715018a6146101c25780638da5cb5b146101d757600080fd5b806311fa5bee146100c75780631f2d6ea0146100fa578063365f62811461010f5780633ccfd60b146101405780633f8a2118146101555780634653db1614610182575b600080fd5b3480156100d357600080fd5b506100e76100e2366004610cbc565b610296565b6040519081526020015b60405180910390f35b61010d610108366004610d97565b610328565b005b34801561011b57600080fd5b5061012f61012a366004610dd6565b6105d2565b6040516100f1959493929190610e3e565b34801561014c57600080fd5b5061010d6106b1565b34801561016157600080fd5b506100e7610170366004610e77565b60046020526000908152604090205481565b34801561018e57600080fd5b5061010d61019d366004610e90565b6106f6565b3480156101ae57600080fd5b5061010d6101bd366004610ee7565b61089f565b3480156101ce57600080fd5b5061010d61091e565b3480156101e357600080fd5b506000546001600160a01b03165b6040516001600160a01b0390911681526020016100f1565b34801561021557600080fd5b5061012f610224366004610dd6565b610932565b34801561023557600080fd5b506002546101f1906001600160a01b031681565b34801561025557600080fd5b506100e7610264366004610e77565b60009081526004602052604090205490565b34801561028257600080fd5b5061010d610291366004610f25565b610aa0565b60006102a0610b16565b6002546040516308fd2df760e11b81526001600160a01b03909116906311fa5bee906102da908a908a908a908a908a908a90600401610f47565b6020604051808303816000875af11580156102f9573d6000803e3d6000fd5b505050506040513d601f19601f8201168201806040525081019061031d9190610fad565b979650505050505050565b610330610b70565b60008481526004602052604090205483106103665760405162461bcd60e51b815260040161035d90610fc6565b60405180910390fd5b600084815260036020526040812080548590811061038657610386610ff3565b60009182526020909120600590910201600481015490915060ff166103e65760405162461bcd60e51b81526020600482015260166024820152755469636b65742074797065206e6f742061637469766560501b604482015260640161035d565b80600201548382600301546103fb919061101f565b111561043e5760405162461bcd60e51b815260206004820152601260248201527145786365656473206d617820737570706c7960701b604482015260640161035d565b60008382600101546104509190611038565b9050803410156104995760405162461bcd60e51b8152602060048201526014602482015273125b9cdd59999a58da595b9d081c185e5b595b9d60621b604482015260640161035d565b838260030160008282546104ad919061101f565b909155505060408051600080825260208201909252816104dd565b60608152602001906001900390816104c85790505b50905060005b8581101561057f57600254600185015460405163fc8c1b9b60e01b81526001600160a01b039092169163fc8c1b9b91906105299089908d908d9085908a9060040161104f565b60206040518083038185885af1158015610547573d6000803e3d6000fd5b50505050506040513d601f19601f8201168201806040525081019061056c9190610fad565b5080610577816110e6565b9150506104e3565b50813411156105c057336108fc61059684346110ff565b6040518115909202916000818181858888f193505050501580156105be573d6000803e3d6000fd5b505b5050506105cc60018055565b50505050565b600360205281600052604060002081815481106105ee57600080fd5b90600052602060002090600502016000915091505080600001805461061290611112565b80601f016020809104026020016040519081016040528092919081815260200182805461063e90611112565b801561068b5780601f106106605761010080835404028352916020019161068b565b820191906000526020600020905b81548152906001019060200180831161066e57829003601f168201915b505050506001830154600284015460038501546004909501549394919390925060ff1685565b6106b9610b16565b600080546040516001600160a01b03909116914780156108fc02929091818181858888f193505050501580156106f3573d6000803e3d6000fd5b50565b6106fe610b16565b600081116107585760405162461bcd60e51b815260206004820152602160248201527f4d617820737570706c79206d7573742062652067726561746572207468616e206044820152600360fc1b606482015260840161035d565b600082116107a85760405162461bcd60e51b815260206004820152601c60248201527f5072696365206d7573742062652067726561746572207468616e203000000000604482015260640161035d565b6000848152600360209081526040808320815160a0810183528781528084018790529182018590526060820184905260016080830181905281549081018255908452919092208251600590920201908190610803908261119b565b5060208281015160018301556040808401516002840155606084015160038401556080909301516004928301805460ff19169115159190911790556000878152919052908120805491829190610858836110e6565b919050555080857fb57e745aaa7c4c706881149dfd5ae74266b3c862413e24e6187e2e9812e8a2f9868660405161089092919061125b565b60405180910390a35050505050565b6108a7610b16565b60008381526004602052604090205482106108d45760405162461bcd60e51b815260040161035d90610fc6565b60008381526003602052604090208054829190849081106108f7576108f7610ff3565b60009182526020909120600590910201600401805460ff1916911515919091179055505050565b610926610b16565b6109306000610bc9565b565b60606000806000806004600088815260200190815260200160002054861061096c5760405162461bcd60e51b815260040161035d90610fc6565b600087815260036020526040812080548890811061098c5761098c610ff3565b90600052602060002090600502016040518060a00160405290816000820180546109b590611112565b80601f01602080910402602001604051908101604052809291908181526020018280546109e190611112565b8015610a2e5780601f10610a0357610100808354040283529160200191610a2e565b820191906000526020600020905b815481529060010190602001808311610a1157829003601f168201915b505050505081526020016001820154815260200160028201548152602001600382015481526020016004820160009054906101000a900460ff16151515158152505090508060000151816020015182604001518360600151846080015195509550955095509550509295509295909350565b610aa8610b16565b6001600160a01b038116610b0d5760405162461bcd60e51b815260206004820152602660248201527f4f776e61626c653a206e6577206f776e657220697320746865207a65726f206160448201526564647265737360d01b606482015260840161035d565b6106f381610bc9565b6000546001600160a01b031633146109305760405162461bcd60e51b815260206004820181905260248201527f4f776e61626c653a2063616c6c6572206973206e6f7420746865206f776e6572604482015260640161035d565b600260015403610bc25760405162461bcd60e51b815260206004820152601f60248201527f5265656e7472616e637947756172643a207265656e7472616e742063616c6c00604482015260640161035d565b6002600155565b600080546001600160a01b038381166001600160a01b0319831681178455604051919092169283917f8be0079c531659141344cd1fd0a4f28419497f9722a3daafe3b4186f6b6457e09190a35050565b634e487b7160e01b600052604160045260246000fd5b600082601f830112610c4057600080fd5b813567ffffffffffffffff80821115610c5b57610c5b610c19565b604051601f8301601f19908116603f01168101908282118183101715610c8357610c83610c19565b81604052838152866020858801011115610c9c57600080fd5b836020870160208301376000602085830101528094505050505092915050565b60008060008060008060c08789031215610cd557600080fd5b863567ffffffffffffffff80821115610ced57600080fd5b610cf98a838b01610c2f565b97506020890135915080821115610d0f57600080fd5b610d1b8a838b01610c2f565b9650604089013595506060890135915080821115610d3857600080fd5b610d448a838b01610c2f565b94506080890135935060a0890135915080821115610d6157600080fd5b50610d6e89828a01610c2f565b9150509295509295509295565b80356001600160a01b0381168114610d9257600080fd5b919050565b60008060008060808587031215610dad57600080fd5b843593506020850135925060408501359150610dcb60608601610d7b565b905092959194509250565b60008060408385031215610de957600080fd5b50508035926020909101359150565b6000815180845260005b81811015610e1e57602081850181015186830182015201610e02565b506000602082860101526020601f19601f83011685010191505092915050565b60a081526000610e5160a0830188610df8565b905085602083015284604083015283606083015282151560808301529695505050505050565b600060208284031215610e8957600080fd5b5035919050565b60008060008060808587031215610ea657600080fd5b84359350602085013567ffffffffffffffff811115610ec457600080fd5b610ed087828801610c2f565b949794965050505060408301359260600135919050565b600080600060608486031215610efc57600080fd5b833592506020840135915060408401358015158114610f1a57600080fd5b809150509250925092565b600060208284031215610f3757600080fd5b610f4082610d7b565b9392505050565b60c081526000610f5a60c0830189610df8565b8281036020840152610f6c8189610df8565b90508660408401528281036060840152610f868187610df8565b905084608084015282810360a0840152610fa08185610df8565b9998505050505050505050565b600060208284031215610fbf57600080fd5b5051919050565b602080825260139082015272496e76616c6964207469636b6574207479706560681b604082015260600190565b634e487b7160e01b600052603260045260246000fd5b634e487b7160e01b600052601160045260246000fd5b8082018082111561103257611032611009565b92915050565b808202811582820484141761103257611032611009565b600060c0820160018060a01b03881683526020878185015286604085015285606085015260c0608085015281855180845260e08601915060e08160051b870101935082870160005b828110156110c55760df198887030184526110b3868351610df8565b95509284019290840190600101611097565b5050505083820360a085015250600081526020810198975050505050505050565b6000600182016110f8576110f8611009565b5060010190565b8181038181111561103257611032611009565b600181811c9082168061112657607f821691505b60208210810361114657634e487b7160e01b600052602260045260246000fd5b50919050565b601f82111561119657600081815260208120601f850160051c810160208610156111735750805b601f850160051c820191505b818110156111925782815560010161117f565b5050505b505050565b815167ffffffffffffffff8111156111b5576111b5610c19565b6111c9816111c38454611112565b8461114c565b602080601f8311600181146111fe57600084156111e65750858301515b600019600386901b1c1916600185901b178555611192565b600085815260208120601f198616915b8281101561122d5788860151825594840194600190910190840161120e565b508582101561124b5787850151600019600388901b60f8161c191681555b5050505050600190811b01905550565b60408152600061126e6040830185610df8565b9050826020830152939250505056fea26469706673582212207d8986ac31614c18b50ad74092722447a6ffa900209a4c44f153fe98a9e2967864736f6c63430008130033",
  "linkReferences": {},
  "deployedLinkReferences": {}
}