{
  "_format": "hh-sol-artifact-1",
  "contractName": "TickBaseDeployer",
  "sourceName": "contracts/TickBaseDeployer.sol",
  "abi": [
    {
      "inputs": [],
      "stateMutability": "nonpayable",
      "type": "constructor"
    },
    {
      "anonymous": false,
      "inputs": [
        {
          "indexed": true,
          "internalType": "address",
          "name": "deployer",
          "type": "address"
        }
      ],
      "name": "DeployerAuthorized",
      "type": "event"
    },
    {
      "anonymous": false,
      "inputs": [
        {
          "indexed": true,
          "internalType": "address",
          "name": "deployer",
          "type": "address"
        }
      ],
      "name": "DeployerRevoked",
      "type": "event"
    },
    {
      "anonymous": false,
      "inputs": [
        {
          "indexed": true,
          "internalType": "uint256",
          "name": "deploymentId",
          "type": "uint256"
        },
        {
          "indexed": false,
          "internalType": "string",
          "name": "version",
          "type": "string"
        },
        {
          "indexed": false,
          "internalType": "address",
          "name": "ticketNFT",
          "type": "address"
        },
        {
          "indexed": false,
          "internalType": "address",
          "name": "marketplace",
          "type": "address"
        },
        {
          "indexed": false,
          "internalType": "address",
          "name": "validator",
          "type": "address"
        },
        {
          "indexed": false,
          "internalType": "address",
          "name": "factory",
          "type": "address"
        }
      ],
      "name": "DeploymentCreated",
      "type": "event"
    },
    {
      "anonymous": false,
      "inputs": [
        {
          "indexed": false,
          "internalType": "bool",
          "name": "enabled",
          "type": "bool"
        }
      ],
      "name": "DeploymentToggled",
      "type": "event"
    },
    {
      "anonymous": false,
      "inputs": [
        {
          "indexed": true,
          "internalType": "address",
          "name": "previousOwner",
          "type": "address"
        },
        {
          "indexed": true,
          "internalType": "address",
          "name": "newOwner",
          "type": "address"
        }
      ],
      "name": "OwnershipTransferred",
      "type": "event"
    },
    {
      "anonymous": false,
      "inputs": [
        {
          "indexed": false,
          "internalType": "string",
          "name": "oldVersion",
          "type": "string"
        },
        {
          "indexed": false,
          "internalType": "string",
          "name": "newVersion",
          "type": "string"
        }
      ],
      "name": "VersionUpdated",
      "type": "event"
    },
    {
      "inputs": [
        {
          "internalType": "address",
          "name": "_deployer",
          "type": "address"
        }
      ],
      "name": "authorizeDeployer",
      "outputs": [],
      "stateMutability": "nonpayable",
      "type": "function"
    },
    {
      "inputs": [
        {
          "internalType": "address",
          "name": "",
          "type": "address"
        }
      ],
      "name": "authorizedDeployers",
      "outputs": [
        {
          "internalType": "bool",
          "name": "",
          "type": "bool"
        }
      ],
      "stateMutability": "view",
      "type": "function"
    },
    {
      "inputs": [],
      "name": "currentVersion",
      "outputs": [
        {
          "internalType": "string",
          "name": "",
          "type": "string"
        }
      ],
      "stateMutability": "view",
      "type": "function"
    },
    {
      "inputs": [
        {
          "internalType": "uint256",
          "name": "_deploymentId",
          "type": "uint256"
        }
      ],
      "name": "deactivateDeployment",
      "outputs": [],
      "stateMutability": "nonpayable",
      "type": "function"
    },
    {
      "inputs": [
        {
          "internalType": "address",
          "name": "_ticketNFT",
          "type": "address"
        }
      ],
      "name": "deployFactory",
      "outputs": [
        {
          "internalType": "address",
          "name": "",
          "type": "address"
        }
      ],
      "stateMutability": "nonpayable",
      "type": "function"
    },
    {
      "inputs": [],
      "name": "deployMarketplace",
      "outputs": [
        {
          "internalType": "address",
          "name": "",
          "type": "address"
        }
      ],
      "stateMutability": "nonpayable",
      "type": "function"
    },
    {
      "inputs": [
        {
          "internalType": "string",
          "name": "_version",
          "type": "string"
        }
      ],
      "name": "deployTickBase",
      "outputs": [
        {
          "internalType": "uint256",
          "name": "deploymentId",
          "type": "uint256"
        },
        {
          "internalType": "address",
          "name": "ticketNFT",
          "type": "address"
        },
        {
          "internalType": "address",
          "name": "marketplace",
          "type": "address"
        },
        {
          "internalType": "address",
          "name": "validator",
          "type": "address"
        },
        {
          "internalType": "address",
          "name": "factory",
          "type": "address"
        },
        {
          "internalType": "address",
          "name": "simpleFactory",
          "type": "address"
        }
      ],
      "stateMutability": "nonpayable",
      "type": "function"
    },
    {
      "inputs": [],
      "name": "deployTicketNFT",
      "outputs": [
        {
          "internalType": "address",
          "name": "",
          "type": "address"
        }
      ],
      "stateMutability": "nonpayable",
      "type": "function"
    },
    {
      "inputs": [
        {
          "internalType": "address",
          "name": "_ticketNFT",
          "type": "address"
        }
      ],
      "name": "deployValidator",
      "outputs": [
        {
          "internalType": "address",
          "name": "",
          "type": "address"
        }
      ],
      "stateMutability": "nonpayable",
      "type": "function"
    },
    {
      "inputs": [],
      "name": "deploymentCounter",
      "outputs": [
        {
          "internalType": "uint256",
          "name": "",
          "type": "uint256"
        }
      ],
      "stateMutability": "view",
      "type": "function"
    },
    {
      "inputs": [],
      "name": "deploymentEnabled",
      "outputs": [
        {
          "internalType": "bool",
          "name": "",
          "type": "bool"
        }
      ],
      "stateMutability": "view",
      "type": "function"
    },
    {
      "inputs": [
        {
          "internalType": "uint256",
          "name": "",
          "type": "uint256"
        }
      ],
      "name": "deployments",
      "outputs": [
        {
          "internalType": "address",
          "name": "ticketNFT",
          "type": "address"
        },
        {
          "internalType": "address",
          "name": "marketplace",
          "type": "address"
        },
        {
          "internalType": "address",
          "name": "validator",
          "type": "address"
        },
        {
          "internalType": "address",
          "name": "factory",
          "type": "address"
        },
        {
          "internalType": "address",
          "name": "simpleFactory",
          "type": "address"
        },
        {
          "internalType": "uint256",
          "name": "deployedAt",
          "type": "uint256"
        },
        {
          "internalType": "string",
          "name": "version",
          "type": "string"
        },
        {
          "internalType": "bool",
          "name": "isActive",
          "type": "bool"
        }
      ],
      "stateMutability": "view",
      "type": "function"
    },
    {
      "inputs": [],
      "name": "getAllDeployments",
      "outputs": [
        {
          "components": [
            {
              "internalType": "address",
              "name": "ticketNFT",
              "type": "address"
            },
            {
              "internalType": "address",
              "name": "marketplace",
              "type": "address"
            },
            {
              "internalType": "address",
              "name": "validator",
              "type": "address"
            },
            {
              "internalType": "address",
              "name": "factory",
              "type": "address"
            },
            {
              "internalType": "address",
              "name": "simpleFactory",
              "type": "address"
            },
            {
              "internalType": "uint256",
              "name": "deployedAt",
              "type": "uint256"
            },
            {
              "internalType": "string",
              "name": "version",
              "type": "string"
            },
            {
              "internalType": "bool",
              "name": "isActive",
              "type": "bool"
            }
          ],
          "internalType": "struct TickBaseDeployer.DeploymentInfo[]",
          "name": "",
          "type": "tuple[]"
        }
      ],
      "stateMutability": "view",
      "type": "function"
    },
    {
      "inputs": [
        {
          "internalType": "uint256",
          "name": "_deploymentId",
          "type": "uint256"
        }
      ],
      "name": "getContractAddresses",
      "outputs": [
        {
          "internalType": "address",
          "name": "ticketNFT",
          "type": "address"
        },
        {
          "internalType": "address",
          "name": "marketplace",
          "type": "address"
        },
        {
          "internalType": "address",
          "name": "validator",
          "type": "address"
        },
        {
          "internalType": "address",
          "name": "factory",
          "type": "address"
        },
        {
          "internalType": "address",
          "name": "simpleFactory",
          "type": "address"
        }
      ],
      "stateMutability": "view",
      "type": "function"
    },
    {
      "inputs": [
        {
          "internalType": "uint256",
          "name": "_deploymentId",
          "type": "uint256"
        }
      ],
      "name": "getDeployment",
      "outputs": [
        {
          "components": [
            {
              "internalType": "address",
              "name": "ticketNFT",
              "type": "address"
            },
            {
              "internalType": "address",
              "name": "marketplace",
              "type": "address"
            },
            {
              "internalType": "address",
              "name": "validator",
              "type": "address"
            },
            {
              "internalType": "address",
              "name": "factory",
              "type": "address"
            },
            {
              "internalType": "address",
              "name": "simpleFactory",
              "type": "address"
            },
            {
              "internalType": "uint256",
              "name": "deployedAt",
              "type": "uint256"
            },
            {
              "internalType": "string",
              "name": "version",
              "type": "string"
            },
            {
              "internalType": "bool",
              "name": "isActive",
              "type": "bool"
            }
          ],
          "internalType": "struct TickBaseDeployer.DeploymentInfo",
          "name": "",
          "type": "tuple"
        }
      ],
      "stateMutability": "view",
      "type": "function"
    },
    {
      "inputs": [
        {
          "internalType": "string",
          "name": "_version",
          "type": "string"
        }
      ],
      "name": "getDeploymentByVersion",
      "outputs": [
        {
          "components": [
            {
              "internalType": "address",
              "name": "ticketNFT",
              "type": "address"
            },
            {
              "internalType": "address",
              "name": "marketplace",
              "type": "address"
            },
            {
              "internalType": "address",
              "name": "validator",
              "type": "address"
            },
            {
              "internalType": "address",
              "name": "factory",
              "type": "address"
            },
            {
              "internalType": "address",
              "name": "simpleFactory",
              "type": "address"
            },
            {
              "internalType": "uint256",
              "name": "deployedAt",
              "type": "uint256"
            },
            {
              "internalType": "string",
              "name": "version",
              "type": "string"
            },
            {
              "internalType": "bool",
              "name": "isActive",
              "type": "bool"
            }
          ],
          "internalType": "struct TickBaseDeployer.DeploymentInfo",
          "name": "",
          "type": "tuple"
        }
      ],
      "stateMutability": "view",
      "type": "function"
    },
    {
      "inputs": [],
      "name": "getDeploymentStats",
      "outputs": [
        {
          "internalType": "uint256",
          "name": "_totalDeployments",
          "type": "uint256"
        },
        {
          "internalType": "uint256",
          "name": "_activeDeployments",
          "type": "uint256"
        },
        {
          "internalType": "string",
          "name": "_currentVersion",
          "type": "string"
        }
      ],
      "stateMutability": "view",
      "type": "function"
    },
    {
      "inputs": [],
      "name": "getLatestDeployment",
      "outputs": [
        {
          "components": [
            {
              "internalType": "address",
              "name": "ticketNFT",
              "type": "address"
            },
            {
              "internalType": "address",
              "name": "marketplace",
              "type": "address"
            },
            {
              "internalType": "address",
              "name": "validator",
              "type": "address"
            },
            {
              "internalType": "address",
              "name": "factory",
              "type": "address"
            },
            {
              "internalType": "address",
              "name": "simpleFactory",
              "type": "address"
            },
            {
              "internalType": "uint256",
              "name": "deployedAt",
              "type": "uint256"
            },
            {
              "internalType": "string",
              "name": "version",
              "type": "string"
            },
            {
              "internalType": "bool",
              "name": "isActive",
              "type": "bool"
            }
          ],
          "internalType": "struct TickBaseDeployer.DeploymentInfo",
          "name": "",
          "type": "tuple"
        }
      ],
      "stateMutability": "view",
      "type": "function"
    },
    {
      "inputs": [
        {
          "internalType": "address",
          "name": "_deployer",
          "type": "address"
        }
      ],
      "name": "isAuthorizedDeployer",
      "outputs": [
        {
          "internalType": "bool",
          "name": "",
          "type": "bool"
        }
      ],
      "stateMutability": "view",
      "type": "function"
    },
    {
      "inputs": [],
      "name": "owner",
      "outputs": [
        {
          "internalType": "address",
          "name": "",
          "type": "address"
        }
      ],
      "stateMutability": "view",
      "type": "function"
    },
    {
      "inputs": [],
      "name": "renounceOwnership",
      "outputs": [],
      "stateMutability": "nonpayable",
      "type": "function"
    },
    {
      "inputs": [
        {
          "internalType": "address",
          "name": "_deployer",
          "type": "address"
        }
      ],
      "name": "revokeDeployer",
      "outputs": [],
      "stateMutability": "nonpayable",
      "type": "function"
    },
    {
      "inputs": [
        {
          "internalType": "bool",
          "name": "_enabled",
          "type": "bool"
        }
      ],
      "name": "toggleDeployment",
      "outputs": [],
      "stateMutability": "nonpayable",
      "type": "function"
    },
    {
      "inputs": [
        {
          "internalType": "address",
          "name": "newOwner",
          "type": "address"
        }
      ],
      "name": "transferOwnership",
      "outputs": [],
      "stateMutability": "nonpayable",
      "type": "function"
    },
    {
      "inputs": [
        {
          "internalType": "string",
          "name": "_newVersion",
          "type": "string"
        }
      ],
      "name": "updateVersion",
      "outputs": [],
      "stateMutability": "nonpayable",
      "type": "function"
    },
    {
      "inputs": [
        {
          "internalType": "string",
          "name": "",
          "type": "string"
        }
      ],
      "name": "versionToDeployment",
      "outputs": [
        {
          "internalType": "uint256",
          "name": "",
          "type": "uint256"
        }
      ],
      "stateMutability": "view",
      "type": "function"
    },
    {
      "inputs": [],
      "name": "withdraw",
      "outputs": [],
      "stateMutability": "nonpayable",
      "type": "function"
    }
  ],
  "bytecode": "0x60c060405260056080908152640312e302e360dc1b60a05260069062000026908262000167565b506007805460ff191660011790553480156200004157600080fd5b506200004d3362000072565b6001808055336000908152600460205260409020805460ff1916909117905562000233565b600080546001600160a01b038381166001600160a01b0319831681178455604051919092169283917f8be0079c531659141344cd1fd0a4f28419497f9722a3daafe3b4186f6b6457e09190a35050565b634e487b7160e01b600052604160045260246000fd5b600181811c90821680620000ed57607f821691505b6020821081036200010e57634e487b7160e01b600052602260045260246000fd5b50919050565b601f8211156200016257600081815260208120601f850160051c810160208610156200013d5750805b601f850160051c820191505b818110156200015e5782815560010162000149565b5050505b505050565b81516001600160401b03811115620001835762000183620000c2565b6200019b81620001948454620000d8565b8462000114565b602080601f831160018114620001d35760008415620001ba5750858301515b600019600386901b1c1916600185901b1785556200015e565b600085815260208120601f198616915b828110156200020457888601518255948401946001909101908401620001e3565b5085821015620002235787850151600019600388901b60f8161c191681555b5050505050600190811b01905550565b61e35780620002436000396000f3fe60806040523480156200001157600080fd5b5060043610620001cc5760003560e01c8063785a9d8e116200010d578063a17f228c11620000a3578063cfbb3e4e116200007a578063cfbb3e4e14620004a8578063d42ab69c14620004bf578063e83b86e114620004e5578063f2fde38b14620004ef57600080fd5b8063a17f228c1462000431578063a670de4d1462000448578063bf402f0d146200045257600080fd5b80638da5cb5b11620000e45780638da5cb5b146200039b5780638eec00b814620003ad5780639bc527bd14620003c65780639d888e86146200041857600080fd5b8063785a9d8e146200033d578063796ca44b146200035457806388cd399a146200039157600080fd5b80633ccfd60b11620001835780634feefa9b116200015a5780634feefa9b14620002d557806362d3a1ad14620002ec578063715018a6146200031c5780637240f9af146200032657600080fd5b80633ccfd60b14620002995780634015cabd14620002a35780634930b34414620002be57600080fd5b806302bd95db14620001d157806306609bbe14620001f457806325da169814620002215780632e4934dd1462000247578063381780d314620002605780633b93a77f146200028f575b600080fd5b600754620001df9060ff1681565b60405190151581526020015b60405180910390f35b6200020b6200020536600462001c6c565b62000506565b604051620001eb98979695949392919062001cda565b620002386200023236600462001c6c565b620005f2565b604051620001eb919062001ddd565b6200025e6200025836600462001df9565b6200071b565b005b620001df6200027136600462001df9565b6001600160a01b031660009081526004602052604090205460ff1690565b62000238620007c5565b6200025e62000938565b620002ad620009c7565b604051620001eb9392919062001e24565b6200025e620002cf36600462001df9565b62000aba565b6200025e620002e636600462001c6c565b62000b63565b62000303620002fd36600462001df9565b62000be1565b6040516001600160a01b039091168152602001620001eb565b6200025e62000ceb565b6200025e6200033736600462001e64565b62000d03565b620003036200034e36600462001df9565b62000e42565b620003826200036536600462001e64565b805160208183018101805160038252928201919093012091525481565b604051908152602001620001eb565b6200030362000f17565b6000546001600160a01b031662000303565b620003b762000fbb565b604051620001eb919062001f1f565b620003dd620003d736600462001c6c565b6200118b565b604080516001600160a01b03968716815294861660208601529285169284019290925283166060830152909116608082015260a001620001eb565b620004226200132a565b604051620001eb919062001f85565b620002386200044236600462001e64565b620013c0565b6200030362001555565b620004696200046336600462001e64565b620015d5565b604080519687526001600160a01b039586166020880152938516938601939093529083166060850152821660808401521660a082015260c001620001eb565b6200025e620004b936600462001f9a565b62001a0c565b620001df620004d036600462001df9565b60046020526000908152604090205460ff1681565b6200038260055481565b6200025e6200050036600462001df9565b62001a5d565b600260208190526000918252604090912080546001820154928201546003830154600484015460058501546006860180546001600160a01b0396871698871697958716969485169594909316939192620005609062001fbe565b80601f01602080910402602001604051908101604052809291908181526020018280546200058e9062001fbe565b8015620005df5780601f10620005b357610100808354040283529160200191620005df565b820191906000526020600020905b815481529060010190602001808311620005c157829003601f168201915b5050506007909301549192505060ff1688565b620005fc62001be3565b60008281526002602081815260409283902083516101008101855281546001600160a01b0390811682526001830154811693820193909352928101548216938301939093526003830154811660608301526004830154166080820152600582015460a082015260068201805491929160c0840191906200067c9062001fbe565b80601f0160208091040260200160405190810160405280929190818152602001828054620006aa9062001fbe565b8015620006fb5780601f10620006cf57610100808354040283529160200191620006fb565b820191906000526020600020905b815481529060010190602001808311620006dd57829003601f168201915b50505091835250506007919091015460ff16151560209091015292915050565b6200072562001adc565b6001600160a01b0381166200077c5760405162461bcd60e51b8152602060048201526018602482015277496e76616c6964206465706c6f796572206164647265737360401b60448201526064015b60405180910390fd5b6001600160a01b038116600081815260046020526040808220805460ff19169055517f71bb265fd58ba4fff24e861028856e445a55fcc5262d5919ac663a9c37fc448c9190a250565b620007cf62001be3565b6000600554116200081a5760405162461bcd60e51b8152602060048201526014602482015273139bc819195c1b1bde5b595b9d1cc8199bdd5b9960621b604482015260640162000773565b6005805460009081526002602081815260409283902083516101008101855281546001600160a01b03908116825260018301548116938201939093529281015482169383019390935260038301548116606083015260048301541660808201529181015460a083015260068101805460c0840191906200089a9062001fbe565b80601f0160208091040260200160405190810160405280929190818152602001828054620008c89062001fbe565b8015620009195780601f10620008ed5761010080835404028352916020019162000919565b820191906000526020600020905b815481529060010190602001808311620008fb57829003601f168201915b50505091835250506007919091015460ff161515602090910152919050565b6200094262001adc565b4780620009895760405162461bcd60e51b81526020600482015260146024820152734e6f2066756e647320746f20776974686472617760601b604482015260640162000773565b600080546040516001600160a01b039091169183156108fc02918491818181858888f19350505050158015620009c3573d6000803e3d6000fd5b5050565b60055460068054600091606091620009df9062001fbe565b80601f016020809104026020016040519081016040528092919081815260200182805462000a0d9062001fbe565b801562000a5e5780601f1062000a325761010080835404028352916020019162000a5e565b820191906000526020600020905b81548152906001019060200180831162000a4057829003601f168201915b50939450600193505050505b600554811162000ab45760008181526002602052604090206007015460ff161562000a9f578262000a9b816200200a565b9350505b8062000aab816200200a565b91505062000a6a565b50909192565b62000ac462001adc565b6001600160a01b03811662000b175760405162461bcd60e51b8152602060048201526018602482015277496e76616c6964206465706c6f796572206164647265737360401b604482015260640162000773565b6001600160a01b038116600081815260046020526040808220805460ff19166001179055517fc553df5d2803898b31fac480ec2b45d67b73294d4c94a93f069f47400f76bdbb9190a250565b62000b6d62001adc565b60008111801562000b8057506005548111155b62000bc65760405162461bcd60e51b8152602060048201526015602482015274125b9d985b1a590819195c1b1bde5b595b9d081251605a1b604482015260640162000773565b6000908152600260205260409020600701805460ff19169055565b60075460009060ff1662000c095760405162461bcd60e51b8152600401620007739062002026565b3360009081526004602052604090205460ff168062000c3257506000546001600160a01b031633145b62000c515760405162461bcd60e51b8152600401620007739062002056565b6001600160a01b03821662000ca55760405162461bcd60e51b8152602060048201526019602482015278496e76616c6964205469636b65744e4654206164647265737360381b604482015260640162000773565b60008260405162000cb69062001c26565b6001600160a01b039091168152602001604051809103906000f08015801562000ce3573d6000803e3d6000fd5b509392505050565b62000cf562001adc565b62000d01600062001b38565b565b62000d0d62001adc565b600081511162000d5a5760405162461bcd60e51b815260206004820152601760248201527656657273696f6e2063616e6e6f7420626520656d70747960481b604482015260640162000773565b60006006805462000d6b9062001fbe565b80601f016020809104026020016040519081016040528092919081815260200182805462000d999062001fbe565b801562000dea5780601f1062000dbe5761010080835404028352916020019162000dea565b820191906000526020600020905b81548152906001019060200180831162000dcc57829003601f168201915b50505050509050816006908162000e029190620020e0565b507f22efc5f993dce37856b77dd72d7d7661032380c9728c4133f3c071c591bc6ca7818360405162000e36929190620021ad565b60405180910390a15050565b60075460009060ff1662000e6a5760405162461bcd60e51b8152600401620007739062002026565b3360009081526004602052604090205460ff168062000e9357506000546001600160a01b031633145b62000eb25760405162461bcd60e51b8152600401620007739062002056565b6001600160a01b03821662000f065760405162461bcd60e51b8152602060048201526019602482015278496e76616c6964205469636b65744e4654206164647265737360381b604482015260640162000773565b60008260405162000cb69062001c34565b60075460009060ff1662000f3f5760405162461bcd60e51b8152600401620007739062002026565b3360009081526004602052604090205460ff168062000f6857506000546001600160a01b031633145b62000f875760405162461bcd60e51b8152600401620007739062002056565b600060405162000f979062001c42565b604051809103906000f08015801562000fb4573d6000803e3d6000fd5b5092915050565b6060600060055467ffffffffffffffff81111562000fdd5762000fdd62001e4e565b6040519080825280602002602001820160405280156200101a57816020015b6200100662001be3565b81526020019060019003908162000ffc5790505b50905060015b6005548111620011855760008181526002602081815260409283902083516101008101855281546001600160a01b0390811682526001830154811693820193909352928101548216938301939093526003830154811660608301526004830154166080820152600582015460a082015260068201805491929160c084019190620010aa9062001fbe565b80601f0160208091040260200160405190810160405280929190818152602001828054620010d89062001fbe565b8015620011295780601f10620010fd5761010080835404028352916020019162001129565b820191906000526020600020905b8154815290600101906020018083116200110b57829003601f168201915b50505091835250506007919091015460ff1615156020909101528262001151600184620021d6565b81518110620011645762001164620021f2565b602002602001018190525080806200117c906200200a565b91505062001020565b50919050565b60008060008060008086118015620011a557506005548611155b620011eb5760405162461bcd60e51b8152602060048201526015602482015274125b9d985b1a590819195c1b1bde5b595b9d081251605a1b604482015260640162000773565b600086815260026020818152604080842081516101008101835281546001600160a01b03908116825260018301548116948201949094529381015483169184019190915260038101548216606084015260048101549091166080830152600581015460a083015260068101805460c084019190620012699062001fbe565b80601f0160208091040260200160405190810160405280929190818152602001828054620012979062001fbe565b8015620012e85780601f10620012bc57610100808354040283529160200191620012e8565b820191906000526020600020905b815481529060010190602001808311620012ca57829003601f168201915b50505091835250506007919091015460ff16151560209182015281519082015160408301516060840151608090940151929b919a509850919650945092505050565b60068054620013399062001fbe565b80601f0160208091040260200160405190810160405280929190818152602001828054620013679062001fbe565b8015620013b85780601f106200138c57610100808354040283529160200191620013b8565b820191906000526020600020905b8154815290600101906020018083116200139a57829003601f168201915b505050505081565b620013ca62001be3565b6000600383604051620013de919062002208565b908152602001604051809103902054905060008111620014355760405162461bcd60e51b815260206004820152601160248201527015995c9cda5bdb881b9bdd08199bdd5b99607a1b604482015260640162000773565b60008181526002602081815260409283902083516101008101855281546001600160a01b0390811682526001830154811693820193909352928101548216938301939093526003830154811660608301526004830154166080820152600582015460a082015260068201805491929160c084019190620014b59062001fbe565b80601f0160208091040260200160405190810160405280929190818152602001828054620014e39062001fbe565b8015620015345780601f10620015085761010080835404028352916020019162001534565b820191906000526020600020905b8154815290600101906020018083116200151657829003601f168201915b50505091835250506007919091015460ff1615156020909101529392505050565b60075460009060ff166200157d5760405162461bcd60e51b8152600401620007739062002026565b3360009081526004602052604090205460ff1680620015a657506000546001600160a01b031633145b620015c55760405162461bcd60e51b8152600401620007739062002056565b600060405162000f979062001c50565b600080600080600080620015e862001b88565b60075460ff166200160d5760405162461bcd60e51b8152600401620007739062002026565b3360009081526004602052604090205460ff16806200163657506000546001600160a01b031633145b620016555760405162461bcd60e51b8152600401620007739062002056565b6000875111620016a25760405162461bcd60e51b815260206004820152601760248201527656657273696f6e2063616e6e6f7420626520656d70747960481b604482015260640162000773565b60058054906000620016b4836200200a565b919050555060055495506000604051620016ce9062001c50565b604051809103906000f080158015620016eb573d6000803e3d6000fd5b5090508095506000604051620017019062001c42565b604051809103906000f0801580156200171e573d6000803e3d6000fd5b509050809550600087604051620017359062001c34565b6001600160a01b039091168152602001604051809103906000f08015801562001762573d6000803e3d6000fd5b509050809550600088604051620017799062001c26565b6001600160a01b039091168152602001604051809103906000f080158015620017a6573d6000803e3d6000fd5b509050809550600089604051620017bd9062001c5e565b6001600160a01b039091168152602001604051809103906000f080158015620017ea573d6000803e3d6000fd5b5090508095506040518061010001604052808b6001600160a01b031681526020018a6001600160a01b03168152602001896001600160a01b03168152602001886001600160a01b03168152602001876001600160a01b031681526020014281526020018d815260200160011515815250600260008d815260200190815260200160002060008201518160000160006101000a8154816001600160a01b0302191690836001600160a01b0316021790555060208201518160010160006101000a8154816001600160a01b0302191690836001600160a01b0316021790555060408201518160020160006101000a8154816001600160a01b0302191690836001600160a01b0316021790555060608201518160030160006101000a8154816001600160a01b0302191690836001600160a01b0316021790555060808201518160040160006101000a8154816001600160a01b0302191690836001600160a01b0316021790555060a0820151816005015560c08201518160060190816200196f9190620020e0565b5060e091909101516007909101805460ff19169115159190911790556040518b90600390620019a0908f9062002208565b9081526020016040518091039020819055508a7fc18394b637c89af76c1cf1be423452931bfc6b2154e3d3aaa1993d3aedd3d0bc8d8c8c8c8c604051620019ec95949392919062002226565b60405180910390a2505050505062001a0360018055565b91939550919395565b62001a1662001adc565b6007805460ff19168215159081179091556040519081527fa20ee1d1ce53f759ab83e0adc5fb0bff95f366d151cd1f7fd6c4f70c14b726ed9060200160405180910390a150565b62001a6762001adc565b6001600160a01b03811662001ace5760405162461bcd60e51b815260206004820152602660248201527f4f776e61626c653a206e6577206f776e657220697320746865207a65726f206160448201526564647265737360d01b606482015260840162000773565b62001ad98162001b38565b50565b6000546001600160a01b0316331462000d015760405162461bcd60e51b815260206004820181905260248201527f4f776e61626c653a2063616c6c6572206973206e6f7420746865206f776e6572604482015260640162000773565b600080546001600160a01b038381166001600160a01b0319831681178455604051919092169283917f8be0079c531659141344cd1fd0a4f28419497f9722a3daafe3b4186f6b6457e09190a35050565b60026001540362001bdc5760405162461bcd60e51b815260206004820152601f60248201527f5265656e7472616e637947756172643a207265656e7472616e742063616c6c00604482015260640162000773565b6002600155565b604080516101008101825260008082526020820181905291810182905260608082018390526080820183905260a0820183905260c082015260e081019190915290565b61344a806200226e83390190565b6122b480620056b883390190565b61182a806200796c83390190565b613de9806200919683390190565b6113a3806200cf7f83390190565b60006020828403121562001c7f57600080fd5b5035919050565b60005b8381101562001ca357818101518382015260200162001c89565b50506000910152565b6000815180845262001cc681602086016020860162001c86565b601f01601f19169290920160200192915050565b6001600160a01b0389811682528881166020830152878116604083015286811660608301528516608082015260a0810184905261010060c0820181905260009062001d288382018662001cac565b91505082151560e08301529998505050505050505050565b600061010060018060a01b0380845116855280602085015116602086015280604085015116604086015250606083015162001d8660608601826001600160a01b03169052565b50608083015162001da260808601826001600160a01b03169052565b5060a083015160a085015260c08301518160c086015262001dc68286018262001cac565b91505060e083015162000ce360e086018215159052565b60208152600062001df2602083018462001d40565b9392505050565b60006020828403121562001e0c57600080fd5b81356001600160a01b038116811462001df257600080fd5b83815282602082015260606040820152600062001e45606083018462001cac565b95945050505050565b634e487b7160e01b600052604160045260246000fd5b60006020828403121562001e7757600080fd5b813567ffffffffffffffff8082111562001e9057600080fd5b818401915084601f83011262001ea557600080fd5b81358181111562001eba5762001eba62001e4e565b604051601f8201601f19908116603f0116810190838211818310171562001ee55762001ee562001e4e565b8160405282815287602084870101111562001eff57600080fd5b826020860160208301376000928101602001929092525095945050505050565b6000602080830181845280855180835260408601915060408160051b870101925083870160005b8281101562001f7857603f1988860301845262001f6585835162001d40565b9450928501929085019060010162001f46565b5092979650505050505050565b60208152600062001df2602083018462001cac565b60006020828403121562001fad57600080fd5b8135801515811462001df257600080fd5b600181811c9082168062001fd357607f821691505b6020821081036200118557634e487b7160e01b600052602260045260246000fd5b634e487b7160e01b600052601160045260246000fd5b6000600182016200201f576200201f62001ff4565b5060010190565b60208082526016908201527511195c1b1bde5b595b9d081a5cc8191a5cd8589b195960521b604082015260600190565b60208082526018908201527f4e6f7420617574686f72697a656420746f206465706c6f790000000000000000604082015260600190565b601f821115620020db57600081815260208120601f850160051c81016020861015620020b65750805b601f850160051c820191505b81811015620020d757828155600101620020c2565b5050505b505050565b815167ffffffffffffffff811115620020fd57620020fd62001e4e565b62002115816200210e845462001fbe565b846200208d565b602080601f8311600181146200214d5760008415620021345750858301515b600019600386901b1c1916600185901b178555620020d7565b600085815260208120601f198616915b828110156200217e578886015182559484019460019091019084016200215d565b50858210156200219d5787850151600019600388901b60f8161c191681555b5050505050600190811b01905550565b604081526000620021c2604083018562001cac565b828103602084015262001e45818562001cac565b81810381811115620021ec57620021ec62001ff4565b92915050565b634e487b7160e01b600052603260045260246000fd5b600082516200221c81846020870162001c86565b9190910192915050565b60a0815260006200223b60a083018862001cac565b6001600160a01b039687166020840152948616604083015250918416606083015290921660809092019190915291905056fe608060405260fa600a553480156200001657600080fd5b506040516200344a3803806200344a8339810160408190526200003991620000c3565b620000443362000073565b60018055600280546001600160a01b03909216610100026001600160a81b0319909216919091179055620000f5565b600080546001600160a01b038381166001600160a01b0319831681178455604051919092169283917f8be0079c531659141344cd1fd0a4f28419497f9722a3daafe3b4186f6b6457e09190a35050565b600060208284031215620000d657600080fd5b81516001600160a01b0381168114620000ee57600080fd5b9392505050565b61334580620001056000396000f3fe6080604052600436106101c25760003560e01c80636d1884e0116100f7578063a68d02ed11610095578063e4aa47e311610064578063e4aa47e31461051e578063ec95d2d01461053e578063f2fde38b1461056e578063ff9f59701461058e57600080fd5b8063a68d02ed1461048c578063aa0b5988146104b9578063b1fd4ed2146104d9578063b393391b146104f957600080fd5b806386f4c772116100d157806386f4c772146104185780638c639a85146104385780638da5cb5b1461044e578063990328ab1461046c57600080fd5b80636d1884e0146103c1578063715018a6146103ee5780638456cb591461040357600080fd5b8063438c31001161016457806367d817401161013e57806367d817401461031757806367db1a521461032d578063697626441461037b5780636b4169c31461039157600080fd5b8063438c3100146102be57806352c55db9146102de5780635c975abb146102f457600080fd5b806334701db8116101a057806334701db81461024b578063365f6281146102615780633ccfd60b146102945780633f4ba83a146102a957600080fd5b80630b791430146101c757806311fa5bee146102085780631f2d6ea014610236575b600080fd5b3480156101d357600080fd5b506101e76101e2366004612657565b6105bb565b6040516101ff9c9b9a999897969594939291906126b6565b60405180910390f35b34801561021457600080fd5b5061022861022336600461280e565b610846565b6040519081526020016101ff565b6102496102443660046128e9565b610b45565b005b34801561025757600080fd5b5061022860095481565b34801561026d57600080fd5b5061028161027c366004612928565b61105a565b6040516101ff979695949392919061294a565b3480156102a057600080fd5b5061024961123f565b3480156102b557600080fd5b506102496112c9565b3480156102ca57600080fd5b506102496102d93660046129bb565b6112db565b3480156102ea57600080fd5b5061022860075481565b34801561030057600080fd5b5060025460ff1660405190151581526020016101ff565b34801561032357600080fd5b506102286103e881565b34801561033957600080fd5b50610363610348366004612657565b6006602052600090815260409020546001600160a01b031681565b6040516001600160a01b0390911681526020016101ff565b34801561038757600080fd5b5061022860085481565b34801561039d57600080fd5b506103a661142e565b604080519384526020840192909252908201526060016101ff565b3480156103cd57600080fd5b506103e16103dc366004612657565b61149f565b6040516101ff9190612a5e565b3480156103fa57600080fd5b506102496117de565b34801561040f57600080fd5b506102496117f0565b34801561042457600080fd5b50610249610433366004612b5a565b611800565b34801561044457600080fd5b50610228600a5481565b34801561045a57600080fd5b506000546001600160a01b0316610363565b34801561047857600080fd5b50610249610487366004612c25565b6119dc565b34801561049857600080fd5b506104ac6104a7366004612928565b611cd3565b6040516101ff9190612d44565b3480156104c557600080fd5b506102496104d4366004612657565b61203a565b3480156104e557600080fd5b506102496104f4366004612df8565b6120be565b34801561050557600080fd5b506002546103639061010090046001600160a01b031681565b34801561052a57600080fd5b50610228610539366004612e88565b612263565b34801561054a57600080fd5b50610228610559366004612657565b6000908152600360205260409020600b015490565b34801561057a57600080fd5b50610249610589366004612eb2565b612294565b34801561059a57600080fd5b506105ae6105a9366004612eb2565b61230d565b6040516101ff9190612ed4565b600360205260009081526040902080546001820180549192916105dd90612f18565b80601f016020809104026020016040519081016040528092919081815260200182805461060990612f18565b80156106565780601f1061062b57610100808354040283529160200191610656565b820191906000526020600020905b81548152906001019060200180831161063957829003601f168201915b50505050509080600201805461066b90612f18565b80601f016020809104026020016040519081016040528092919081815260200182805461069790612f18565b80156106e45780601f106106b9576101008083540402835291602001916106e4565b820191906000526020600020905b8154815290600101906020018083116106c757829003601f168201915b5050505050908060030154908060040180546106ff90612f18565b80601f016020809104026020016040519081016040528092919081815260200182805461072b90612f18565b80156107785780601f1061074d57610100808354040283529160200191610778565b820191906000526020600020905b81548152906001019060200180831161075b57829003601f168201915b505050600584015460068501546007860154600887015460098801805497986001600160a01b039095169793965091945060ff1692916107b790612f18565b80601f01602080910402602001604051908101604052809291908181526020018280546107e390612f18565b80156108305780601f1061080557610100808354040283529160200191610830565b820191906000526020600020905b81548152906001019060200180831161081357829003601f168201915b50505050509080600a01549080600b015490508c565b6000610850612379565b4285116108a45760405162461bcd60e51b815260206004820181905260248201527f4576656e742064617465206d75737420626520696e207468652066757475726560448201526064015b60405180910390fd5b600083116109005760405162461bcd60e51b8152602060048201526024808201527f546f74616c207469636b657473206d75737420626520677265617465722074686044820152630616e20360e41b606482015260840161089b565b60008751116109515760405162461bcd60e51b815260206004820152601a60248201527f4576656e74206e616d652063616e6e6f7420626520656d707479000000000000604482015260640161089b565b6007805490600061096183612f68565b9091555050600754604080516101808101825282815260208082018b81528284018b9052606083018a9052608083018990523360a084015260c08301889052600060e08401819052600161010085018190526101208501899052426101408601526101608501829052868252600390935293909320825181559251919291908201906109ed9082612fd0565b5060408201516002820190610a029082612fd0565b506060820151600382015560808201516004820190610a219082612fd0565b5060a08201516005820180546001600160a01b0319166001600160a01b0390921691909117905560c0820151600682015560e0820151600782015561010082015160088201805460ff19169115159190911790556101208201516009820190610a8a9082612fd0565b50610140820151600a82015561016090910151600b909101553360008181526005602090815260408083208054600181018255908452828420018590558483526006909152812080546001600160a01b0319169092179091556008805491610af183612f68565b9190505550336001600160a01b0316817f56acb10c6ecae7e178ece5d22c2f0346efb606427ea6a15f96904d0ceec03d1d8a89604051610b32929190613090565b60405180910390a3979650505050505050565b610b4d6123bf565b610b55612379565b60008211610ba55760405162461bcd60e51b815260206004820152601f60248201527f5175616e74697479206d7573742062652067726561746572207468616e203000604482015260640161089b565b6001600160a01b038116610bfb5760405162461bcd60e51b815260206004820152601960248201527f496e76616c696420726563697069656e74206164647265737300000000000000604482015260640161089b565b60008481526003602052604090206008015460ff16610c525760405162461bcd60e51b81526020600482015260136024820152724576656e74206973206e6f742061637469766560681b604482015260640161089b565b6000848152600360205260409020600b01548310610c825760405162461bcd60e51b815260040161089b906130b2565b60008481526004602090815260408083208684529091529020600581015460ff16610ce85760405162461bcd60e51b81526020600482015260166024820152755469636b65742074797065206e6f742061637469766560501b604482015260640161089b565b8060030154838260040154610cfd91906130df565b1115610d405760405162461bcd60e51b815260206004820152601260248201527145786365656473206d617820737570706c7960701b604482015260640161089b565b60008581526003602052604090206006810154600790910154610d649085906130df565b1115610da35760405162461bcd60e51b815260206004820152600e60248201526d115d995b9d081cdbdb19081bdd5d60921b604482015260640161089b565b6000838260020154610db591906130f2565b905080341015610dfe5760405162461bcd60e51b8152602060048201526014602482015273125b9cdd59999a58da595b9d081c185e5b595b9d60621b604482015260640161089b565b83826004016000828254610e1291906130df565b909155505060008681526003602052604081206007018054869290610e389084906130df565b925050819055508360096000828254610e5191906130df565b90915550600090505b84811015610f0257600280549084015460405163fc8c1b9b60e01b81526101009092046001600160a01b03169163fc8c1b9b9190610eac9088908c908c90859060078c019060068d0190600401613186565b60206040518083038185885af1158015610eca573d6000803e3d6000fd5b50505050506040513d601f19601f82011682018060405250810190610eef9190613224565b5080610efa81612f68565b915050610e5a565b506000612710600a5483610f1691906130f2565b610f20919061323d565b90506000610f2e828461325f565b90508115610f7157600080546040516001600160a01b039091169184156108fc02918591818181858888f19350505050158015610f6f573d6000803e3d6000fd5b505b6000888152600360205260408082206005015490516001600160a01b039091169183156108fc02918491818181858888f19350505050158015610fb8573d6000803e3d6000fd5b5082341115610ff957336108fc610fcf853461325f565b6040518115909202916000818181858888f19350505050158015610ff7573d6000803e3d6000fd5b505b846001600160a01b031687897f5512c5ea4b3362d292db28f5a081328ef59f062896602b817e95690614ecd749898760405161103f929190918252602082015260400190565b60405180910390a45050505061105460018055565b50505050565b600460209081526000928352604080842090915290825290208054819061108090612f18565b80601f01602080910402602001604051908101604052809291908181526020018280546110ac90612f18565b80156110f95780601f106110ce576101008083540402835291602001916110f9565b820191906000526020600020905b8154815290600101906020018083116110dc57829003601f168201915b50505050509080600101805461110e90612f18565b80601f016020809104026020016040519081016040528092919081815260200182805461113a90612f18565b80156111875780601f1061115c57610100808354040283529160200191611187565b820191906000526020600020905b81548152906001019060200180831161116a57829003601f168201915b50505060028401546003850154600486015460058701546006880180549798949793965091945060ff1692916111bc90612f18565b80601f01602080910402602001604051908101604052809291908181526020018280546111e890612f18565b80156112355780601f1061120a57610100808354040283529160200191611235565b820191906000526020600020905b81548152906001019060200180831161121857829003601f168201915b5050505050905087565b611247612418565b478061128c5760405162461bcd60e51b81526020600482015260146024820152734e6f2066756e647320746f20776974686472617760601b604482015260640161089b565b600080546040516001600160a01b039091169183156108fc02918491818181858888f193505050501580156112c5573d6000803e3d6000fd5b5050565b6112d1612418565b6112d9612472565b565b6000858152600360205260409020600501546001600160a01b031633148061130d57506000546001600160a01b031633145b6113295760405162461bcd60e51b815260040161089b90613272565b600084511161137a5760405162461bcd60e51b815260206004820152601a60248201527f4576656e74206e616d652063616e6e6f7420626520656d707479000000000000604482015260640161089b565b60008581526003602052604090206001016113958582612fd0565b5060008581526003602052604090206002016113b18482612fd0565b5060008581526003602052604090206004016113cd8382612fd0565b5060008581526003602052604090819020600801805460ff19168315151790555185907fa556c7a7c1dd886e8b9f27c9ad4e2af946d6b8057971b7ae5c7d1586afd4c5b19061141f908790859061329a565b60405180910390a25050505050565b600854600954600060015b60075481116114995760008181526003602052604090206008015460ff16801561147457506000818152600360208190526040909120015442105b15611487578161148381612f68565b9250505b8061149181612f68565b915050611439565b50909192565b61150e604051806101800160405280600081526020016060815260200160608152602001600081526020016060815260200160006001600160a01b0316815260200160008152602001600081526020016000151581526020016060815260200160008152602001600081525090565b60036000838152602001908152602001600020604051806101800160405290816000820154815260200160018201805461154790612f18565b80601f016020809104026020016040519081016040528092919081815260200182805461157390612f18565b80156115c05780601f10611595576101008083540402835291602001916115c0565b820191906000526020600020905b8154815290600101906020018083116115a357829003601f168201915b505050505081526020016002820180546115d990612f18565b80601f016020809104026020016040519081016040528092919081815260200182805461160590612f18565b80156116525780601f1061162757610100808354040283529160200191611652565b820191906000526020600020905b81548152906001019060200180831161163557829003601f168201915b505050505081526020016003820154815260200160048201805461167590612f18565b80601f01602080910402602001604051908101604052809291908181526020018280546116a190612f18565b80156116ee5780601f106116c3576101008083540402835291602001916116ee565b820191906000526020600020905b8154815290600101906020018083116116d157829003601f168201915b505050918352505060058201546001600160a01b031660208201526006820154604082015260078201546060820152600882015460ff161515608082015260098201805460a09092019161174190612f18565b80601f016020809104026020016040519081016040528092919081815260200182805461176d90612f18565b80156117ba5780601f1061178f576101008083540402835291602001916117ba565b820191906000526020600020905b81548152906001019060200180831161179d57829003601f168201915b50505050508152602001600a8201548152602001600b820154815250509050919050565b6117e6612418565b6112d960006124c4565b6117f8612418565b6112d9612514565b6000828152600360205260409020600501546001600160a01b031633146118695760405162461bcd60e51b815260206004820152601760248201527f4e6f7420746865206576656e74206f7267616e697a6572000000000000000000604482015260640161089b565b6001600160a01b0381166118b75760405162461bcd60e51b815260206004820152601560248201527424b73b30b634b2103732bb9037b933b0b734bd32b960591b604482015260640161089b565b336000908152600560205260408120905b815481101561197c57838282815481106118e4576118e46132be565b90600052602060002001540361196a57815482906119049060019061325f565b81548110611914576119146132be565b9060005260206000200154828281548110611931576119316132be565b90600052602060002001819055508180548061194f5761194f6132d4565b6001900381819060005260206000200160009055905561197c565b8061197481612f68565b9150506118c8565b50506001600160a01b031660008181526005602081815260408084208054600181018255908552828520018690559483526003815284832090910180546001600160a01b0319908116851790915560069091529290208054909216179055565b6119e4612379565b6000878152600360205260409020600501546001600160a01b0316331480611a1657506000546001600160a01b031633145b611a325760405162461bcd60e51b815260040161089b90613272565b60008781526003602052604090206008015460ff16611a895760405162461bcd60e51b81526020600482015260136024820152724576656e74206973206e6f742061637469766560681b604482015260640161089b565b60008311611ae35760405162461bcd60e51b815260206004820152602160248201527f4d617820737570706c79206d7573742062652067726561746572207468616e206044820152600360fc1b606482015260840161089b565b60008411611b335760405162461bcd60e51b815260206004820152601c60248201527f5072696365206d7573742062652067726561746572207468616e203000000000604482015260640161089b565b6000865111611b845760405162461bcd60e51b815260206004820181905260248201527f5469636b65742074797065206e616d652063616e6e6f7420626520656d707479604482015260640161089b565b6000878152600360205260408120600b01805491829190611ba483612f68565b90915550506040805161010081018252888152602080820189905281830188905260608201879052600060808301819052600160a084015260c0830187905260e083018690528b8152600482528381208582529091529190912081518190611c0c9082612fd0565b5060208201516001820190611c219082612fd0565b5060408201516002820155606082015160038201556080820151600482015560a082015160058201805460ff191691151591909117905560c08201516006820190611c6c9082612fd0565b5060e08201518051611c8891600784019160209091019061259a565b5090505080887f766363e141a90ab2ab87c4d5ab572d5df3ac4b4e6cd8228f13b6a56b02d8c5c6898888604051611cc1939291906132ea565b60405180910390a35050505050505050565b611d1d604051806101000160405280606081526020016060815260200160008152602001600081526020016000815260200160001515815260200160608152602001606081525090565b6000838152600360205260409020600b01548210611d4d5760405162461bcd60e51b815260040161089b906130b2565b60008381526004602090815260408083208584529091529081902081516101008101909252805482908290611d8190612f18565b80601f0160208091040260200160405190810160405280929190818152602001828054611dad90612f18565b8015611dfa5780601f10611dcf57610100808354040283529160200191611dfa565b820191906000526020600020905b815481529060010190602001808311611ddd57829003601f168201915b50505050508152602001600182018054611e1390612f18565b80601f0160208091040260200160405190810160405280929190818152602001828054611e3f90612f18565b8015611e8c5780601f10611e6157610100808354040283529160200191611e8c565b820191906000526020600020905b815481529060010190602001808311611e6f57829003601f168201915b5050509183525050600282015460208201526003820154604082015260048201546060820152600582015460ff161515608082015260068201805460a090920191611ed690612f18565b80601f0160208091040260200160405190810160405280929190818152602001828054611f0290612f18565b8015611f4f5780601f10611f2457610100808354040283529160200191611f4f565b820191906000526020600020905b815481529060010190602001808311611f3257829003601f168201915b5050505050815260200160078201805480602002602001604051908101604052809291908181526020016000905b82821015612029578382906000526020600020018054611f9c90612f18565b80601f0160208091040260200160405190810160405280929190818152602001828054611fc890612f18565b80156120155780601f10611fea57610100808354040283529160200191612015565b820191906000526020600020905b815481529060010190602001808311611ff857829003601f168201915b505050505081526020019060010190611f7d565b505050508152505090505b92915050565b612042612418565b6103e88111156120835760405162461bcd60e51b815260206004820152600c60248201526b08ccaca40e8dede40d0d2ced60a31b604482015260640161089b565b600a8190556040518181527f45610d581145924dd7090a5017e5f2b1d6f42213bb2e95707ff86846bbfcb1ca9060200160405180910390a150565b6000868152600360205260409020600501546001600160a01b03163314806120f057506000546001600160a01b031633145b61210c5760405162461bcd60e51b815260040161089b90613272565b6000868152600360205260409020600b0154851061213c5760405162461bcd60e51b815260040161089b906130b2565b6000821161218c5760405162461bcd60e51b815260206004820152601c60248201527f5072696365206d7573742062652067726561746572207468616e203000000000604482015260640161089b565b60008451116121dd5760405162461bcd60e51b815260206004820181905260248201527f5469636b65742074797065206e616d652063616e6e6f7420626520656d707479604482015260640161089b565b600086815260046020908152604080832088845290915290206122008582612fd0565b50600086815260046020908152604080832088845290915290206001016122278482612fd0565b50600095865260046020908152604080882096885295905293909420600281019490945550506005909101805460ff1916911515919091179055565b6005602052816000526040600020818154811061227f57600080fd5b90600052602060002001600091509150505481565b61229c612418565b6001600160a01b0381166123015760405162461bcd60e51b815260206004820152602660248201527f4f776e61626c653a206e6577206f776e657220697320746865207a65726f206160448201526564647265737360d01b606482015260840161089b565b61230a816124c4565b50565b6001600160a01b03811660009081526005602090815260409182902080548351818402810184019094528084526060939283018282801561236d57602002820191906000526020600020905b815481526020019060010190808311612359575b50505050509050919050565b60025460ff16156112d95760405162461bcd60e51b815260206004820152601060248201526f14185d5cd8589b194e881c185d5cd95960821b604482015260640161089b565b6002600154036124115760405162461bcd60e51b815260206004820152601f60248201527f5265656e7472616e637947756172643a207265656e7472616e742063616c6c00604482015260640161089b565b6002600155565b6000546001600160a01b031633146112d95760405162461bcd60e51b815260206004820181905260248201527f4f776e61626c653a2063616c6c6572206973206e6f7420746865206f776e6572604482015260640161089b565b61247a612551565b6002805460ff191690557f5db9ee0a495bf2e6ff9c91a7834c1ba4fdd244a5e8aa4e537bd38aeae4b073aa335b6040516001600160a01b03909116815260200160405180910390a1565b600080546001600160a01b038381166001600160a01b0319831681178455604051919092169283917f8be0079c531659141344cd1fd0a4f28419497f9722a3daafe3b4186f6b6457e09190a35050565b61251c612379565b6002805460ff191660011790557f62e78cea01bee320cd4e420270b5ea74000d11b0c9f74754ebdbfc544b05a2586124a73390565b60025460ff166112d95760405162461bcd60e51b815260206004820152601460248201527314185d5cd8589b194e881b9bdd081c185d5cd95960621b604482015260640161089b565b8280548282559060005260206000209081019282156125e0579160200282015b828111156125e057825182906125d09082612fd0565b50916020019190600101906125ba565b506125ec9291506125f0565b5090565b808211156125ec576000612604828261260d565b506001016125f0565b50805461261990612f18565b6000825580601f10612629575050565b601f01602090049060005260206000209081019061230a91905b808211156125ec5760008155600101612643565b60006020828403121561266957600080fd5b5035919050565b6000815180845260005b818110156126965760208185018101518683018201520161267a565b506000602082860101526020601f19601f83011685010191505092915050565b60006101808e83528060208401526126d08184018f612670565b905082810360408401526126e4818e612670565b90508b606084015282810360808401526126fe818c612670565b6001600160a01b038b1660a085015260c084018a905260e0840189905287151561010085015283810361012085015290506127398187612670565b610140840195909552505061016001529a9950505050505050505050565b634e487b7160e01b600052604160045260246000fd5b604051601f8201601f1916810167ffffffffffffffff8111828210171561279657612796612757565b604052919050565b600082601f8301126127af57600080fd5b813567ffffffffffffffff8111156127c9576127c9612757565b6127dc601f8201601f191660200161276d565b8181528460208386010111156127f157600080fd5b816020850160208301376000918101602001919091529392505050565b60008060008060008060c0878903121561282757600080fd5b863567ffffffffffffffff8082111561283f57600080fd5b61284b8a838b0161279e565b9750602089013591508082111561286157600080fd5b61286d8a838b0161279e565b965060408901359550606089013591508082111561288a57600080fd5b6128968a838b0161279e565b94506080890135935060a08901359150808211156128b357600080fd5b506128c089828a0161279e565b9150509295509295509295565b80356001600160a01b03811681146128e457600080fd5b919050565b600080600080608085870312156128ff57600080fd5b84359350602085013592506040850135915061291d606086016128cd565b905092959194509250565b6000806040838503121561293b57600080fd5b50508035926020909101359150565b60e08152600061295d60e083018a612670565b828103602084015261296f818a612670565b905087604084015286606084015285608084015284151560a084015282810360c084015261299d8185612670565b9a9950505050505050505050565b803580151581146128e457600080fd5b600080600080600060a086880312156129d357600080fd5b85359450602086013567ffffffffffffffff808211156129f257600080fd5b6129fe89838a0161279e565b95506040880135915080821115612a1457600080fd5b612a2089838a0161279e565b94506060880135915080821115612a3657600080fd5b50612a438882890161279e565b925050612a52608087016129ab565b90509295509295909350565b602081528151602082015260006020830151610180806040850152612a876101a0850183612670565b91506040850151601f1980868503016060870152612aa58483612670565b93506060870151608087015260808701519150808685030160a0870152612acc8483612670565b935060a08701519150612aea60c08701836001600160a01b03169052565b60c087015160e087015260e08701519150610100828188015280880151925050610120612b1a8188018415159052565b80880151925050610140818786030181880152612b378584612670565b908801516101608881019190915290970151929095019190915250929392505050565b60008060408385031215612b6d57600080fd5b82359150612b7d602084016128cd565b90509250929050565b600082601f830112612b9757600080fd5b8135602067ffffffffffffffff80831115612bb457612bb4612757565b8260051b612bc383820161276d565b9384528581018301938381019088861115612bdd57600080fd5b84880192505b85831015612c1957823584811115612bfb5760008081fd5b612c098a87838c010161279e565b8352509184019190840190612be3565b98975050505050505050565b600080600080600080600060e0888a031215612c4057600080fd5b87359650602088013567ffffffffffffffff80821115612c5f57600080fd5b612c6b8b838c0161279e565b975060408a0135915080821115612c8157600080fd5b612c8d8b838c0161279e565b965060608a0135955060808a0135945060a08a0135915080821115612cb157600080fd5b612cbd8b838c0161279e565b935060c08a0135915080821115612cd357600080fd5b50612ce08a828b01612b86565b91505092959891949750929550565b600081518084526020808501808196508360051b8101915082860160005b85811015612d37578284038952612d25848351612670565b98850198935090840190600101612d0d565b5091979650505050505050565b6020815260008251610100806020850152612d63610120850183612670565b91506020850151601f1980868503016040870152612d818483612670565b93506040870151606087015260608701516080870152608087015160a087015260a08701519150612db660c087018315159052565b60c08701519150808685030160e0870152612dd18483612670565b935060e0870151915080868503018387015250612dee8382612cef565b9695505050505050565b60008060008060008060c08789031215612e1157600080fd5b8635955060208701359450604087013567ffffffffffffffff80821115612e3757600080fd5b612e438a838b0161279e565b95506060890135915080821115612e5957600080fd5b50612e6689828a0161279e565b93505060808701359150612e7c60a088016129ab565b90509295509295509295565b60008060408385031215612e9b57600080fd5b612ea4836128cd565b946020939093013593505050565b600060208284031215612ec457600080fd5b612ecd826128cd565b9392505050565b6020808252825182820181905260009190848201906040850190845b81811015612f0c57835183529284019291840191600101612ef0565b50909695505050505050565b600181811c90821680612f2c57607f821691505b602082108103612f4c57634e487b7160e01b600052602260045260246000fd5b50919050565b634e487b7160e01b600052601160045260246000fd5b600060018201612f7a57612f7a612f52565b5060010190565b601f821115612fcb57600081815260208120601f850160051c81016020861015612fa85750805b601f850160051c820191505b81811015612fc757828155600101612fb4565b5050505b505050565b815167ffffffffffffffff811115612fea57612fea612757565b612ffe81612ff88454612f18565b84612f81565b602080601f831160018114613033576000841561301b5750858301515b600019600386901b1c1916600185901b178555612fc7565b600085815260208120601f198616915b8281101561306257888601518255948401946001909101908401613043565b50858210156130805787850151600019600388901b60f8161c191681555b5050505050600190811b01905550565b6040815260006130a36040830185612670565b90508260208301529392505050565b602080825260139082015272496e76616c6964207469636b6574207479706560681b604082015260600190565b8082018082111561203457612034612f52565b808202811582820484141761203457612034612f52565b6000815461311681612f18565b808552602060018381168015613133576001811461314d5761317b565b60ff1985168884015283151560051b88018301955061317b565b866000528260002060005b858110156131735781548a8201860152908301908401613158565b890184019650505b505050505092915050565b600060c0820160018060a01b03891683526020888185015287604085015286606085015260c0608085015281865480845260e08601915060e08160051b8701019350876000528260002060005b828110156132005787860360df190184526131ee8683613109565b955092840192600191820191016131d3565b505050505082810360a08401526132178185613109565b9998505050505050505050565b60006020828403121561323657600080fd5b5051919050565b60008261325a57634e487b7160e01b600052601260045260246000fd5b500490565b8181038181111561203457612034612f52565b6020808252600e908201526d139bdd08185d5d1a1bdc9a5e995960921b604082015260600190565b6040815260006132ad6040830185612670565b905082151560208301529392505050565b634e487b7160e01b600052603260045260246000fd5b634e487b7160e01b600052603160045260246000fd5b6060815260006132fd6060830186612670565b6020830194909452506040015291905056fea2646970667358221220e0598f9f368f96c90769b8ae3133b70548aa83f78be1673fb9a2f984e8a42a5764736f6c634300081300336080604052620151806007556008805460ff191660011790553480156200002557600080fd5b50604051620022b4380380620022b48339810160408190526200004891620000cd565b62000053336200007d565b60018055600280546001600160a01b0319166001600160a01b0392909216919091179055620000ff565b600080546001600160a01b038381166001600160a01b0319831681178455604051919092169283917f8be0079c531659141344cd1fd0a4f28419497f9722a3daafe3b4186f6b6457e09190a35050565b600060208284031215620000e057600080fd5b81516001600160a01b0381168114620000f857600080fd5b9392505050565b6121a5806200010f6000396000f3fe608060405234801561001057600080fd5b506004361061014d5760003560e01c8063715018a6116100c3578063bd7b358c1161007c578063bd7b358c1461033d578063e67ca1ff14610350578063ea060ab814610370578063f180cdfb14610390578063f2fde38b146103a3578063f8e87226146103b657600080fd5b8063715018a61461028457806375a197bd1461028c5780638da5cb5b146102b85780639258effc146102dd578063af4b067414610306578063b393391b1461032a57600080fd5b80632b9b524e116101155780632b9b524e146101f35780632d395e4d146102165780633954acdc1461021f5780634d1de87b14610241578063587141631461024e5780635c4e79fb1461027157600080fd5b8063047564b7146101525780630b46382f14610167578063144673aa1461019a578063184cbf77146101ad578063210dd9c8146101e0575b600080fd5b610165610160366004611735565b6103d9565b005b610187610175366004611735565b60066020526000908152604090205481565b6040519081526020015b60405180910390f35b6101656101a8366004611759565b61042a565b6101d06101bb366004611759565b60046020526000908152604090205460ff1681565b6040519015158152602001610191565b6101656101ee366004611780565b61046e565b6101d0610201366004611759565b60009081526004602052604090205460ff1690565b61018760075481565b61023261022d366004611759565b6104b7565b6040516101919392919061183c565b6008546101d09060ff1681565b6101d061025c366004611735565b60056020526000908152604090205460ff1681565b61016561027f366004611a8c565b610604565b6101656107a4565b6101d061029a366004611735565b6001600160a01b031660009081526005602052604090205460ff1690565b6000546001600160a01b03165b6040516001600160a01b039091168152602001610191565b6101876102eb366004611735565b6001600160a01b031660009081526006602052604090205490565b610319610314366004611b69565b6107b8565b604051610191959493929190611b8b565b6002546102c5906001600160a01b031681565b61016561034b366004611735565b6108a2565b61036361035e366004611759565b6108f6565b6040516101919190611bcb565b61038361037e366004611759565b610a6c565b6040516101919190611bde565b61016561039e366004611c40565b610baa565b6101656103b1366004611735565b610fae565b6103c96103c4366004611759565b611027565b6040516101919493929190611c8f565b6103e16112a5565b6001600160a01b038116600081815260056020526040808220805460ff19169055517f4e45d5f81f991f0158c54bc2297a90790cd4a036412383fca25ba9173b2329d79190a250565b6104326112a5565b60078190556040518181527fa878fba5d2f2ccd7554a96f6529ad249bee68ff819650f47c9d48804a36f67b9906020015b60405180910390a150565b6104766112a5565b6008805460ff19168215159081179091556040519081527fe526d3f215842cd09ceeb01bda6efe27bf854f461ccf349f6d17a32814851d4890602001610463565b60006104c16116e6565b60008381526004602090815260408083205460039092529091205460ff909116925080156105fd576000848152600360205260409020610502600183611cda565b8154811061051257610512611cf3565b60009182526020918290206040805160a08101825260059093029091018054835260018101546001600160a01b031693830193909352600283015490820152600382015460ff161515606082015260048201805491929160808401919061057890611d09565b80601f01602080910402602001604051908101604052809291908181526020018280546105a490611d09565b80156105f15780601f106105c6576101008083540402835291602001916105f1565b820191906000526020600020905b8154815290600101906020018083116105d457829003601f168201915b50505050508152505091505b9193909250565b61060c6112ff565b60085460ff1661065c5760405162461bcd60e51b815260206004820152601660248201527515985b1a59185d1a5bdb881a5cc8191a5cd8589b195960521b60448201526064015b60405180910390fd5b3360009081526005602052604090205460ff168061068457506000546001600160a01b031633145b6106cb5760405162461bcd60e51b81526020600482015260186024820152772737ba1030baba3437b934bd32b2103b30b634b230ba37b960411b6044820152606401610653565b815183511480156106dd575080518351145b6107215760405162461bcd60e51b8152602060048201526015602482015274082e4e4c2f240d8cadccee8d040dad2e6dac2e8c6d605b1b6044820152606401610653565b60005b83518110156107955761078384828151811061074257610742611cf3565b602002602001015184838151811061075c5761075c611cf3565b602002602001015184848151811061077657610776611cf3565b6020026020010151611358565b8061078d81611d43565b915050610724565b5061079f60018055565b505050565b6107ac6112a5565b6107b66000611696565b565b600360205281600052604060002081815481106107d457600080fd5b6000918252602090912060059091020180546001820154600283015460038401546004850180549497506001600160a01b039093169550909360ff9091169290919061081f90611d09565b80601f016020809104026020016040519081016040528092919081815260200182805461084b90611d09565b80156108985780601f1061086d57610100808354040283529160200191610898565b820191906000526020600020905b81548152906001019060200180831161087b57829003601f168201915b5050505050905085565b6108aa6112a5565b6001600160a01b038116600081815260056020526040808220805460ff19166001179055517f7e7b46f96b81fdc950459cd1b69e84ba6672783d48c4626c47822c844eae56959190a250565b6108fe6116e6565b6000828152600360205260409020546109515760405162461bcd60e51b81526020600482015260156024820152744e6f2076616c69646174696f6e20686973746f727960581b6044820152606401610653565b6000828152600360205260409020805461096d90600190611cda565b8154811061097d5761097d611cf3565b60009182526020918290206040805160a08101825260059093029091018054835260018101546001600160a01b031693830193909352600283015490820152600382015460ff16151560608201526004820180549192916080840191906109e390611d09565b80601f0160208091040260200160405190810160405280929190818152602001828054610a0f90611d09565b8015610a5c5780601f10610a3157610100808354040283529160200191610a5c565b820191906000526020600020905b815481529060010190602001808311610a3f57829003601f168201915b5050505050815250509050919050565b606060036000838152602001908152602001600020805480602002602001604051908101604052809291908181526020016000905b82821015610b9f5760008481526020908190206040805160a081018252600586029092018054835260018101546001600160a01b031693830193909352600283015490820152600382015460ff1615156060820152600482018054919291608084019190610b0e90611d09565b80601f0160208091040260200160405190810160405280929190818152602001828054610b3a90611d09565b8015610b875780601f10610b5c57610100808354040283529160200191610b87565b820191906000526020600020905b815481529060010190602001808311610b6a57829003601f168201915b50505050508152505081526020019060010190610aa1565b505050509050919050565b610bb26112ff565b60085460ff16610bfd5760405162461bcd60e51b815260206004820152601660248201527515985b1a59185d1a5bdb881a5cc8191a5cd8589b195960521b6044820152606401610653565b3360009081526005602052604090205460ff1680610c2557506000546001600160a01b031633145b610c6c5760405162461bcd60e51b81526020600482015260186024820152772737ba1030baba3437b934bd32b2103b30b634b230ba37b960411b6044820152606401610653565b6002546040516331a9108f60e11b8152600481018590526000916001600160a01b031690636352211e90602401602060405180830381865afa158015610cb6573d6000803e3d6000fd5b505050506040513d601f19601f82011682018060405250810190610cda9190611d6c565b6001600160a01b031603610d285760405162461bcd60e51b8152602060048201526015602482015274151a58dad95d08191bd95cc81b9bdd08195e1a5cdd605a1b6044820152606401610653565b600254604051633ee1bcfd60e11b8152600481018590526000916001600160a01b031690637dc379fa90602401600060405180830381865afa158015610d72573d6000803e3d6000fd5b505050506040513d6000823e601f3d908101601f19168201604052610d9a9190810190611dd9565b6002548151604051630368c42760e51b81529293506000926001600160a01b0390921691636d1884e091610dd49160040190815260200190565b600060405180830381865afa158015610df1573d6000803e3d6000fd5b505050506040513d6000823e601f3d908101601f19168201604052610e199190810190611eed565b90506007548160600151610e2d9190612016565b421115610e7c5760405162461bcd60e51b815260206004820152601d60248201527f56616c69646174696f6e2077696e646f772068617320657870697265640000006044820152606401610653565b6040805160a08101825286815233602080830191825242838501908152881515606085019081526080850189815260008c81526003808652978120805460018082018355918352959091208751600590960201948555945194840180546001600160a01b0319166001600160a01b03909616959095179094559051600283015551938101805460ff19169415159490941790935551909182916004820190610f249082612077565b5050506000868152600460209081526040808320805460ff1916600117905533835260069091528120805491610f5983611d43565b9190505550336001600160a01b0316867f680916da3b1f71a4749d112832ac228d974e788c1b7f811ef7c86be7b485f5588787604051610f9a929190612137565b60405180910390a350505061079f60018055565b610fb66112a5565b6001600160a01b03811661101b5760405162461bcd60e51b815260206004820152602660248201527f4f776e61626c653a206e6577206f776e657220697320746865207a65726f206160448201526564647265737360d01b6064820152608401610653565b61102481611696565b50565b60025460405163fb3ae56f60e01b815260048101839052600091829182916060916001600160a01b039091169063fb3ae56f90602401602060405180830381865afa15801561107a573d6000803e3d6000fd5b505050506040513d601f19601f8201168201806040525081019061109e9190612152565b60008681526004602052604090205490945060ff16925083156111cc57600254604051633ee1bcfd60e11b8152600481018790526000916001600160a01b031690637dc379fa90602401600060405180830381865afa158015611105573d6000803e3d6000fd5b505050506040513d6000823e601f3d908101601f1916820160405261112d9190810190611dd9565b6002548151604051630368c42760e51b81529293506000926001600160a01b0390921691636d1884e0916111679160040190815260200190565b600060405180830381865afa158015611184573d6000803e3d6000fd5b505050506040513d6000823e601f3d908101601f191682016040526111ac9190810190611eed565b905060075481606001516111c09190612016565b421115935050506111d1565b600091505b83611201575060408051808201909152600e81526d151a58dad95d081a5b9d985b1a5960921b602082015261129e565b81611240575060408051808201909152601981527f56616c69646174696f6e2077696e646f77206578706972656400000000000000602082015261129e565b826112735750604080518082019091526011815270139bdd081d985b1a59185d1959081e595d607a1b602082015261129e565b5060408051808201909152601281527115985b1a5908185b99081d995c9a599a595960721b60208201525b9193509193565b6000546001600160a01b031633146107b65760405162461bcd60e51b815260206004820181905260248201527f4f776e61626c653a2063616c6c6572206973206e6f7420746865206f776e65726044820152606401610653565b6002600154036113515760405162461bcd60e51b815260206004820152601f60248201527f5265656e7472616e637947756172643a207265656e7472616e742063616c6c006044820152606401610653565b6002600155565b6002546040516331a9108f60e11b8152600481018590526000916001600160a01b031690636352211e90602401602060405180830381865afa1580156113a2573d6000803e3d6000fd5b505050506040513d601f19601f820116820180604052508101906113c69190611d6c565b6001600160a01b0316036114145760405162461bcd60e51b8152602060048201526015602482015274151a58dad95d08191bd95cc81b9bdd08195e1a5cdd605a1b6044820152606401610653565b600254604051633ee1bcfd60e11b8152600481018590526000916001600160a01b031690637dc379fa90602401600060405180830381865afa15801561145e573d6000803e3d6000fd5b505050506040513d6000823e601f3d908101601f191682016040526114869190810190611dd9565b6002548151604051630368c42760e51b81529293506000926001600160a01b0390921691636d1884e0916114c09160040190815260200190565b600060405180830381865afa1580156114dd573d6000803e3d6000fd5b505050506040513d6000823e601f3d908101601f191682016040526115059190810190611eed565b905060075481606001516115199190612016565b4211156115685760405162461bcd60e51b815260206004820152601d60248201527f56616c69646174696f6e2077696e646f772068617320657870697265640000006044820152606401610653565b6040805160a08101825286815233602080830191825242838501908152881515606085019081526080850189815260008c81526003808652978120805460018082018355918352959091208751600590960201948555945194840180546001600160a01b0319166001600160a01b03909616959095179094559051600283015551938101805460ff191694151594909417909355519091829160048201906116109082612077565b5050506000868152600460209081526040808320805460ff191660011790553383526006909152812080549161164583611d43565b9190505550336001600160a01b0316867f680916da3b1f71a4749d112832ac228d974e788c1b7f811ef7c86be7b485f5588787604051611686929190612137565b60405180910390a3505050505050565b600080546001600160a01b038381166001600160a01b0319831681178455604051919092169283917f8be0079c531659141344cd1fd0a4f28419497f9722a3daafe3b4186f6b6457e09190a35050565b6040518060a001604052806000815260200160006001600160a01b0316815260200160008152602001600015158152602001606081525090565b6001600160a01b038116811461102457600080fd5b60006020828403121561174757600080fd5b813561175281611720565b9392505050565b60006020828403121561176b57600080fd5b5035919050565b801515811461102457600080fd5b60006020828403121561179257600080fd5b813561175281611772565b60005b838110156117b85781810151838201526020016117a0565b50506000910152565b600081518084526117d981602086016020860161179d565b601f01601f19169290920160200192915050565b8051825260018060a01b036020820151166020830152604081015160408301526060810151151560608301526000608082015160a0608085015261183460a08501826117c1565b949350505050565b831515815260606020820152600061185760608301856117ed565b9050826040830152949350505050565b634e487b7160e01b600052604160045260246000fd5b60405160c0810167ffffffffffffffff811182821017156118a0576118a0611867565b60405290565b604051610140810167ffffffffffffffff811182821017156118a0576118a0611867565b604051601f8201601f1916810167ffffffffffffffff811182821017156118f3576118f3611867565b604052919050565b600067ffffffffffffffff82111561191557611915611867565b5060051b60200190565b600082601f83011261193057600080fd5b81356020611945611940836118fb565b6118ca565b82815260059290921b8401810191818101908684111561196457600080fd5b8286015b8481101561198857803561197b81611772565b8352918301918301611968565b509695505050505050565b600067ffffffffffffffff8211156119ad576119ad611867565b50601f01601f191660200190565b600082601f8301126119cc57600080fd5b81356119da61194082611993565b8181528460208386010111156119ef57600080fd5b816020850160208301376000918101602001919091529392505050565b600082601f830112611a1d57600080fd5b81356020611a2d611940836118fb565b82815260059290921b84018101918181019086841115611a4c57600080fd5b8286015b8481101561198857803567ffffffffffffffff811115611a705760008081fd5b611a7e8986838b01016119bb565b845250918301918301611a50565b600080600060608486031215611aa157600080fd5b833567ffffffffffffffff80821115611ab957600080fd5b818601915086601f830112611acd57600080fd5b81356020611add611940836118fb565b82815260059290921b8401810191818101908a841115611afc57600080fd5b948201945b83861015611b1a57853582529482019490820190611b01565b97505087013592505080821115611b3057600080fd5b611b3c8783880161191f565b93506040860135915080821115611b5257600080fd5b50611b5f86828701611a0c565b9150509250925092565b60008060408385031215611b7c57600080fd5b50508035926020909101359150565b85815260018060a01b0385166020820152836040820152821515606082015260a060808201526000611bc060a08301846117c1565b979650505050505050565b60208152600061175260208301846117ed565b6000602080830181845280855180835260408601915060408160051b870101925083870160005b82811015611c3357603f19888603018452611c218583516117ed565b94509285019290850190600101611c05565b5092979650505050505050565b600080600060608486031215611c5557600080fd5b833592506020840135611c6781611772565b9150604084013567ffffffffffffffff811115611c8357600080fd5b611b5f868287016119bb565b841515815283151560208201528215156040820152608060608201526000611cba60808301846117c1565b9695505050505050565b634e487b7160e01b600052601160045260246000fd5b81810381811115611ced57611ced611cc4565b92915050565b634e487b7160e01b600052603260045260246000fd5b600181811c90821680611d1d57607f821691505b602082108103611d3d57634e487b7160e01b600052602260045260246000fd5b50919050565b600060018201611d5557611d55611cc4565b5060010190565b8051611d6781611720565b919050565b600060208284031215611d7e57600080fd5b815161175281611720565b600082601f830112611d9a57600080fd5b8151611da861194082611993565b818152846020838601011115611dbd57600080fd5b61183482602083016020870161179d565b8051611d6781611772565b60006020808385031215611dec57600080fd5b825167ffffffffffffffff80821115611e0457600080fd5b9084019060c08287031215611e1857600080fd5b611e2061187d565b8251815283830151848201526040830151604082015260608301516060820152608083015182811115611e5257600080fd5b8301601f81018813611e6357600080fd5b8051611e71611940826118fb565b81815260059190911b8201860190868101908a831115611e9057600080fd5b8784015b83811015611ec857805187811115611eac5760008081fd5b611eba8d8b83890101611d89565b845250918801918801611e94565b50608085015250611ede91505060a08401611dce565b60a08201529695505050505050565b600060208284031215611eff57600080fd5b815167ffffffffffffffff80821115611f1757600080fd5b908301906101408286031215611f2c57600080fd5b611f346118a6565b82518152602083015182811115611f4a57600080fd5b611f5687828601611d89565b602083015250604083015182811115611f6e57600080fd5b611f7a87828601611d89565b60408301525060608301516060820152608083015182811115611f9c57600080fd5b611fa887828601611d89565b608083015250611fba60a08401611d5c565b60a082015260c083015160c082015260e083015160e0820152610100611fe1818501611dce565b908201526101208381015183811115611ff957600080fd5b61200588828701611d89565b918301919091525095945050505050565b80820180821115611ced57611ced611cc4565b601f82111561079f57600081815260208120601f850160051c810160208610156120505750805b601f850160051c820191505b8181101561206f5782815560010161205c565b505050505050565b815167ffffffffffffffff81111561209157612091611867565b6120a58161209f8454611d09565b84612029565b602080601f8311600181146120da57600084156120c25750858301515b600019600386901b1c1916600185901b17855561206f565b600085815260208120601f198616915b82811015612109578886015182559484019460019091019084016120ea565b50858210156121275787850151600019600388901b60f8161c191681555b5050505050600190811b01905550565b821515815260406020820152600061183460408301846117c1565b60006020828403121561216457600080fd5b81516117528161177256fea264697066735822122055cb783fbb0220bf55e0d0bf431c6b7335ed0a8f2f848bdd8d86da81862cac0664736f6c63430008130033608060405260fa60065534801561001557600080fd5b50600160005561002433610029565b61007b565b600180546001600160a01b038381166001600160a01b0319831681179093556040519116919082907f8be0079c531659141344cd1fd0a4f28419497f9722a3daafe3b4186f6b6457e090600090a35050565b6117a08061008a6000396000f3fe60806040526004361061011f5760003560e01c8063715018a6116100a0578063aa0b598811610064578063aa0b598814610395578063c4604943146103b5578063de74e57b146103d5578063f2fde38b1461048e578063fbf30c35146104ae57600080fd5b8063715018a6146102ea5780637c5180be146102ff57806382102998146103375780638c639a85146103575780638da5cb5b1461036d57600080fd5b806339bbf609116100e757806339bbf6091461026a5780633ccfd60b1461027f5780635f42da091461029457806367d81740146102c157806367dd74ca146102d757600080fd5b8063054564f014610124578063107a274a14610157578063150b7a02146101e3578063248d9aa314610228578063305a67a814610248575b600080fd5b34801561013057600080fd5b5061014461013f3660046114de565b6104c3565b6040519081526020015b60405180910390f35b34801561016357600080fd5b5061017761017236600461150a565b6104f4565b60408051825181526020808401516001600160a01b0390811691830191909152838301511691810191909152606080830151908201526080808301519082015260a08083015115159082015260c0808301519082015260e091820151918101919091526101000161014e565b3480156101ef57600080fd5b5061020f6101fe366004611523565b630a85bd0160e11b95945050505050565b6040516001600160e01b0319909116815260200161014e565b34801561023457600080fd5b506101446102433660046114de565b6105d0565b34801561025457600080fd5b5061026861026336600461150a565b6105fb565b005b34801561027657600080fd5b5061014461071a565b34801561028b57600080fd5b50610268610735565b3480156102a057600080fd5b506102b46102af3660046115c2565b6107c0565b60405161014e91906115e6565b3480156102cd57600080fd5b506101446103e881565b6102686102e536600461150a565b61082c565b3480156102f657600080fd5b50610268610c56565b34801561030b57600080fd5b5061014461031a3660046114de565b600460209081526000928352604080842090915290825290205481565b34801561034357600080fd5b5061014461035236600461162a565b610c6a565b34801561036357600080fd5b5061014460065481565b34801561037957600080fd5b506001546040516001600160a01b03909116815260200161014e565b3480156103a157600080fd5b506102686103b036600461150a565b6111af565b3480156103c157600080fd5b506102686103d0366004611665565b611233565b3480156103e157600080fd5b506104456103f036600461150a565b60036020819052600091825260409091208054600182015460028301549383015460048401546005850154600686015460079096015494966001600160a01b03948516969416949293919260ff909116919088565b604080519889526001600160a01b0397881660208a0152959096169487019490945260608601929092526080850152151560a084015260c083015260e08201526101000161014e565b34801561049a57600080fd5b506102686104a93660046115c2565b611343565b3480156104ba57600080fd5b506101446113b9565b600560205281600052604060002081815481106104df57600080fd5b90600052602060002001600091509150505481565b6105506040518061010001604052806000815260200160006001600160a01b0316815260200160006001600160a01b03168152602001600081526020016000815260200160001515815260200160008152602001600081525090565b506000908152600360208181526040928390208351610100810185528154815260018201546001600160a01b039081169382019390935260028201549092169382019390935290820154606082015260048201546080820152600582015460ff16151560a0820152600682015460c082015260079091015460e082015290565b6001600160a01b03821660009081526004602090815260408083208484529091529020545b92915050565b6000818152600360205260409020600581015460ff166106365760405162461bcd60e51b815260040161062d90611687565b60405180910390fd5b60018101546001600160a01b031633148061065b57506001546001600160a01b031633145b6106b55760405162461bcd60e51b815260206004820152602560248201527f4e6f7420617574686f72697a656420746f2063616e63656c2074686973206c696044820152647374696e6760d81b606482015260840161062d565b60058101805460ff1916905560028101546001600160a01b03166000908152600460209081526040808320600385015484529091528082208290555183917f411aee90354c51b1b04cd563fcab2617142a9d50da19232d888547c8a1b7fd8a91a25050565b600061072560025490565b6107309060016116cc565b905090565b61073d6113c4565b47806107825760405162461bcd60e51b81526020600482015260146024820152734e6f2066756e647320746f20776974686472617760601b604482015260640161062d565b6001546040516001600160a01b039091169082156108fc029083906000818181858888f193505050501580156107bc573d6000803e3d6000fd5b5050565b6001600160a01b03811660009081526005602090815260409182902080548351818402810184019094528084526060939283018282801561082057602002820191906000526020600020905b81548152602001906001019080831161080c575b50505050509050919050565b61083461141e565b6000818152600360205260409020600581015460ff166108665760405162461bcd60e51b815260040161062d90611687565b6001810154336001600160a01b03909116036108c45760405162461bcd60e51b815260206004820152601b60248201527f43616e6e6f742062757920796f7572206f776e206c697374696e670000000000604482015260640161062d565b806004015434101561090f5760405162461bcd60e51b8152602060048201526014602482015273125b9cdd59999a58da595b9d081c185e5b595b9d60621b604482015260640161062d565b80600701544211156109595760405162461bcd60e51b8152602060048201526013602482015272131a5cdd1a5b99c81a185cc8195e1c1a5c9959606a1b604482015260640161062d565b6001810154600282015460038301546040516331a9108f60e11b815260048101919091526001600160a01b039283169290911690636352211e90602401602060405180830381865afa1580156109b3573d6000803e3d6000fd5b505050506040513d601f19601f820116820180604052508101906109d791906116df565b6001600160a01b031614610a2d5760405162461bcd60e51b815260206004820181905260248201527f53656c6c6572206e6f206c6f6e676572206f776e73207468697320746f6b656e604482015260640161062d565b60058101805460ff1916905560028101546001600160a01b031660009081526004602081815260408084206003860154855290915282208290556006549083015461271091610a7b916116fc565b610a859190611713565b90506000818360040154610a999190611735565b600284015460018501546003860154604051632142170760e11b81526001600160a01b039283166004820152336024820152604481019190915292935016906342842e0e90606401600060405180830381600087803b158015610afb57600080fd5b505af1158015610b0f573d6000803e3d6000fd5b505050506000821115610b58576001546040516001600160a01b039091169083156108fc029084906000818181858888f19350505050158015610b56573d6000803e3d6000fd5b505b60018301546040516001600160a01b039091169082156108fc029083906000818181858888f19350505050158015610b94573d6000803e3d6000fd5b508260040154341115610be057600483015433906108fc90610bb69034611735565b6040518115909202916000818181858888f19350505050158015610bde573d6000803e3d6000fd5b505b6001830154600284015460038501546004860154604080516001600160a01b03948516815260208101939093528201523392919091169086907f163027a757873e3a5e5c515b2ba3e2ca42d1cbdbae0059ec30ca985ba93315f29060600160405180910390a4505050610c536001600055565b50565b610c5e6113c4565b610c686000611477565b565b6000610c7461141e565b60008311610cc45760405162461bcd60e51b815260206004820152601c60248201527f5072696365206d7573742062652067726561746572207468616e203000000000604482015260640161062d565b428211610d135760405162461bcd60e51b815260206004820181905260248201527f45787069726174696f6e206d75737420626520696e2074686520667574757265604482015260640161062d565b6040516331a9108f60e11b81526004810185905233906001600160a01b03871690636352211e90602401602060405180830381865afa158015610d5a573d6000803e3d6000fd5b505050506040513d601f19601f82011682018060405250810190610d7e91906116df565b6001600160a01b031614610dd45760405162461bcd60e51b815260206004820152601b60248201527f4e6f7420746865206f776e6572206f66207468697320746f6b656e0000000000604482015260640161062d565b60405163e985e9c560e01b81523360048201523060248201526001600160a01b0386169063e985e9c590604401602060405180830381865afa158015610e1e573d6000803e3d6000fd5b505050506040513d601f19601f82011682018060405250810190610e429190611748565b80610ebe575060405163020604bf60e21b81526004810185905230906001600160a01b0387169063081812fc90602401602060405180830381865afa158015610e8f573d6000803e3d6000fd5b505050506040513d601f19601f82011682018060405250810190610eb391906116df565b6001600160a01b0316145b610f1f5760405162461bcd60e51b815260206004820152602c60248201527f436f6e7472616374206e6f7420617070726f76656420746f207472616e73666560448201526b39103a3434b9903a37b5b2b760a11b606482015260840161062d565b6001600160a01b038516600090815260046020908152604080832087845290915290205415610f875760405162461bcd60e51b8152602060048201526014602482015273151bdad95b88185b1c9958591e481b1a5cdd195960621b604482015260640161062d565b610f95600280546001019055565b6000610fa060025490565b9050604051806101000160405280828152602001336001600160a01b03168152602001876001600160a01b0316815260200186815260200185815260200160011515815260200142815260200184815250600360008381526020019081526020016000206000820151816000015560208201518160010160006101000a8154816001600160a01b0302191690836001600160a01b0316021790555060408201518160020160006101000a8154816001600160a01b0302191690836001600160a01b03160217905550606082015181600301556080820151816004015560a08201518160050160006101000a81548160ff02191690831515021790555060c0820151816006015560e082015181600701559050508060046000886001600160a01b03166001600160a01b0316815260200190815260200160002060008781526020019081526020016000208190555060056000336001600160a01b03166001600160a01b03168152602001908152602001600020819080600181540180825580915050600190039060005260206000200160009091909190915055856001600160a01b0316336001600160a01b0316827f10ccd3db64e020bee1072a945d7979da170049ee93d58b34838cbd6feac14634888888604051611193939291909283526020830191909152604082015260600190565b60405180910390a490506111a76001600055565b949350505050565b6111b76113c4565b6103e88111156111f85760405162461bcd60e51b815260206004820152600c60248201526b08ccaca40e8dede40d0d2ced60a31b604482015260640161062d565b60068190556040518181527f45610d581145924dd7090a5017e5f2b1d6f42213bb2e95707ff86846bbfcb1ca9060200160405180910390a150565b6000828152600360205260409020600581015460ff166112655760405162461bcd60e51b815260040161062d90611687565b60018101546001600160a01b031633146112b25760405162461bcd60e51b815260206004820152600e60248201526d2737ba103a34329039b2b63632b960911b604482015260640161062d565b600082116113025760405162461bcd60e51b815260206004820152601c60248201527f5072696365206d7573742062652067726561746572207468616e203000000000604482015260640161062d565b6004810182905560405182815283907f66bcde9f7aec9b81719a4fdec54cbafbf6c834d1f2f989d9cd2134dab8d0c0de9060200160405180910390a2505050565b61134b6113c4565b6001600160a01b0381166113b05760405162461bcd60e51b815260206004820152602660248201527f4f776e61626c653a206e6577206f776e657220697320746865207a65726f206160448201526564647265737360d01b606482015260840161062d565b610c5381611477565b600061073060025490565b6001546001600160a01b03163314610c685760405162461bcd60e51b815260206004820181905260248201527f4f776e61626c653a2063616c6c6572206973206e6f7420746865206f776e6572604482015260640161062d565b6002600054036114705760405162461bcd60e51b815260206004820152601f60248201527f5265656e7472616e637947756172643a207265656e7472616e742063616c6c00604482015260640161062d565b6002600055565b600180546001600160a01b038381166001600160a01b0319831681179093556040519116919082907f8be0079c531659141344cd1fd0a4f28419497f9722a3daafe3b4186f6b6457e090600090a35050565b6001600160a01b0381168114610c5357600080fd5b600080604083850312156114f157600080fd5b82356114fc816114c9565b946020939093013593505050565b60006020828403121561151c57600080fd5b5035919050565b60008060008060006080868803121561153b57600080fd5b8535611546816114c9565b94506020860135611556816114c9565b935060408601359250606086013567ffffffffffffffff8082111561157a57600080fd5b818801915088601f83011261158e57600080fd5b81358181111561159d57600080fd5b8960208285010111156115af57600080fd5b9699959850939650602001949392505050565b6000602082840312156115d457600080fd5b81356115df816114c9565b9392505050565b6020808252825182820181905260009190848201906040850190845b8181101561161e57835183529284019291840191600101611602565b50909695505050505050565b6000806000806080858703121561164057600080fd5b843561164b816114c9565b966020860135965060408601359560600135945092505050565b6000806040838503121561167857600080fd5b50508035926020909101359150565b6020808252601590820152744c697374696e67206973206e6f742061637469766560581b604082015260600190565b634e487b7160e01b600052601160045260246000fd5b808201808211156105f5576105f56116b6565b6000602082840312156116f157600080fd5b81516115df816114c9565b80820281158282048414176105f5576105f56116b6565b60008261173057634e487b7160e01b600052601260045260246000fd5b500490565b818103818111156105f5576105f56116b6565b60006020828403121561175a57600080fd5b815180151581146115df57600080fdfea264697066735822122099c87071ee47c9908226e3a72ed38cb0ce354c413a1a65e12ab9fbd4b08e78de64736f6c6343000813003360806040523480156200001157600080fd5b506040518060400160405280601081526020016f5469636b42617365205469636b65747360801b815250604051806040016040528060048152602001635449434b60e01b815250816000908162000069919062000196565b50600162000078828262000196565b505050620000956200008f6200009b60201b60201c565b6200009f565b62000262565b3390565b600780546001600160a01b038381166001600160a01b0319831681179093556040519116919082907f8be0079c531659141344cd1fd0a4f28419497f9722a3daafe3b4186f6b6457e090600090a35050565b634e487b7160e01b600052604160045260246000fd5b600181811c908216806200011c57607f821691505b6020821081036200013d57634e487b7160e01b600052602260045260246000fd5b50919050565b601f8211156200019157600081815260208120601f850160051c810160208610156200016c5750805b601f850160051c820191505b818110156200018d5782815560010162000178565b5050505b505050565b81516001600160401b03811115620001b257620001b2620000f1565b620001ca81620001c3845462000107565b8462000143565b602080601f831160018114620002025760008415620001e95750858301515b600019600386901b1c1916600185901b1785556200018d565b600085815260208120601f198616915b82811015620002335788860151825594840194600190910190840162000212565b5085821015620002525787850151600019600388901b60f8161c191681555b5050505050600190811b01905550565b613b7780620002726000396000f3fe6080604052600436106101f95760003560e01c8063587141631161010d57806395d89b41116100a0578063c87b56dd1161006f578063c87b56dd14610688578063e985e9c5146106a8578063f2fde38b146106c8578063fb3ae56f146106e8578063fc8c1b9b1461070857600080fd5b806395d89b4114610613578063a22cb46514610628578063b88d4fde14610648578063bd7b358c1461066857600080fd5b8063715018a6116100dc578063715018a61461058357806371efdc21146105985780637dc379fa146105c85780638da5cb5b146105f557600080fd5b806358714163146104e65780636352211e146105165780636d1884e01461053657806370a082311461056357600080fd5b8063266064481161019057806342842e0e1161015f57806342842e0e146103f957806342966c681461041957806350b447121461043957806352c55db9146104b057806358298b02146104c657600080fd5b806326606448146103535780632a55205a14610373578063335477fc146103b25780633ccfd60b146103e457600080fd5b8063095ea7b3116101cc578063095ea7b3146102af5780630b791430146102cf57806311fa5bee1461030557806323b872dd1461033357600080fd5b806301ffc9a7146101fe578063047564b71461023357806306fdde0314610255578063081812fc14610277575b600080fd5b34801561020a57600080fd5b5061021e610219366004612eb7565b61071b565b60405190151581526020015b60405180910390f35b34801561023f57600080fd5b5061025361024e366004612ef0565b610746565b005b34801561026157600080fd5b5061026a610797565b60405161022a9190612f5b565b34801561028357600080fd5b50610297610292366004612f6e565b610829565b6040516001600160a01b03909116815260200161022a565b3480156102bb57600080fd5b506102536102ca366004612f87565b610850565b3480156102db57600080fd5b506102ef6102ea366004612f6e565b61096a565b60405161022a9a99989796959493929190612fb1565b34801561031157600080fd5b50610325610320366004613104565b610be9565b60405190815260200161022a565b34801561033f57600080fd5b5061025361034e3660046131c3565b610d65565b34801561035f57600080fd5b5061025361036e366004612f6e565b610d97565b34801561037f57600080fd5b5061039361038e3660046131ff565b610f6c565b604080516001600160a01b03909316835260208301919091520161022a565b3480156103be57600080fd5b506103c760fa81565b6040516bffffffffffffffffffffffff909116815260200161022a565b3480156103f057600080fd5b50610253610ff3565b34801561040557600080fd5b506102536104143660046131c3565b61107e565b34801561042557600080fd5b50610253610434366004612f6e565b611099565b34801561044557600080fd5b50610486610454366004612f6e565b600a60205260009081526040902080546001820154600283015460038401546005909401549293919290919060ff1685565b6040805195865260208601949094529284019190915260608301521515608082015260a00161022a565b3480156104bc57600080fd5b50610325600d5481565b6104d96104d4366004613412565b6110ca565b60405161022a91906134df565b3480156104f257600080fd5b5061021e610501366004612ef0565b600c6020526000908152604090205460ff1681565b34801561052257600080fd5b50610297610531366004612f6e565b61150d565b34801561054257600080fd5b50610556610551366004612f6e565b61156d565b60405161022a9190613523565b34801561056f57600080fd5b5061032561057e366004612ef0565b61188a565b34801561058f57600080fd5b50610253611910565b3480156105a457600080fd5b5061021e6105b3366004612f6e565b600b6020526000908152604090205460ff1681565b3480156105d457600080fd5b506105e86105e3366004612f6e565b611924565b60405161022a9190613602565b34801561060157600080fd5b506007546001600160a01b0316610297565b34801561061f57600080fd5b5061026a611ae2565b34801561063457600080fd5b506102536106433660046136a4565b611af1565b34801561065457600080fd5b506102536106633660046136e0565b611afc565b34801561067457600080fd5b50610253610683366004612ef0565b611b34565b34801561069457600080fd5b5061026a6106a3366004612f6e565b611b88565b3480156106b457600080fd5b5061021e6106c336600461375c565b611b93565b3480156106d457600080fd5b506102536106e3366004612ef0565b611bc1565b3480156106f457600080fd5b5061021e610703366004612f6e565b611c37565b61032561071636600461378f565b611f69565b60006001600160e01b0319821663152a902d60e11b14806107405750610740826121e3565b92915050565b61074e612208565b6001600160a01b0381166000818152600c6020526040808220805460ff19169055517f4e45d5f81f991f0158c54bc2297a90790cd4a036412383fca25ba9173b2329d79190a250565b6060600080546107a690613805565b80601f01602080910402602001604051908101604052809291908181526020018280546107d290613805565b801561081f5780601f106107f45761010080835404028352916020019161081f565b820191906000526020600020905b81548152906001019060200180831161080257829003601f168201915b5050505050905090565b600061083482612262565b506000908152600460205260409020546001600160a01b031690565b600061085b8261150d565b9050806001600160a01b0316836001600160a01b0316036108cd5760405162461bcd60e51b815260206004820152602160248201527f4552433732313a20617070726f76616c20746f2063757272656e74206f776e656044820152603960f91b60648201526084015b60405180910390fd5b336001600160a01b03821614806108e957506108e98133611b93565b61095b5760405162461bcd60e51b815260206004820152603d60248201527f4552433732313a20617070726f76652063616c6c6572206973206e6f7420746f60448201527f6b656e206f776e6572206f7220617070726f76656420666f7220616c6c00000060648201526084016108c4565b61096583836122b2565b505050565b6009602052600090815260409020805460018201805491929161098c90613805565b80601f01602080910402602001604051908101604052809291908181526020018280546109b890613805565b8015610a055780601f106109da57610100808354040283529160200191610a05565b820191906000526020600020905b8154815290600101906020018083116109e857829003601f168201915b505050505090806002018054610a1a90613805565b80601f0160208091040260200160405190810160405280929190818152602001828054610a4690613805565b8015610a935780601f10610a6857610100808354040283529160200191610a93565b820191906000526020600020905b815481529060010190602001808311610a7657829003601f168201915b505050505090806003015490806004018054610aae90613805565b80601f0160208091040260200160405190810160405280929190818152602001828054610ada90613805565b8015610b275780601f10610afc57610100808354040283529160200191610b27565b820191906000526020600020905b815481529060010190602001808311610b0a57829003601f168201915b505050600584015460068501546007860154600887015460098801805497986001600160a01b039095169793965091945060ff169291610b6690613805565b80601f0160208091040260200160405190810160405280929190818152602001828054610b9290613805565b8015610bdf5780601f10610bb457610100808354040283529160200191610bdf565b820191906000526020600020905b815481529060010190602001808311610bc257829003601f168201915b505050505090508a565b600d805460009182610bfa83613855565b9091555050600d54604080516101408101825282815260208082018b81528284018b9052606083018a9052608083018990523360a084015260c08301889052600060e0840181905260016101008501819052610120850189905286825260099093529390932082518155925191929190820190610c7790826138bc565b5060408201516002820190610c8c90826138bc565b506060820151600382015560808201516004820190610cab90826138bc565b5060a08201516005820180546001600160a01b0319166001600160a01b0390921691909117905560c0820151600682015560e0820151600782015561010082015160088201805460ff19169115159190911790556101208201516009820190610d1490826138bc565b50905050336001600160a01b0316817f40fb05b814a900c99fa0a76d919dfdeaf3389540e4ca70f97ba40ca9a38f37978a604051610d529190612f5b565b60405180910390a3979650505050505050565b610d70335b82612320565b610d8c5760405162461bcd60e51b81526004016108c49061397c565b61096583838361237f565b336000908152600c602052604090205460ff1680610dbf57506007546001600160a01b031633145b610e0b5760405162461bcd60e51b815260206004820152601860248201527f4e6f7420617574686f72697a65642076616c696461746f72000000000000000060448201526064016108c4565b610e14816124e3565b610e585760405162461bcd60e51b8152602060048201526015602482015274151a58dad95d08191bd95cc81b9bdd08195e1a5cdd605a1b60448201526064016108c4565b6000818152600b602052604090205460ff1615610ead5760405162461bcd60e51b8152602060048201526013602482015272151a58dad95d08185b1c9958591e481d5cd959606a1b60448201526064016108c4565b6000818152600a602090815260408083205483526009909152902060030154610ed990620151806139c9565b421115610f1a5760405162461bcd60e51b815260206004820152600f60248201526e115d995b9d081a185cc8195b991959608a1b60448201526064016108c4565b6000818152600b60209081526040808320805460ff19166001179055600a909152808220549051909183917fad0a02848182e7d3a9bb0ae2cc919bdef92f9da6b0a45ced3656cf5443212ede9190a350565b600080610f78846124e3565b610fbb5760405162461bcd60e51b8152602060048201526014602482015273151bdad95b88191bd95cc81b9bdd08195e1a5cdd60621b60448201526064016108c4565b6000612710610fcb60fa866139dc565b610fd591906139f3565b9050610fe96007546001600160a01b031690565b9590945092505050565b610ffb612208565b47806110405760405162461bcd60e51b81526020600482015260146024820152734e6f2066756e647320746f20776974686472617760601b60448201526064016108c4565b6007546040516001600160a01b039091169082156108fc029083906000818181858888f1935050505015801561107a573d6000803e3d6000fd5b5050565b61096583838360405180602001604052806000815250611afc565b6110a233610d6a565b6110be5760405162461bcd60e51b81526004016108c49061397c565b6110c781612500565b50565b6060845187511480156110de575083518751145b6111225760405162461bcd60e51b8152602060048201526015602482015274082e4e4c2f240d8cadccee8d040dad2e6dac2e8c6d605b1b60448201526064016108c4565b60008681526009602052604090206008015460ff166111795760405162461bcd60e51b81526020600482015260136024820152724576656e74206973206e6f742061637469766560681b60448201526064016108c4565b6000875167ffffffffffffffff81111561119557611195613045565b6040519080825280602002602001820160405280156111be578160200160208202803683370190505b5090506000805b8651811015611207578681815181106111e0576111e0613a15565b6020026020010151826111f391906139c9565b9150806111ff81613855565b9150506111c5565b508034101561124f5760405162461bcd60e51b8152602060048201526014602482015273125b9cdd59999a58da595b9d081c185e5b595b9d60621b60448201526064016108c4565b60005b89518110156114995760008981526009602052604090206006810154600790910154106112b25760405162461bcd60e51b815260206004820152600e60248201526d115d995b9d081cdbdb19081bdd5d60921b60448201526064016108c4565b600880549060006112c283613855565b9190505550600060085490506112f18b83815181106112e3576112e3613a15565b602002602001015182612509565b6113148187848151811061130757611307613a15565b6020026020010151612523565b6040518060c001604052808b81526020018a848151811061133757611337613a15565b6020026020010151815260200189848151811061135657611356613a15565b6020026020010151815260200142815260200188848151811061137b5761137b613a15565b602090810291909101810151825260019181018290526000848152600a8252604090819020845181558483015193810193909355830151600283015560608301516003830155608083015180516113d89260048501920190612ddf565b5060a091909101516005909101805460ff191691151591909117905560008a815260096020526040812060070180549161141183613855565b91905055508084838151811061142957611429613a15565b6020026020010181815250508a828151811061144757611447613a15565b60200260200101516001600160a01b03168a827f085ec0eff4bf526b0dd054adffcd8bd8da42126a1133ce302042973f32029fb060405160405180910390a4508061149181613855565b915050611252565b5060006103e86114ab346103cf6139dc565b6114b591906139f3565b60008a8152600960205260408082206005015490519293506001600160a01b03169183156108fc0291849190818181858888f193505050501580156114fe573d6000803e3d6000fd5b50919998505050505050505050565b6000818152600260205260408120546001600160a01b0316806107405760405162461bcd60e51b8152602060048201526018602482015277115490cdcc8c4e881a5b9d985b1a59081d1bdad95b88125160421b60448201526064016108c4565b6115ce604051806101400160405280600081526020016060815260200160608152602001600081526020016060815260200160006001600160a01b031681526020016000815260200160008152602001600015158152602001606081525090565b60096000838152602001908152602001600020604051806101400160405290816000820154815260200160018201805461160790613805565b80601f016020809104026020016040519081016040528092919081815260200182805461163390613805565b80156116805780601f1061165557610100808354040283529160200191611680565b820191906000526020600020905b81548152906001019060200180831161166357829003601f168201915b5050505050815260200160028201805461169990613805565b80601f01602080910402602001604051908101604052809291908181526020018280546116c590613805565b80156117125780601f106116e757610100808354040283529160200191611712565b820191906000526020600020905b8154815290600101906020018083116116f557829003601f168201915b505050505081526020016003820154815260200160048201805461173590613805565b80601f016020809104026020016040519081016040528092919081815260200182805461176190613805565b80156117ae5780601f10611783576101008083540402835291602001916117ae565b820191906000526020600020905b81548152906001019060200180831161179157829003601f168201915b505050918352505060058201546001600160a01b031660208201526006820154604082015260078201546060820152600882015460ff161515608082015260098201805460a09092019161180190613805565b80601f016020809104026020016040519081016040528092919081815260200182805461182d90613805565b801561187a5780601f1061184f5761010080835404028352916020019161187a565b820191906000526020600020905b81548152906001019060200180831161185d57829003601f168201915b5050505050815250509050919050565b60006001600160a01b0382166118f45760405162461bcd60e51b815260206004820152602960248201527f4552433732313a2061646472657373207a65726f206973206e6f7420612076616044820152683634b21037bbb732b960b91b60648201526084016108c4565b506001600160a01b031660009081526003602052604090205490565b611918612208565b61192260006125df565b565b61195f6040518060c0016040528060008152602001600081526020016000815260200160008152602001606081526020016000151581525090565b611968826124e3565b6119ac5760405162461bcd60e51b8152602060048201526015602482015274151a58dad95d08191bd95cc81b9bdd08195e1a5cdd605a1b60448201526064016108c4565b600a60008381526020019081526020016000206040518060c00160405290816000820154815260200160018201548152602001600282015481526020016003820154815260200160048201805480602002602001604051908101604052809291908181526020016000905b82821015611ac3578382906000526020600020018054611a3690613805565b80601f0160208091040260200160405190810160405280929190818152602001828054611a6290613805565b8015611aaf5780601f10611a8457610100808354040283529160200191611aaf565b820191906000526020600020905b815481529060010190602001808311611a9257829003601f168201915b505050505081526020019060010190611a17565b505050908252506005919091015460ff16151560209091015292915050565b6060600180546107a690613805565b61107a338383612631565b611b063383612320565b611b225760405162461bcd60e51b81526004016108c49061397c565b611b2e848484846126ff565b50505050565b611b3c612208565b6001600160a01b0381166000818152600c6020526040808220805460ff19166001179055517f7e7b46f96b81fdc950459cd1b69e84ba6672783d48c4626c47822c844eae56959190a250565b606061074082612732565b6001600160a01b03918216600090815260056020908152604080832093909416825291909152205460ff1690565b611bc9612208565b6001600160a01b038116611c2e5760405162461bcd60e51b815260206004820152602660248201527f4f776e61626c653a206e6577206f776e657220697320746865207a65726f206160448201526564647265737360d01b60648201526084016108c4565b6110c7816125df565b6000611c42826124e3565b611c4e57506000919050565b6000828152600b602052604090205460ff1615611c6d57506000919050565b6000828152600a602090815260408083205483526009825280832081516101408101909252805482526001810180549293919291840191611cad90613805565b80601f0160208091040260200160405190810160405280929190818152602001828054611cd990613805565b8015611d265780601f10611cfb57610100808354040283529160200191611d26565b820191906000526020600020905b815481529060010190602001808311611d0957829003601f168201915b50505050508152602001600282018054611d3f90613805565b80601f0160208091040260200160405190810160405280929190818152602001828054611d6b90613805565b8015611db85780601f10611d8d57610100808354040283529160200191611db8565b820191906000526020600020905b815481529060010190602001808311611d9b57829003601f168201915b5050505050815260200160038201548152602001600482018054611ddb90613805565b80601f0160208091040260200160405190810160405280929190818152602001828054611e0790613805565b8015611e545780601f10611e2957610100808354040283529160200191611e54565b820191906000526020600020905b815481529060010190602001808311611e3757829003601f168201915b505050918352505060058201546001600160a01b031660208201526006820154604082015260078201546060820152600882015460ff161515608082015260098201805460a090920191611ea790613805565b80601f0160208091040260200160405190810160405280929190818152602001828054611ed390613805565b8015611f205780601f10611ef557610100808354040283529160200191611f20565b820191906000526020600020905b815481529060010190602001808311611f0357829003601f168201915b5050505050815250509050806101000151611f3e5750600092915050565b6060810151611f5090620151806139c9565b421115611f605750600092915050565b50600192915050565b60008581526009602052604081206008015460ff16611fc05760405162461bcd60e51b81526020600482015260136024820152724576656e74206973206e6f742061637469766560681b60448201526064016108c4565b60008681526009602052604090206006810154600790910154106120175760405162461bcd60e51b815260206004820152600e60248201526d115d995b9d081cdbdb19081bdd5d60921b60448201526064016108c4565b8334101561205e5760405162461bcd60e51b8152602060048201526014602482015273125b9cdd59999a58da595b9d081c185e5b595b9d60621b60448201526064016108c4565b6008805490600061206e83613855565b90915550506008546120808882612509565b61208a8184612523565b6040805160c08101825288815260208082018981528284018981524260608501908152608085018a8152600160a087018190526000898152600a8752979097208651815593519684019690965590516002830155516003820155925180519293926120fb9260048501920190612ddf565b5060a091909101516005909101805460ff1916911515919091179055600087815260096020526040812060070180549161213483613855565b90915550600090506103e861214b346103cf6139dc565b61215591906139f3565b6000898152600960205260408082206005015490519293506001600160a01b03169183156108fc0291849190818181858888f1935050505015801561219e573d6000803e3d6000fd5b50886001600160a01b031688837f085ec0eff4bf526b0dd054adffcd8bd8da42126a1133ce302042973f32029fb060405160405180910390a450979650505050505050565b60006001600160e01b03198216632483248360e11b148061074057506107408261283a565b6007546001600160a01b031633146119225760405162461bcd60e51b815260206004820181905260248201527f4f776e61626c653a2063616c6c6572206973206e6f7420746865206f776e657260448201526064016108c4565b61226b816124e3565b6110c75760405162461bcd60e51b8152602060048201526018602482015277115490cdcc8c4e881a5b9d985b1a59081d1bdad95b88125160421b60448201526064016108c4565b600081815260046020526040902080546001600160a01b0319166001600160a01b03841690811790915581906122e78261150d565b6001600160a01b03167f8c5be1e5ebec7d5bd14f71427d1e84f3dd0314c0f7b2291e5b200ac8c7c3b92560405160405180910390a45050565b60008061232c8361150d565b9050806001600160a01b0316846001600160a01b0316148061235357506123538185611b93565b806123775750836001600160a01b031661236c84610829565b6001600160a01b0316145b949350505050565b826001600160a01b03166123928261150d565b6001600160a01b0316146123b85760405162461bcd60e51b81526004016108c490613a2b565b6001600160a01b03821661241a5760405162461bcd60e51b8152602060048201526024808201527f4552433732313a207472616e7366657220746f20746865207a65726f206164646044820152637265737360e01b60648201526084016108c4565b826001600160a01b031661242d8261150d565b6001600160a01b0316146124535760405162461bcd60e51b81526004016108c490613a2b565b600081815260046020908152604080832080546001600160a01b03199081169091556001600160a01b0387811680865260038552838620805460001901905590871680865283862080546001019055868652600290945282852080549092168417909155905184937fddf252ad1be2c89b69c2b068fc378daa952ba7f163c4a11628f55a4df523b3ef91a4505050565b6000908152600260205260409020546001600160a01b0316151590565b6110c78161288a565b61107a8282604051806020016040528060008152506128ca565b61252c826124e3565b61258f5760405162461bcd60e51b815260206004820152602e60248201527f45524337323155524953746f726167653a2055524920736574206f66206e6f6e60448201526d32bc34b9ba32b73a103a37b5b2b760911b60648201526084016108c4565b60008281526006602052604090206125a782826138bc565b506040518281527ff8e1a15aba9398e019f0b49df1a4fde98ee17ae345cb5f6b5e2c27f5033e8ce79060200160405180910390a15050565b600780546001600160a01b038381166001600160a01b0319831681179093556040519116919082907f8be0079c531659141344cd1fd0a4f28419497f9722a3daafe3b4186f6b6457e090600090a35050565b816001600160a01b0316836001600160a01b0316036126925760405162461bcd60e51b815260206004820152601960248201527f4552433732313a20617070726f766520746f2063616c6c65720000000000000060448201526064016108c4565b6001600160a01b03838116600081815260056020908152604080832094871680845294825291829020805460ff191686151590811790915591519182527f17307eab39ab6107e8899845ad3d59bd9653f200f220920489ca2b5937696c31910160405180910390a3505050565b61270a84848461237f565b612716848484846128fd565b611b2e5760405162461bcd60e51b81526004016108c490613a70565b606061273d82612262565b6000828152600660205260408120805461275690613805565b80601f016020809104026020016040519081016040528092919081815260200182805461278290613805565b80156127cf5780601f106127a4576101008083540402835291602001916127cf565b820191906000526020600020905b8154815290600101906020018083116127b257829003601f168201915b5050505050905060006127ed60408051602081019091526000815290565b905080516000036127ff575092915050565b815115612831578082604051602001612819929190613ac2565b60405160208183030381529060405292505050919050565b612377846129fe565b60006001600160e01b031982166380ac58cd60e01b148061286b57506001600160e01b03198216635b5e139f60e01b145b8061074057506301ffc9a760e01b6001600160e01b0319831614610740565b61289381612a72565b600081815260066020526040902080546128ac90613805565b1590506110c75760008181526006602052604081206110c791612e35565b6128d48383612b07565b6128e160008484846128fd565b6109655760405162461bcd60e51b81526004016108c490613a70565b60006001600160a01b0384163b156129f357604051630a85bd0160e11b81526001600160a01b0385169063150b7a0290612941903390899088908890600401613af1565b6020604051808303816000875af192505050801561297c575060408051601f3d908101601f1916820190925261297991810190613b24565b60015b6129d9573d8080156129aa576040519150601f19603f3d011682016040523d82523d6000602084013e6129af565b606091505b5080516000036129d15760405162461bcd60e51b81526004016108c490613a70565b805181602001fd5b6001600160e01b031916630a85bd0160e11b149050612377565b506001949350505050565b6060612a0982612262565b6000612a2060408051602081019091526000815290565b90506000815111612a405760405180602001604052806000815250612a6b565b80612a4a84612c74565b604051602001612a5b929190613ac2565b6040516020818303038152906040525b9392505050565b6000612a7d8261150d565b9050612a888261150d565b600083815260046020908152604080832080546001600160a01b03199081169091556001600160a01b0385168085526003845282852080546000190190558785526002909352818420805490911690555192935084927fddf252ad1be2c89b69c2b068fc378daa952ba7f163c4a11628f55a4df523b3ef908390a45050565b6001600160a01b038216612b5d5760405162461bcd60e51b815260206004820181905260248201527f4552433732313a206d696e7420746f20746865207a65726f206164647265737360448201526064016108c4565b612b66816124e3565b15612bb35760405162461bcd60e51b815260206004820152601c60248201527f4552433732313a20746f6b656e20616c7265616479206d696e7465640000000060448201526064016108c4565b612bbc816124e3565b15612c095760405162461bcd60e51b815260206004820152601c60248201527f4552433732313a20746f6b656e20616c7265616479206d696e7465640000000060448201526064016108c4565b6001600160a01b038216600081815260036020908152604080832080546001019055848352600290915280822080546001600160a01b0319168417905551839291907fddf252ad1be2c89b69c2b068fc378daa952ba7f163c4a11628f55a4df523b3ef908290a45050565b60606000612c8183612d07565b600101905060008167ffffffffffffffff811115612ca157612ca1613045565b6040519080825280601f01601f191660200182016040528015612ccb576020820181803683370190505b5090508181016020015b600019016f181899199a1a9b1b9c1cb0b131b232b360811b600a86061a8153600a8504945084612cd557509392505050565b60008072184f03e93ff9f4daa797ed6e38ed64bf6a1f0160401b8310612d465772184f03e93ff9f4daa797ed6e38ed64bf6a1f0160401b830492506040015b6d04ee2d6d415b85acef81000000008310612d72576d04ee2d6d415b85acef8100000000830492506020015b662386f26fc100008310612d9057662386f26fc10000830492506010015b6305f5e1008310612da8576305f5e100830492506008015b6127108310612dbc57612710830492506004015b60648310612dce576064830492506002015b600a83106107405760010192915050565b828054828255906000526020600020908101928215612e25579160200282015b82811115612e255782518290612e1590826138bc565b5091602001919060010190612dff565b50612e31929150612e6f565b5090565b508054612e4190613805565b6000825580601f10612e51575050565b601f0160209004906000526020600020908101906110c79190612e8c565b80821115612e31576000612e838282612e35565b50600101612e6f565b5b80821115612e315760008155600101612e8d565b6001600160e01b0319811681146110c757600080fd5b600060208284031215612ec957600080fd5b8135612a6b81612ea1565b80356001600160a01b0381168114612eeb57600080fd5b919050565b600060208284031215612f0257600080fd5b612a6b82612ed4565b60005b83811015612f26578181015183820152602001612f0e565b50506000910152565b60008151808452612f47816020860160208601612f0b565b601f01601f19169290920160200192915050565b602081526000612a6b6020830184612f2f565b600060208284031215612f8057600080fd5b5035919050565b60008060408385031215612f9a57600080fd5b612fa383612ed4565b946020939093013593505050565b60006101408c8352806020840152612fcb8184018d612f2f565b90508281036040840152612fdf818c612f2f565b90508960608401528281036080840152612ff9818a612f2f565b6001600160a01b03891660a085015260c0840188905260e0840187905285151561010085015283810361012085015290506130348185612f2f565b9d9c50505050505050505050505050565b634e487b7160e01b600052604160045260246000fd5b604051601f8201601f1916810167ffffffffffffffff8111828210171561308457613084613045565b604052919050565b600067ffffffffffffffff8311156130a6576130a6613045565b6130b9601f8401601f191660200161305b565b90508281528383830111156130cd57600080fd5b828260208301376000602084830101529392505050565b600082601f8301126130f557600080fd5b612a6b8383356020850161308c565b60008060008060008060c0878903121561311d57600080fd5b863567ffffffffffffffff8082111561313557600080fd5b6131418a838b016130e4565b9750602089013591508082111561315757600080fd5b6131638a838b016130e4565b965060408901359550606089013591508082111561318057600080fd5b61318c8a838b016130e4565b94506080890135935060a08901359150808211156131a957600080fd5b506131b689828a016130e4565b9150509295509295509295565b6000806000606084860312156131d857600080fd5b6131e184612ed4565b92506131ef60208501612ed4565b9150604084013590509250925092565b6000806040838503121561321257600080fd5b50508035926020909101359150565b600067ffffffffffffffff82111561323b5761323b613045565b5060051b60200190565b600082601f83011261325657600080fd5b8135602061326b61326683613221565b61305b565b82815260059290921b8401810191818101908684111561328a57600080fd5b8286015b848110156132ac5761329f81612ed4565b835291830191830161328e565b509695505050505050565b600082601f8301126132c857600080fd5b813560206132d861326683613221565b82815260059290921b840181019181810190868411156132f757600080fd5b8286015b848110156132ac57803583529183019183016132fb565b600082601f83011261332357600080fd5b8135602061333361326683613221565b82815260059290921b8401810191818101908684111561335257600080fd5b8286015b848110156132ac57803567ffffffffffffffff8111156133765760008081fd5b6133848986838b01016130e4565b845250918301918301613356565b600082601f8301126133a357600080fd5b813560206133b361326683613221565b82815260059290921b840181019181810190868411156133d257600080fd5b8286015b848110156132ac57803567ffffffffffffffff8111156133f65760008081fd5b6134048986838b0101613312565b8452509183019183016133d6565b60008060008060008060c0878903121561342b57600080fd5b863567ffffffffffffffff8082111561344357600080fd5b61344f8a838b01613245565b975060208901359650604089013591508082111561346c57600080fd5b6134788a838b016132b7565b9550606089013591508082111561348e57600080fd5b61349a8a838b016132b7565b945060808901359150808211156134b057600080fd5b6134bc8a838b01613392565b935060a08901359150808211156134d257600080fd5b506131b689828a01613312565b6020808252825182820181905260009190848201906040850190845b81811015613517578351835292840192918401916001016134fb565b50909695505050505050565b60208152815160208201526000602083015161014080604085015261354c610160850183612f2f565b91506040850151601f198086850301606087015261356a8483612f2f565b93506060870151608087015260808701519150808685030160a08701526135918483612f2f565b935060a087015191506135af60c08701836001600160a01b03169052565b60c087015160e087015260e087015191506101008281880152808801519250506101206135df8188018415159052565b8701518685039091018387015290506135f88382612f2f565b9695505050505050565b6000602080835260e083018451828501528185015160408501526040850151606085015260608501516080850152608085015160c060a086015281815180845261010093508387019150838160051b8801019350848301925060005b8181101561368c5760ff1988860301835261367a858551612f2f565b9450928501929185019160010161365e565b5050505060a085015180151560c08601529150612377565b600080604083850312156136b757600080fd5b6136c083612ed4565b9150602083013580151581146136d557600080fd5b809150509250929050565b600080600080608085870312156136f657600080fd5b6136ff85612ed4565b935061370d60208601612ed4565b925060408501359150606085013567ffffffffffffffff81111561373057600080fd5b8501601f8101871361374157600080fd5b6137508782356020840161308c565b91505092959194509250565b6000806040838503121561376f57600080fd5b61377883612ed4565b915061378660208401612ed4565b90509250929050565b60008060008060008060c087890312156137a857600080fd5b6137b187612ed4565b9550602087013594506040870135935060608701359250608087013567ffffffffffffffff808211156137e357600080fd5b6137ef8a838b01613312565b935060a08901359150808211156131a957600080fd5b600181811c9082168061381957607f821691505b60208210810361383957634e487b7160e01b600052602260045260246000fd5b50919050565b634e487b7160e01b600052601160045260246000fd5b6000600182016138675761386761383f565b5060010190565b601f82111561096557600081815260208120601f850160051c810160208610156138955750805b601f850160051c820191505b818110156138b4578281556001016138a1565b505050505050565b815167ffffffffffffffff8111156138d6576138d6613045565b6138ea816138e48454613805565b8461386e565b602080601f83116001811461391f57600084156139075750858301515b600019600386901b1c1916600185901b1785556138b4565b600085815260208120601f198616915b8281101561394e5788860151825594840194600190910190840161392f565b508582101561396c5787850151600019600388901b60f8161c191681555b5050505050600190811b01905550565b6020808252602d908201527f4552433732313a2063616c6c6572206973206e6f7420746f6b656e206f776e6560408201526c1c881bdc88185c1c1c9bdd9959609a1b606082015260800190565b808201808211156107405761074061383f565b80820281158282048414176107405761074061383f565b600082613a1057634e487b7160e01b600052601260045260246000fd5b500490565b634e487b7160e01b600052603260045260246000fd5b60208082526025908201527f4552433732313a207472616e736665722066726f6d20696e636f72726563742060408201526437bbb732b960d91b606082015260800190565b60208082526032908201527f4552433732313a207472616e7366657220746f206e6f6e20455243373231526560408201527131b2b4bb32b91034b6b83632b6b2b73a32b960711b606082015260800190565b60008351613ad4818460208801612f0b565b835190830190613ae8818360208801612f0b565b01949350505050565b6001600160a01b03858116825284166020820152604081018390526080606082018190526000906135f890830184612f2f565b600060208284031215613b3657600080fd5b8151612a6b81612ea156fea26469706673582212204cf798766b5dd5ac8fed7774843cb3a212de9d406f55b7d13e2752b66622166564736f6c63430008130033608060405234801561001057600080fd5b506040516113a33803806113a383398101604081905261002f916100b1565b61003833610061565b60018055600280546001600160a01b0319166001600160a01b03929092169190911790556100e1565b600080546001600160a01b038381166001600160a01b0319831681178455604051919092169283917f8be0079c531659141344cd1fd0a4f28419497f9722a3daafe3b4186f6b6457e09190a35050565b6000602082840312156100c357600080fd5b81516001600160a01b03811681146100da57600080fd5b9392505050565b6112b3806100f06000396000f3fe6080604052600436106100c25760003560e01c806352b65afc1161007f578063a68d02ed11610059578063a68d02ed14610209578063b393391b14610229578063ec95d2d014610249578063f2fde38b1461027657600080fd5b806352b65afc146101a2578063715018a6146101c25780638da5cb5b146101d757600080fd5b806311fa5bee146100c75780631f2d6ea0146100fa578063365f62811461010f5780633ccfd60b146101405780633f8a2118146101555780634653db1614610182575b600080fd5b3480156100d357600080fd5b506100e76100e2366004610cbc565b610296565b6040519081526020015b60405180910390f35b61010d610108366004610d97565b610328565b005b34801561011b57600080fd5b5061012f61012a366004610dd6565b6105d2565b6040516100f1959493929190610e3e565b34801561014c57600080fd5b5061010d6106b1565b34801561016157600080fd5b506100e7610170366004610e77565b60046020526000908152604090205481565b34801561018e57600080fd5b5061010d61019d366004610e90565b6106f6565b3480156101ae57600080fd5b5061010d6101bd366004610ee7565b61089f565b3480156101ce57600080fd5b5061010d61091e565b3480156101e357600080fd5b506000546001600160a01b03165b6040516001600160a01b0390911681526020016100f1565b34801561021557600080fd5b5061012f610224366004610dd6565b610932565b34801561023557600080fd5b506002546101f1906001600160a01b031681565b34801561025557600080fd5b506100e7610264366004610e77565b60009081526004602052604090205490565b34801561028257600080fd5b5061010d610291366004610f25565b610aa0565b60006102a0610b16565b6002546040516308fd2df760e11b81526001600160a01b03909116906311fa5bee906102da908a908a908a908a908a908a90600401610f47565b6020604051808303816000875af11580156102f9573d6000803e3d6000fd5b505050506040513d601f19601f8201168201806040525081019061031d9190610fad565b979650505050505050565b610330610b70565b60008481526004602052604090205483106103665760405162461bcd60e51b815260040161035d90610fc6565b60405180910390fd5b600084815260036020526040812080548590811061038657610386610ff3565b60009182526020909120600590910201600481015490915060ff166103e65760405162461bcd60e51b81526020600482015260166024820152755469636b65742074797065206e6f742061637469766560501b604482015260640161035d565b80600201548382600301546103fb919061101f565b111561043e5760405162461bcd60e51b815260206004820152601260248201527145786365656473206d617820737570706c7960701b604482015260640161035d565b60008382600101546104509190611038565b9050803410156104995760405162461bcd60e51b8152602060048201526014602482015273125b9cdd59999a58da595b9d081c185e5b595b9d60621b604482015260640161035d565b838260030160008282546104ad919061101f565b909155505060408051600080825260208201909252816104dd565b60608152602001906001900390816104c85790505b50905060005b8581101561057f57600254600185015460405163fc8c1b9b60e01b81526001600160a01b039092169163fc8c1b9b91906105299089908d908d9085908a9060040161104f565b60206040518083038185885af1158015610547573d6000803e3d6000fd5b50505050506040513d601f19601f8201168201806040525081019061056c9190610fad565b5080610577816110e6565b9150506104e3565b50813411156105c057336108fc61059684346110ff565b6040518115909202916000818181858888f193505050501580156105be573d6000803e3d6000fd5b505b5050506105cc60018055565b50505050565b600360205281600052604060002081815481106105ee57600080fd5b90600052602060002090600502016000915091505080600001805461061290611112565b80601f016020809104026020016040519081016040528092919081815260200182805461063e90611112565b801561068b5780601f106106605761010080835404028352916020019161068b565b820191906000526020600020905b81548152906001019060200180831161066e57829003601f168201915b505050506001830154600284015460038501546004909501549394919390925060ff1685565b6106b9610b16565b600080546040516001600160a01b03909116914780156108fc02929091818181858888f193505050501580156106f3573d6000803e3d6000fd5b50565b6106fe610b16565b600081116107585760405162461bcd60e51b815260206004820152602160248201527f4d617820737570706c79206d7573742062652067726561746572207468616e206044820152600360fc1b606482015260840161035d565b600082116107a85760405162461bcd60e51b815260206004820152601c60248201527f5072696365206d7573742062652067726561746572207468616e203000000000604482015260640161035d565b6000848152600360209081526040808320815160a0810183528781528084018790529182018590526060820184905260016080830181905281549081018255908452919092208251600590920201908190610803908261119b565b5060208281015160018301556040808401516002840155606084015160038401556080909301516004928301805460ff19169115159190911790556000878152919052908120805491829190610858836110e6565b919050555080857fb57e745aaa7c4c706881149dfd5ae74266b3c862413e24e6187e2e9812e8a2f9868660405161089092919061125b565b60405180910390a35050505050565b6108a7610b16565b60008381526004602052604090205482106108d45760405162461bcd60e51b815260040161035d90610fc6565b60008381526003602052604090208054829190849081106108f7576108f7610ff3565b60009182526020909120600590910201600401805460ff1916911515919091179055505050565b610926610b16565b6109306000610bc9565b565b60606000806000806004600088815260200190815260200160002054861061096c5760405162461bcd60e51b815260040161035d90610fc6565b600087815260036020526040812080548890811061098c5761098c610ff3565b90600052602060002090600502016040518060a00160405290816000820180546109b590611112565b80601f01602080910402602001604051908101604052809291908181526020018280546109e190611112565b8015610a2e5780601f10610a0357610100808354040283529160200191610a2e565b820191906000526020600020905b815481529060010190602001808311610a1157829003601f168201915b505050505081526020016001820154815260200160028201548152602001600382015481526020016004820160009054906101000a900460ff16151515158152505090508060000151816020015182604001518360600151846080015195509550955095509550509295509295909350565b610aa8610b16565b6001600160a01b038116610b0d5760405162461bcd60e51b815260206004820152602660248201527f4f776e61626c653a206e6577206f776e657220697320746865207a65726f206160448201526564647265737360d01b606482015260840161035d565b6106f381610bc9565b6000546001600160a01b031633146109305760405162461bcd60e51b815260206004820181905260248201527f4f776e61626c653a2063616c6c6572206973206e6f7420746865206f776e6572604482015260640161035d565b600260015403610bc25760405162461bcd60e51b815260206004820152601f60248201527f5265656e7472616e637947756172643a207265656e7472616e742063616c6c00604482015260640161035d565b6002600155565b600080546001600160a01b038381166001600160a01b0319831681178455604051919092169283917f8be0079c531659141344cd1fd0a4f28419497f9722a3daafe3b4186f6b6457e09190a35050565b634e487b7160e01b600052604160045260246000fd5b600082601f830112610c4057600080fd5b813567ffffffffffffffff80821115610c5b57610c5b610c19565b604051601f8301601f19908116603f01168101908282118183101715610c8357610c83610c19565b81604052838152866020858801011115610c9c57600080fd5b836020870160208301376000602085830101528094505050505092915050565b60008060008060008060c08789031215610cd557600080fd5b863567ffffffffffffffff80821115610ced57600080fd5b610cf98a838b01610c2f565b97506020890135915080821115610d0f57600080fd5b610d1b8a838b01610c2f565b9650604089013595506060890135915080821115610d3857600080fd5b610d448a838b01610c2f565b94506080890135935060a0890135915080821115610d6157600080fd5b50610d6e89828a01610c2f565b9150509295509295509295565b80356001600160a01b0381168114610d9257600080fd5b919050565b60008060008060808587031215610dad57600080fd5b843593506020850135925060408501359150610dcb60608601610d7b565b905092959194509250565b60008060408385031215610de957600080fd5b50508035926020909101359150565b6000815180845260005b81811015610e1e57602081850181015186830182015201610e02565b506000602082860101526020601f19601f83011685010191505092915050565b60a081526000610e5160a0830188610df8565b905085602083015284604083015283606083015282151560808301529695505050505050565b600060208284031215610e8957600080fd5b5035919050565b60008060008060808587031215610ea657600080fd5b84359350602085013567ffffffffffffffff811115610ec457600080fd5b610ed087828801610c2f565b949794965050505060408301359260600135919050565b600080600060608486031215610efc57600080fd5b833592506020840135915060408401358015158114610f1a57600080fd5b809150509250925092565b600060208284031215610f3757600080fd5b610f4082610d7b565b9392505050565b60c081526000610f5a60c0830189610df8565b8281036020840152610f6c8189610df8565b90508660408401528281036060840152610f868187610df8565b905084608084015282810360a0840152610fa08185610df8565b9998505050505050505050565b600060208284031215610fbf57600080fd5b5051919050565b602080825260139082015272496e76616c6964207469636b6574207479706560681b604082015260600190565b634e487b7160e01b600052603260045260246000fd5b634e487b7160e01b600052601160045260246000fd5b8082018082111561103257611032611009565b92915050565b808202811582820484141761103257611032611009565b600060c0820160018060a01b03881683526020878185015286604085015285606085015260c0608085015281855180845260e08601915060e08160051b870101935082870160005b828110156110c55760df198887030184526110b3868351610df8565b95509284019290840190600101611097565b5050505083820360a085015250600081526020810198975050505050505050565b6000600182016110f8576110f8611009565b5060010190565b8181038181111561103257611032611009565b600181811c9082168061112657607f821691505b60208210810361114657634e487b7160e01b600052602260045260246000fd5b50919050565b601f82111561119657600081815260208120601f850160051c810160208610156111735750805b601f850160051c820191505b818110156111925782815560010161117f565b5050505b505050565b815167ffffffffffffffff8111156111b5576111b5610c19565b6111c9816111c38454611112565b8461114c565b602080601f8311600181146111fe57600084156111e65750858301515b600019600386901b1c1916600185901b178555611192565b600085815260208120601f198616915b8281101561122d5788860151825594840194600190910190840161120e565b508582101561124b5787850151600019600388901b60f8161c191681555b5050505050600190811b01905550565b60408152600061126e6040830185610df8565b9050826020830152939250505056fea26469706673582212207c2d1a85ad2a5e3bedd3690590eaa4133f49a8ed0de1f648ca05ca9238d772de64736f6c63430008130033a264697066735822122078ebcc84731cf65314da333652e872951c491934aaec9bee61ee29916bfd6ca964736f6c63430008130033",
  "linkReferences": {},
  "deployedLinkReferences": {}
}